{"contracts/Token.sol":{"Token":{"abi":[{"inputs":[],"stateMutability":"nonpayable","type":"constructor"},{"inputs":[{"internalType":"address","name":"spender","type":"address"},{"internalType":"uint256","name":"allowance","type":"uint256"},{"internalType":"uint256","name":"needed","type":"uint256"}],"name":"ERC20InsufficientAllowance","type":"error"},{"inputs":[{"internalType":"address","name":"sender","type":"address"},{"internalType":"uint256","name":"balance","type":"uint256"},{"internalType":"uint256","name":"needed","type":"uint256"}],"name":"ERC20InsufficientBalance","type":"error"},{"inputs":[{"internalType":"address","name":"approver","type":"address"}],"name":"ERC20InvalidApprover","type":"error"},{"inputs":[{"internalType":"address","name":"receiver","type":"address"}],"name":"ERC20InvalidReceiver","type":"error"},{"inputs":[{"internalType":"address","name":"sender","type":"address"}],"name":"ERC20InvalidSender","type":"error"},{"inputs":[{"internalType":"address","name":"spender","type":"address"}],"name":"ERC20InvalidSpender","type":"error"},{"anonymous":false,"inputs":[{"indexed":true,"internalType":"address","name":"owner","type":"address"},{"indexed":true,"internalType":"address","name":"spender","type":"address"},{"indexed":false,"internalType":"uint256","name":"value","type":"uint256"}],"name":"Approval","type":"event"},{"anonymous":false,"inputs":[{"indexed":true,"internalType":"address","name":"from","type":"address"},{"indexed":true,"internalType":"address","name":"to","type":"address"},{"indexed":false,"internalType":"uint256","name":"value","type":"uint256"}],"name":"Transfer","type":"event"},{"inputs":[{"internalType":"address","name":"owner","type":"address"},{"internalType":"address","name":"spender","type":"address"}],"name":"allowance","outputs":[{"internalType":"uint256","name":"","type":"uint256"}],"stateMutability":"view","type":"function"},{"inputs":[{"internalType":"address","name":"spender","type":"address"},{"internalType":"uint256","name":"value","type":"uint256"}],"name":"approve","outputs":[{"internalType":"bool","name":"","type":"bool"}],"stateMutability":"nonpayable","type":"function"},{"inputs":[{"internalType":"address","name":"account","type":"address"}],"name":"balanceOf","outputs":[{"internalType":"uint256","name":"","type":"uint256"}],"stateMutability":"view","type":"function"},{"inputs":[],"name":"decimals","outputs":[{"internalType":"uint8","name":"","type":"uint8"}],"stateMutability":"view","type":"function"},{"inputs":[{"internalType":"address","name":"account","type":"address"},{"internalType":"uint256","name":"amount","type":"uint256"}],"name":"mint","outputs":[],"stateMutability":"nonpayable","type":"function"},{"inputs":[],"name":"name","outputs":[{"internalType":"string","name":"","type":"string"}],"stateMutability":"view","type":"function"},{"inputs":[],"name":"symbol","outputs":[{"internalType":"string","name":"","type":"string"}],"stateMutability":"view","type":"function"},{"inputs":[],"name":"totalSupply","outputs":[{"internalType":"uint256","name":"","type":"uint256"}],"stateMutability":"view","type":"function"},{"inputs":[{"internalType":"address","name":"to","type":"address"},{"internalType":"uint256","name":"value","type":"uint256"}],"name":"transfer","outputs":[{"internalType":"bool","name":"","type":"bool"}],"stateMutability":"nonpayable","type":"function"},{"inputs":[{"internalType":"address","name":"from","type":"address"},{"internalType":"address","name":"to","type":"address"},{"internalType":"uint256","name":"value","type":"uint256"}],"name":"transferFrom","outputs":[{"internalType":"bool","name":"","type":"bool"}],"stateMutability":"nonpayable","type":"function"}],"evm":{"bytecode":{"linkReferences":{},"object":"60806040523480156200001157600080fd5b506040518060400160405280600781526020017f5441534b544f4b000000000000000000000000000000000000000000000000008152506040518060400160405280600381526020017f545454000000000000000000000000000000000000000000000000000000000081525081600390816200008f91906200062a565b508060049081620000a191906200062a565b505050620000e433620000b9620000ea60201b60201c565b600a620000c79190620008a1565b6305f5e100620000d89190620008f2565b620000f360201b60201c565b62000a45565b60006012905090565b600073ffffffffffffffffffffffffffffffffffffffff168273ffffffffffffffffffffffffffffffffffffffff1603620001685760006040517fec442f050000000000000000000000000000000000000000000000000000000081526004016200015f919062000982565b60405180910390fd5b6200017c600083836200018060201b60201c565b5050565b600073ffffffffffffffffffffffffffffffffffffffff168373ffffffffffffffffffffffffffffffffffffffff1603620001d6578060026000828254620001c991906200099f565b92505081905550620002ac565b60008060008573ffffffffffffffffffffffffffffffffffffffff1673ffffffffffffffffffffffffffffffffffffffff1681526020019081526020016000205490508181101562000265578381836040517fe450d38c0000000000000000000000000000000000000000000000000000000081526004016200025c93929190620009eb565b60405180910390fd5b8181036000808673ffffffffffffffffffffffffffffffffffffffff1673ffffffffffffffffffffffffffffffffffffffff16815260200190815260200160002081905550505b600073ffffffffffffffffffffffffffffffffffffffff168273ffffffffffffffffffffffffffffffffffffffff1603620002f7578060026000828254039250508190555062000344565b806000808473ffffffffffffffffffffffffffffffffffffffff1673ffffffffffffffffffffffffffffffffffffffff168152602001908152602001600020600082825401925050819055505b8173ffffffffffffffffffffffffffffffffffffffff168373ffffffffffffffffffffffffffffffffffffffff167fddf252ad1be2c89b69c2b068fc378daa952ba7f163c4a11628f55a4df523b3ef83604051620003a3919062000a28565b60405180910390a3505050565b600081519050919050565b7f4e487b7100000000000000000000000000000000000000000000000000000000600052604160045260246000fd5b7f4e487b7100000000000000000000000000000000000000000000000000000000600052602260045260246000fd5b600060028204905060018216806200043257607f821691505b602082108103620004485762000447620003ea565b5b50919050565b60008190508160005260206000209050919050565b60006020601f8301049050919050565b600082821b905092915050565b600060088302620004b27fffffffffffffffffffffffffffffffffffffffffffffffffffffffffffffffff8262000473565b620004be868362000473565b95508019841693508086168417925050509392505050565b6000819050919050565b6000819050919050565b60006200050b62000505620004ff84620004d6565b620004e0565b620004d6565b9050919050565b6000819050919050565b6200052783620004ea565b6200053f620005368262000512565b84845462000480565b825550505050565b600090565b6200055662000547565b620005638184846200051c565b505050565b5b818110156200058b576200057f6000826200054c565b60018101905062000569565b5050565b601f821115620005da57620005a4816200044e565b620005af8462000463565b81016020851015620005bf578190505b620005d7620005ce8562000463565b83018262000568565b50505b505050565b600082821c905092915050565b6000620005ff60001984600802620005df565b1980831691505092915050565b60006200061a8383620005ec565b9150826002028217905092915050565b6200063582620003b0565b67ffffffffffffffff811115620006515762000650620003bb565b5b6200065d825462000419565b6200066a8282856200058f565b600060209050601f831160018114620006a257600084156200068d578287015190505b6200069985826200060c565b86555062000709565b601f198416620006b2866200044e565b60005b82811015620006dc57848901518255600182019150602085019450602081019050620006b5565b86831015620006fc5784890151620006f8601f891682620005ec565b8355505b6001600288020188555050505b505050505050565b7f4e487b7100000000000000000000000000000000000000000000000000000000600052601160045260246000fd5b60008160011c9050919050565b6000808291508390505b60018511156200079f5780860481111562000777576200077662000711565b5b6001851615620007875780820291505b8081029050620007978562000740565b945062000757565b94509492505050565b600082620007ba57600190506200088d565b81620007ca57600090506200088d565b8160018114620007e35760028114620007ee5762000824565b60019150506200088d565b60ff84111562000803576200080262000711565b5b8360020a9150848211156200081d576200081c62000711565b5b506200088d565b5060208310610133831016604e8410600b84101617156200085e5782820a90508381111562000858576200085762000711565b5b6200088d565b6200086d84848460016200074d565b9250905081840481111562000887576200088662000711565b5b81810290505b9392505050565b600060ff82169050919050565b6000620008ae82620004d6565b9150620008bb8362000894565b9250620008ea7fffffffffffffffffffffffffffffffffffffffffffffffffffffffffffffffff8484620007a8565b905092915050565b6000620008ff82620004d6565b91506200090c83620004d6565b92508282026200091c81620004d6565b9150828204841483151762000936576200093562000711565b5b5092915050565b600073ffffffffffffffffffffffffffffffffffffffff82169050919050565b60006200096a826200093d565b9050919050565b6200097c816200095d565b82525050565b600060208201905062000999600083018462000971565b92915050565b6000620009ac82620004d6565b9150620009b983620004d6565b9250828201905080821115620009d457620009d362000711565b5b92915050565b620009e581620004d6565b82525050565b600060608201905062000a02600083018662000971565b62000a116020830185620009da565b62000a206040830184620009da565b949350505050565b600060208201905062000a3f6000830184620009da565b92915050565b610f0c8062000a556000396000f3fe608060405234801561001057600080fd5b506004361061009e5760003560e01c806340c10f191161006657806340c10f191461015d57806370a082311461017957806395d89b41146101a9578063a9059cbb146101c7578063dd62ed3e146101f75761009e565b806306fdde03146100a3578063095ea7b3146100c157806318160ddd146100f157806323b872dd1461010f578063313ce5671461013f575b600080fd5b6100ab610227565b6040516100b89190610b60565b60405180910390f35b6100db60048036038101906100d69190610c1b565b6102b9565b6040516100e89190610c76565b60405180910390f35b6100f96102dc565b6040516101069190610ca0565b60405180910390f35b61012960048036038101906101249190610cbb565b6102e6565b6040516101369190610c76565b60405180910390f35b610147610315565b6040516101549190610d2a565b60405180910390f35b61017760048036038101906101729190610c1b565b61031e565b005b610193600480360381019061018e9190610d45565b61032c565b6040516101a09190610ca0565b60405180910390f35b6101b1610374565b6040516101be9190610b60565b60405180910390f35b6101e160048036038101906101dc9190610c1b565b610406565b6040516101ee9190610c76565b60405180910390f35b610211600480360381019061020c9190610d72565b610429565b60405161021e9190610ca0565b60405180910390f35b60606003805461023690610de1565b80601f016020809104026020016040519081016040528092919081815260200182805461026290610de1565b80156102af5780601f10610284576101008083540402835291602001916102af565b820191906000526020600020905b81548152906001019060200180831161029257829003601f168201915b5050505050905090565b6000806102c46104b0565b90506102d18185856104b8565b600191505092915050565b6000600254905090565b6000806102f16104b0565b90506102fe8582856104ca565b61030985858561055e565b60019150509392505050565b60006012905090565b6103288282610652565b5050565b60008060008373ffffffffffffffffffffffffffffffffffffffff1673ffffffffffffffffffffffffffffffffffffffff168152602001908152602001600020549050919050565b60606004805461038390610de1565b80601f01602080910402602001604051908101604052809291908181526020018280546103af90610de1565b80156103fc5780601f106103d1576101008083540402835291602001916103fc565b820191906000526020600020905b8154815290600101906020018083116103df57829003601f168201915b5050505050905090565b6000806104116104b0565b905061041e81858561055e565b600191505092915050565b6000600160008473ffffffffffffffffffffffffffffffffffffffff1673ffffffffffffffffffffffffffffffffffffffff16815260200190815260200160002060008373ffffffffffffffffffffffffffffffffffffffff1673ffffffffffffffffffffffffffffffffffffffff16815260200190815260200160002054905092915050565b600033905090565b6104c583838360016106d4565b505050565b60006104d68484610429565b90507fffffffffffffffffffffffffffffffffffffffffffffffffffffffffffffffff81146105585781811015610548578281836040517ffb8f41b200000000000000000000000000000000000000000000000000000000815260040161053f93929190610e21565b60405180910390fd5b610557848484840360006106d4565b5b50505050565b600073ffffffffffffffffffffffffffffffffffffffff168373ffffffffffffffffffffffffffffffffffffffff16036105d05760006040517f96c6fd1e0000000000000000000000000000000000000000000000000000000081526004016105c79190610e58565b60405180910390fd5b600073ffffffffffffffffffffffffffffffffffffffff168273ffffffffffffffffffffffffffffffffffffffff16036106425760006040517fec442f050000000000000000000000000000000000000000000000000000000081526004016106399190610e58565b60405180910390fd5b61064d8383836108ab565b505050565b600073ffffffffffffffffffffffffffffffffffffffff168273ffffffffffffffffffffffffffffffffffffffff16036106c45760006040517fec442f050000000000000000000000000000000000000000000000000000000081526004016106bb9190610e58565b60405180910390fd5b6106d0600083836108ab565b5050565b600073ffffffffffffffffffffffffffffffffffffffff168473ffffffffffffffffffffffffffffffffffffffff16036107465760006040517fe602df0500000000000000000000000000000000000000000000000000000000815260040161073d9190610e58565b60405180910390fd5b600073ffffffffffffffffffffffffffffffffffffffff168373ffffffffffffffffffffffffffffffffffffffff16036107b85760006040517f94280d620000000000000000000000000000000000000000000000000000000081526004016107af9190610e58565b60405180910390fd5b81600160008673ffffffffffffffffffffffffffffffffffffffff1673ffffffffffffffffffffffffffffffffffffffff16815260200190815260200160002060008573ffffffffffffffffffffffffffffffffffffffff1673ffffffffffffffffffffffffffffffffffffffff1681526020019081526020016000208190555080156108a5578273ffffffffffffffffffffffffffffffffffffffff168473ffffffffffffffffffffffffffffffffffffffff167f8c5be1e5ebec7d5bd14f71427d1e84f3dd0314c0f7b2291e5b200ac8c7c3b9258460405161089c9190610ca0565b60405180910390a35b50505050565b600073ffffffffffffffffffffffffffffffffffffffff168373ffffffffffffffffffffffffffffffffffffffff16036108fd5780600260008282546108f19190610ea2565b925050819055506109d0565b60008060008573ffffffffffffffffffffffffffffffffffffffff1673ffffffffffffffffffffffffffffffffffffffff16815260200190815260200160002054905081811015610989578381836040517fe450d38c00000000000000000000000000000000000000000000000000000000815260040161098093929190610e21565b60405180910390fd5b8181036000808673ffffffffffffffffffffffffffffffffffffffff1673ffffffffffffffffffffffffffffffffffffffff16815260200190815260200160002081905550505b600073ffffffffffffffffffffffffffffffffffffffff168273ffffffffffffffffffffffffffffffffffffffff1603610a195780600260008282540392505081905550610a66565b806000808473ffffffffffffffffffffffffffffffffffffffff1673ffffffffffffffffffffffffffffffffffffffff168152602001908152602001600020600082825401925050819055505b8173ffffffffffffffffffffffffffffffffffffffff168373ffffffffffffffffffffffffffffffffffffffff167fddf252ad1be2c89b69c2b068fc378daa952ba7f163c4a11628f55a4df523b3ef83604051610ac39190610ca0565b60405180910390a3505050565b600081519050919050565b600082825260208201905092915050565b60005b83811015610b0a578082015181840152602081019050610aef565b60008484015250505050565b6000601f19601f8301169050919050565b6000610b3282610ad0565b610b3c8185610adb565b9350610b4c818560208601610aec565b610b5581610b16565b840191505092915050565b60006020820190508181036000830152610b7a8184610b27565b905092915050565b600080fd5b600073ffffffffffffffffffffffffffffffffffffffff82169050919050565b6000610bb282610b87565b9050919050565b610bc281610ba7565b8114610bcd57600080fd5b50565b600081359050610bdf81610bb9565b92915050565b6000819050919050565b610bf881610be5565b8114610c0357600080fd5b50565b600081359050610c1581610bef565b92915050565b60008060408385031215610c3257610c31610b82565b5b6000610c4085828601610bd0565b9250506020610c5185828601610c06565b9150509250929050565b60008115159050919050565b610c7081610c5b565b82525050565b6000602082019050610c8b6000830184610c67565b92915050565b610c9a81610be5565b82525050565b6000602082019050610cb56000830184610c91565b92915050565b600080600060608486031215610cd457610cd3610b82565b5b6000610ce286828701610bd0565b9350506020610cf386828701610bd0565b9250506040610d0486828701610c06565b9150509250925092565b600060ff82169050919050565b610d2481610d0e565b82525050565b6000602082019050610d3f6000830184610d1b565b92915050565b600060208284031215610d5b57610d5a610b82565b5b6000610d6984828501610bd0565b91505092915050565b60008060408385031215610d8957610d88610b82565b5b6000610d9785828601610bd0565b9250506020610da885828601610bd0565b9150509250929050565b7f4e487b7100000000000000000000000000000000000000000000000000000000600052602260045260246000fd5b60006002820490506001821680610df957607f821691505b602082108103610e0c57610e0b610db2565b5b50919050565b610e1b81610ba7565b82525050565b6000606082019050610e366000830186610e12565b610e436020830185610c91565b610e506040830184610c91565b949350505050565b6000602082019050610e6d6000830184610e12565b92915050565b7f4e487b7100000000000000000000000000000000000000000000000000000000600052601160045260246000fd5b6000610ead82610be5565b9150610eb883610be5565b9250828201905080821115610ed057610ecf610e73565b5b9291505056fea2646970667358221220b36ad20540c05699ff66d0d74ff6d53d555c21fdb47136429365b23e2bc0795164736f6c63430008180033","opcodes":"PUSH1 0x80 PUSH1 0x40 MSTORE CALLVALUE DUP1 ISZERO PUSH3 0x11 JUMPI PUSH1 0x0 DUP1 REVERT JUMPDEST POP PUSH1 0x40 MLOAD DUP1 PUSH1 0x40 ADD PUSH1 0x40 MSTORE DUP1 PUSH1 0x7 DUP2 MSTORE PUSH1 0x20 ADD PUSH32 0x5441534B544F4B00000000000000000000000000000000000000000000000000 DUP2 MSTORE POP PUSH1 0x40 MLOAD DUP1 PUSH1 0x40 ADD PUSH1 0x40 MSTORE DUP1 PUSH1 0x3 DUP2 MSTORE PUSH1 0x20 ADD PUSH32 0x5454540000000000000000000000000000000000000000000000000000000000 DUP2 MSTORE POP DUP2 PUSH1 0x3 SWAP1 DUP2 PUSH3 0x8F SWAP2 SWAP1 PUSH3 0x62A JUMP JUMPDEST POP DUP1 PUSH1 0x4 SWAP1 DUP2 PUSH3 0xA1 SWAP2 SWAP1 PUSH3 0x62A JUMP JUMPDEST POP POP POP PUSH3 0xE4 CALLER PUSH3 0xB9 PUSH3 0xEA PUSH1 0x20 SHL PUSH1 0x20 SHR JUMP JUMPDEST PUSH1 0xA PUSH3 0xC7 SWAP2 SWAP1 PUSH3 0x8A1 JUMP JUMPDEST PUSH4 0x5F5E100 PUSH3 0xD8 SWAP2 SWAP1 PUSH3 0x8F2 JUMP JUMPDEST PUSH3 0xF3 PUSH1 0x20 SHL PUSH1 0x20 SHR JUMP JUMPDEST PUSH3 0xA45 JUMP JUMPDEST PUSH1 0x0 PUSH1 0x12 SWAP1 POP SWAP1 JUMP JUMPDEST PUSH1 0x0 PUSH20 0xFFFFFFFFFFFFFFFFFFFFFFFFFFFFFFFFFFFFFFFF AND DUP3 PUSH20 0xFFFFFFFFFFFFFFFFFFFFFFFFFFFFFFFFFFFFFFFF AND SUB PUSH3 0x168 JUMPI PUSH1 0x0 PUSH1 0x40 MLOAD PUSH32 0xEC442F0500000000000000000000000000000000000000000000000000000000 DUP2 MSTORE PUSH1 0x4 ADD PUSH3 0x15F SWAP2 SWAP1 PUSH3 0x982 JUMP JUMPDEST PUSH1 0x40 MLOAD DUP1 SWAP2 SUB SWAP1 REVERT JUMPDEST PUSH3 0x17C PUSH1 0x0 DUP4 DUP4 PUSH3 0x180 PUSH1 0x20 SHL PUSH1 0x20 SHR JUMP JUMPDEST POP POP JUMP JUMPDEST PUSH1 0x0 PUSH20 0xFFFFFFFFFFFFFFFFFFFFFFFFFFFFFFFFFFFFFFFF AND DUP4 PUSH20 0xFFFFFFFFFFFFFFFFFFFFFFFFFFFFFFFFFFFFFFFF AND SUB PUSH3 0x1D6 JUMPI DUP1 PUSH1 0x2 PUSH1 0x0 DUP3 DUP3 SLOAD PUSH3 0x1C9 SWAP2 SWAP1 PUSH3 0x99F JUMP JUMPDEST SWAP3 POP POP DUP2 SWAP1 SSTORE POP PUSH3 0x2AC JUMP JUMPDEST PUSH1 0x0 DUP1 PUSH1 0x0 DUP6 PUSH20 0xFFFFFFFFFFFFFFFFFFFFFFFFFFFFFFFFFFFFFFFF AND PUSH20 0xFFFFFFFFFFFFFFFFFFFFFFFFFFFFFFFFFFFFFFFF AND DUP2 MSTORE PUSH1 0x20 ADD SWAP1 DUP2 MSTORE PUSH1 0x20 ADD PUSH1 0x0 KECCAK256 SLOAD SWAP1 POP DUP2 DUP2 LT ISZERO PUSH3 0x265 JUMPI DUP4 DUP2 DUP4 PUSH1 0x40 MLOAD PUSH32 0xE450D38C00000000000000000000000000000000000000000000000000000000 DUP2 MSTORE PUSH1 0x4 ADD PUSH3 0x25C SWAP4 SWAP3 SWAP2 SWAP1 PUSH3 0x9EB JUMP JUMPDEST PUSH1 0x40 MLOAD DUP1 SWAP2 SUB SWAP1 REVERT JUMPDEST DUP2 DUP2 SUB PUSH1 0x0 DUP1 DUP7 PUSH20 0xFFFFFFFFFFFFFFFFFFFFFFFFFFFFFFFFFFFFFFFF AND PUSH20 0xFFFFFFFFFFFFFFFFFFFFFFFFFFFFFFFFFFFFFFFF AND DUP2 MSTORE PUSH1 0x20 ADD SWAP1 DUP2 MSTORE PUSH1 0x20 ADD PUSH1 0x0 KECCAK256 DUP2 SWAP1 SSTORE POP POP JUMPDEST PUSH1 0x0 PUSH20 0xFFFFFFFFFFFFFFFFFFFFFFFFFFFFFFFFFFFFFFFF AND DUP3 PUSH20 0xFFFFFFFFFFFFFFFFFFFFFFFFFFFFFFFFFFFFFFFF AND SUB PUSH3 0x2F7 JUMPI DUP1 PUSH1 0x2 PUSH1 0x0 DUP3 DUP3 SLOAD SUB SWAP3 POP POP DUP2 SWAP1 SSTORE POP PUSH3 0x344 JUMP JUMPDEST DUP1 PUSH1 0x0 DUP1 DUP5 PUSH20 0xFFFFFFFFFFFFFFFFFFFFFFFFFFFFFFFFFFFFFFFF AND PUSH20 0xFFFFFFFFFFFFFFFFFFFFFFFFFFFFFFFFFFFFFFFF AND DUP2 MSTORE PUSH1 0x20 ADD SWAP1 DUP2 MSTORE PUSH1 0x20 ADD PUSH1 0x0 KECCAK256 PUSH1 0x0 DUP3 DUP3 SLOAD ADD SWAP3 POP POP DUP2 SWAP1 SSTORE POP JUMPDEST DUP2 PUSH20 0xFFFFFFFFFFFFFFFFFFFFFFFFFFFFFFFFFFFFFFFF AND DUP4 PUSH20 0xFFFFFFFFFFFFFFFFFFFFFFFFFFFFFFFFFFFFFFFF AND PUSH32 0xDDF252AD1BE2C89B69C2B068FC378DAA952BA7F163C4A11628F55A4DF523B3EF DUP4 PUSH1 0x40 MLOAD PUSH3 0x3A3 SWAP2 SWAP1 PUSH3 0xA28 JUMP JUMPDEST PUSH1 0x40 MLOAD DUP1 SWAP2 SUB SWAP1 LOG3 POP POP POP JUMP JUMPDEST PUSH1 0x0 DUP2 MLOAD SWAP1 POP SWAP2 SWAP1 POP JUMP JUMPDEST PUSH32 0x4E487B7100000000000000000000000000000000000000000000000000000000 PUSH1 0x0 MSTORE PUSH1 0x41 PUSH1 0x4 MSTORE PUSH1 0x24 PUSH1 0x0 REVERT JUMPDEST PUSH32 0x4E487B7100000000000000000000000000000000000000000000000000000000 PUSH1 0x0 MSTORE PUSH1 0x22 PUSH1 0x4 MSTORE PUSH1 0x24 PUSH1 0x0 REVERT JUMPDEST PUSH1 0x0 PUSH1 0x2 DUP3 DIV SWAP1 POP PUSH1 0x1 DUP3 AND DUP1 PUSH3 0x432 JUMPI PUSH1 0x7F DUP3 AND SWAP2 POP JUMPDEST PUSH1 0x20 DUP3 LT DUP2 SUB PUSH3 0x448 JUMPI PUSH3 0x447 PUSH3 0x3EA JUMP JUMPDEST JUMPDEST POP SWAP2 SWAP1 POP JUMP JUMPDEST PUSH1 0x0 DUP2 SWAP1 POP DUP2 PUSH1 0x0 MSTORE PUSH1 0x20 PUSH1 0x0 KECCAK256 SWAP1 POP SWAP2 SWAP1 POP JUMP JUMPDEST PUSH1 0x0 PUSH1 0x20 PUSH1 0x1F DUP4 ADD DIV SWAP1 POP SWAP2 SWAP1 POP JUMP JUMPDEST PUSH1 0x0 DUP3 DUP3 SHL SWAP1 POP SWAP3 SWAP2 POP POP JUMP JUMPDEST PUSH1 0x0 PUSH1 0x8 DUP4 MUL PUSH3 0x4B2 PUSH32 0xFFFFFFFFFFFFFFFFFFFFFFFFFFFFFFFFFFFFFFFFFFFFFFFFFFFFFFFFFFFFFFFF DUP3 PUSH3 0x473 JUMP JUMPDEST PUSH3 0x4BE DUP7 DUP4 PUSH3 0x473 JUMP JUMPDEST SWAP6 POP DUP1 NOT DUP5 AND SWAP4 POP DUP1 DUP7 AND DUP5 OR SWAP3 POP POP POP SWAP4 SWAP3 POP POP POP JUMP JUMPDEST PUSH1 0x0 DUP2 SWAP1 POP SWAP2 SWAP1 POP JUMP JUMPDEST PUSH1 0x0 DUP2 SWAP1 POP SWAP2 SWAP1 POP JUMP JUMPDEST PUSH1 0x0 PUSH3 0x50B PUSH3 0x505 PUSH3 0x4FF DUP5 PUSH3 0x4D6 JUMP JUMPDEST PUSH3 0x4E0 JUMP JUMPDEST PUSH3 0x4D6 JUMP JUMPDEST SWAP1 POP SWAP2 SWAP1 POP JUMP JUMPDEST PUSH1 0x0 DUP2 SWAP1 POP SWAP2 SWAP1 POP JUMP JUMPDEST PUSH3 0x527 DUP4 PUSH3 0x4EA JUMP JUMPDEST PUSH3 0x53F PUSH3 0x536 DUP3 PUSH3 0x512 JUMP JUMPDEST DUP5 DUP5 SLOAD PUSH3 0x480 JUMP JUMPDEST DUP3 SSTORE POP POP POP POP JUMP JUMPDEST PUSH1 0x0 SWAP1 JUMP JUMPDEST PUSH3 0x556 PUSH3 0x547 JUMP JUMPDEST PUSH3 0x563 DUP2 DUP5 DUP5 PUSH3 0x51C JUMP JUMPDEST POP POP POP JUMP JUMPDEST JUMPDEST DUP2 DUP2 LT ISZERO PUSH3 0x58B JUMPI PUSH3 0x57F PUSH1 0x0 DUP3 PUSH3 0x54C JUMP JUMPDEST PUSH1 0x1 DUP2 ADD SWAP1 POP PUSH3 0x569 JUMP JUMPDEST POP POP JUMP JUMPDEST PUSH1 0x1F DUP3 GT ISZERO PUSH3 0x5DA JUMPI PUSH3 0x5A4 DUP2 PUSH3 0x44E JUMP JUMPDEST PUSH3 0x5AF DUP5 PUSH3 0x463 JUMP JUMPDEST DUP2 ADD PUSH1 0x20 DUP6 LT ISZERO PUSH3 0x5BF JUMPI DUP2 SWAP1 POP JUMPDEST PUSH3 0x5D7 PUSH3 0x5CE DUP6 PUSH3 0x463 JUMP JUMPDEST DUP4 ADD DUP3 PUSH3 0x568 JUMP JUMPDEST POP POP JUMPDEST POP POP POP JUMP JUMPDEST PUSH1 0x0 DUP3 DUP3 SHR SWAP1 POP SWAP3 SWAP2 POP POP JUMP JUMPDEST PUSH1 0x0 PUSH3 0x5FF PUSH1 0x0 NOT DUP5 PUSH1 0x8 MUL PUSH3 0x5DF JUMP JUMPDEST NOT DUP1 DUP4 AND SWAP2 POP POP SWAP3 SWAP2 POP POP JUMP JUMPDEST PUSH1 0x0 PUSH3 0x61A DUP4 DUP4 PUSH3 0x5EC JUMP JUMPDEST SWAP2 POP DUP3 PUSH1 0x2 MUL DUP3 OR SWAP1 POP SWAP3 SWAP2 POP POP JUMP JUMPDEST PUSH3 0x635 DUP3 PUSH3 0x3B0 JUMP JUMPDEST PUSH8 0xFFFFFFFFFFFFFFFF DUP2 GT ISZERO PUSH3 0x651 JUMPI PUSH3 0x650 PUSH3 0x3BB JUMP JUMPDEST JUMPDEST PUSH3 0x65D DUP3 SLOAD PUSH3 0x419 JUMP JUMPDEST PUSH3 0x66A DUP3 DUP3 DUP6 PUSH3 0x58F JUMP JUMPDEST PUSH1 0x0 PUSH1 0x20 SWAP1 POP PUSH1 0x1F DUP4 GT PUSH1 0x1 DUP2 EQ PUSH3 0x6A2 JUMPI PUSH1 0x0 DUP5 ISZERO PUSH3 0x68D JUMPI DUP3 DUP8 ADD MLOAD SWAP1 POP JUMPDEST PUSH3 0x699 DUP6 DUP3 PUSH3 0x60C JUMP JUMPDEST DUP7 SSTORE POP PUSH3 0x709 JUMP JUMPDEST PUSH1 0x1F NOT DUP5 AND PUSH3 0x6B2 DUP7 PUSH3 0x44E JUMP JUMPDEST PUSH1 0x0 JUMPDEST DUP3 DUP2 LT ISZERO PUSH3 0x6DC JUMPI DUP5 DUP10 ADD MLOAD DUP3 SSTORE PUSH1 0x1 DUP3 ADD SWAP2 POP PUSH1 0x20 DUP6 ADD SWAP5 POP PUSH1 0x20 DUP2 ADD SWAP1 POP PUSH3 0x6B5 JUMP JUMPDEST DUP7 DUP4 LT ISZERO PUSH3 0x6FC JUMPI DUP5 DUP10 ADD MLOAD PUSH3 0x6F8 PUSH1 0x1F DUP10 AND DUP3 PUSH3 0x5EC JUMP JUMPDEST DUP4 SSTORE POP JUMPDEST PUSH1 0x1 PUSH1 0x2 DUP9 MUL ADD DUP9 SSTORE POP POP POP JUMPDEST POP POP POP POP POP POP JUMP JUMPDEST PUSH32 0x4E487B7100000000000000000000000000000000000000000000000000000000 PUSH1 0x0 MSTORE PUSH1 0x11 PUSH1 0x4 MSTORE PUSH1 0x24 PUSH1 0x0 REVERT JUMPDEST PUSH1 0x0 DUP2 PUSH1 0x1 SHR SWAP1 POP SWAP2 SWAP1 POP JUMP JUMPDEST PUSH1 0x0 DUP1 DUP3 SWAP2 POP DUP4 SWAP1 POP JUMPDEST PUSH1 0x1 DUP6 GT ISZERO PUSH3 0x79F JUMPI DUP1 DUP7 DIV DUP2 GT ISZERO PUSH3 0x777 JUMPI PUSH3 0x776 PUSH3 0x711 JUMP JUMPDEST JUMPDEST PUSH1 0x1 DUP6 AND ISZERO PUSH3 0x787 JUMPI DUP1 DUP3 MUL SWAP2 POP JUMPDEST DUP1 DUP2 MUL SWAP1 POP PUSH3 0x797 DUP6 PUSH3 0x740 JUMP JUMPDEST SWAP5 POP PUSH3 0x757 JUMP JUMPDEST SWAP5 POP SWAP5 SWAP3 POP POP POP JUMP JUMPDEST PUSH1 0x0 DUP3 PUSH3 0x7BA JUMPI PUSH1 0x1 SWAP1 POP PUSH3 0x88D JUMP JUMPDEST DUP2 PUSH3 0x7CA JUMPI PUSH1 0x0 SWAP1 POP PUSH3 0x88D JUMP JUMPDEST DUP2 PUSH1 0x1 DUP2 EQ PUSH3 0x7E3 JUMPI PUSH1 0x2 DUP2 EQ PUSH3 0x7EE JUMPI PUSH3 0x824 JUMP JUMPDEST PUSH1 0x1 SWAP2 POP POP PUSH3 0x88D JUMP JUMPDEST PUSH1 0xFF DUP5 GT ISZERO PUSH3 0x803 JUMPI PUSH3 0x802 PUSH3 0x711 JUMP JUMPDEST JUMPDEST DUP4 PUSH1 0x2 EXP SWAP2 POP DUP5 DUP3 GT ISZERO PUSH3 0x81D JUMPI PUSH3 0x81C PUSH3 0x711 JUMP JUMPDEST JUMPDEST POP PUSH3 0x88D JUMP JUMPDEST POP PUSH1 0x20 DUP4 LT PUSH2 0x133 DUP4 LT AND PUSH1 0x4E DUP5 LT PUSH1 0xB DUP5 LT AND OR ISZERO PUSH3 0x85E JUMPI DUP3 DUP3 EXP SWAP1 POP DUP4 DUP2 GT ISZERO PUSH3 0x858 JUMPI PUSH3 0x857 PUSH3 0x711 JUMP JUMPDEST JUMPDEST PUSH3 0x88D JUMP JUMPDEST PUSH3 0x86D DUP5 DUP5 DUP5 PUSH1 0x1 PUSH3 0x74D JUMP JUMPDEST SWAP3 POP SWAP1 POP DUP2 DUP5 DIV DUP2 GT ISZERO PUSH3 0x887 JUMPI PUSH3 0x886 PUSH3 0x711 JUMP JUMPDEST JUMPDEST DUP2 DUP2 MUL SWAP1 POP JUMPDEST SWAP4 SWAP3 POP POP POP JUMP JUMPDEST PUSH1 0x0 PUSH1 0xFF DUP3 AND SWAP1 POP SWAP2 SWAP1 POP JUMP JUMPDEST PUSH1 0x0 PUSH3 0x8AE DUP3 PUSH3 0x4D6 JUMP JUMPDEST SWAP2 POP PUSH3 0x8BB DUP4 PUSH3 0x894 JUMP JUMPDEST SWAP3 POP PUSH3 0x8EA PUSH32 0xFFFFFFFFFFFFFFFFFFFFFFFFFFFFFFFFFFFFFFFFFFFFFFFFFFFFFFFFFFFFFFFF DUP5 DUP5 PUSH3 0x7A8 JUMP JUMPDEST SWAP1 POP SWAP3 SWAP2 POP POP JUMP JUMPDEST PUSH1 0x0 PUSH3 0x8FF DUP3 PUSH3 0x4D6 JUMP JUMPDEST SWAP2 POP PUSH3 0x90C DUP4 PUSH3 0x4D6 JUMP JUMPDEST SWAP3 POP DUP3 DUP3 MUL PUSH3 0x91C DUP2 PUSH3 0x4D6 JUMP JUMPDEST SWAP2 POP DUP3 DUP3 DIV DUP5 EQ DUP4 ISZERO OR PUSH3 0x936 JUMPI PUSH3 0x935 PUSH3 0x711 JUMP JUMPDEST JUMPDEST POP SWAP3 SWAP2 POP POP JUMP JUMPDEST PUSH1 0x0 PUSH20 0xFFFFFFFFFFFFFFFFFFFFFFFFFFFFFFFFFFFFFFFF DUP3 AND SWAP1 POP SWAP2 SWAP1 POP JUMP JUMPDEST PUSH1 0x0 PUSH3 0x96A DUP3 PUSH3 0x93D JUMP JUMPDEST SWAP1 POP SWAP2 SWAP1 POP JUMP JUMPDEST PUSH3 0x97C DUP2 PUSH3 0x95D JUMP JUMPDEST DUP3 MSTORE POP POP JUMP JUMPDEST PUSH1 0x0 PUSH1 0x20 DUP3 ADD SWAP1 POP PUSH3 0x999 PUSH1 0x0 DUP4 ADD DUP5 PUSH3 0x971 JUMP JUMPDEST SWAP3 SWAP2 POP POP JUMP JUMPDEST PUSH1 0x0 PUSH3 0x9AC DUP3 PUSH3 0x4D6 JUMP JUMPDEST SWAP2 POP PUSH3 0x9B9 DUP4 PUSH3 0x4D6 JUMP JUMPDEST SWAP3 POP DUP3 DUP3 ADD SWAP1 POP DUP1 DUP3 GT ISZERO PUSH3 0x9D4 JUMPI PUSH3 0x9D3 PUSH3 0x711 JUMP JUMPDEST JUMPDEST SWAP3 SWAP2 POP POP JUMP JUMPDEST PUSH3 0x9E5 DUP2 PUSH3 0x4D6 JUMP JUMPDEST DUP3 MSTORE POP POP JUMP JUMPDEST PUSH1 0x0 PUSH1 0x60 DUP3 ADD SWAP1 POP PUSH3 0xA02 PUSH1 0x0 DUP4 ADD DUP7 PUSH3 0x971 JUMP JUMPDEST PUSH3 0xA11 PUSH1 0x20 DUP4 ADD DUP6 PUSH3 0x9DA JUMP JUMPDEST PUSH3 0xA20 PUSH1 0x40 DUP4 ADD DUP5 PUSH3 0x9DA JUMP JUMPDEST SWAP5 SWAP4 POP POP POP POP JUMP JUMPDEST PUSH1 0x0 PUSH1 0x20 DUP3 ADD SWAP1 POP PUSH3 0xA3F PUSH1 0x0 DUP4 ADD DUP5 PUSH3 0x9DA JUMP JUMPDEST SWAP3 SWAP2 POP POP JUMP JUMPDEST PUSH2 0xF0C DUP1 PUSH3 0xA55 PUSH1 0x0 CODECOPY PUSH1 0x0 RETURN INVALID PUSH1 0x80 PUSH1 0x40 MSTORE CALLVALUE DUP1 ISZERO PUSH2 0x10 JUMPI PUSH1 0x0 DUP1 REVERT JUMPDEST POP PUSH1 0x4 CALLDATASIZE LT PUSH2 0x9E JUMPI PUSH1 0x0 CALLDATALOAD PUSH1 0xE0 SHR DUP1 PUSH4 0x40C10F19 GT PUSH2 0x66 JUMPI DUP1 PUSH4 0x40C10F19 EQ PUSH2 0x15D JUMPI DUP1 PUSH4 0x70A08231 EQ PUSH2 0x179 JUMPI DUP1 PUSH4 0x95D89B41 EQ PUSH2 0x1A9 JUMPI DUP1 PUSH4 0xA9059CBB EQ PUSH2 0x1C7 JUMPI DUP1 PUSH4 0xDD62ED3E EQ PUSH2 0x1F7 JUMPI PUSH2 0x9E JUMP JUMPDEST DUP1 PUSH4 0x6FDDE03 EQ PUSH2 0xA3 JUMPI DUP1 PUSH4 0x95EA7B3 EQ PUSH2 0xC1 JUMPI DUP1 PUSH4 0x18160DDD EQ PUSH2 0xF1 JUMPI DUP1 PUSH4 0x23B872DD EQ PUSH2 0x10F JUMPI DUP1 PUSH4 0x313CE567 EQ PUSH2 0x13F JUMPI JUMPDEST PUSH1 0x0 DUP1 REVERT JUMPDEST PUSH2 0xAB PUSH2 0x227 JUMP JUMPDEST PUSH1 0x40 MLOAD PUSH2 0xB8 SWAP2 SWAP1 PUSH2 0xB60 JUMP JUMPDEST PUSH1 0x40 MLOAD DUP1 SWAP2 SUB SWAP1 RETURN JUMPDEST PUSH2 0xDB PUSH1 0x4 DUP1 CALLDATASIZE SUB DUP2 ADD SWAP1 PUSH2 0xD6 SWAP2 SWAP1 PUSH2 0xC1B JUMP JUMPDEST PUSH2 0x2B9 JUMP JUMPDEST PUSH1 0x40 MLOAD PUSH2 0xE8 SWAP2 SWAP1 PUSH2 0xC76 JUMP JUMPDEST PUSH1 0x40 MLOAD DUP1 SWAP2 SUB SWAP1 RETURN JUMPDEST PUSH2 0xF9 PUSH2 0x2DC JUMP JUMPDEST PUSH1 0x40 MLOAD PUSH2 0x106 SWAP2 SWAP1 PUSH2 0xCA0 JUMP JUMPDEST PUSH1 0x40 MLOAD DUP1 SWAP2 SUB SWAP1 RETURN JUMPDEST PUSH2 0x129 PUSH1 0x4 DUP1 CALLDATASIZE SUB DUP2 ADD SWAP1 PUSH2 0x124 SWAP2 SWAP1 PUSH2 0xCBB JUMP JUMPDEST PUSH2 0x2E6 JUMP JUMPDEST PUSH1 0x40 MLOAD PUSH2 0x136 SWAP2 SWAP1 PUSH2 0xC76 JUMP JUMPDEST PUSH1 0x40 MLOAD DUP1 SWAP2 SUB SWAP1 RETURN JUMPDEST PUSH2 0x147 PUSH2 0x315 JUMP JUMPDEST PUSH1 0x40 MLOAD PUSH2 0x154 SWAP2 SWAP1 PUSH2 0xD2A JUMP JUMPDEST PUSH1 0x40 MLOAD DUP1 SWAP2 SUB SWAP1 RETURN JUMPDEST PUSH2 0x177 PUSH1 0x4 DUP1 CALLDATASIZE SUB DUP2 ADD SWAP1 PUSH2 0x172 SWAP2 SWAP1 PUSH2 0xC1B JUMP JUMPDEST PUSH2 0x31E JUMP JUMPDEST STOP JUMPDEST PUSH2 0x193 PUSH1 0x4 DUP1 CALLDATASIZE SUB DUP2 ADD SWAP1 PUSH2 0x18E SWAP2 SWAP1 PUSH2 0xD45 JUMP JUMPDEST PUSH2 0x32C JUMP JUMPDEST PUSH1 0x40 MLOAD PUSH2 0x1A0 SWAP2 SWAP1 PUSH2 0xCA0 JUMP JUMPDEST PUSH1 0x40 MLOAD DUP1 SWAP2 SUB SWAP1 RETURN JUMPDEST PUSH2 0x1B1 PUSH2 0x374 JUMP JUMPDEST PUSH1 0x40 MLOAD PUSH2 0x1BE SWAP2 SWAP1 PUSH2 0xB60 JUMP JUMPDEST PUSH1 0x40 MLOAD DUP1 SWAP2 SUB SWAP1 RETURN JUMPDEST PUSH2 0x1E1 PUSH1 0x4 DUP1 CALLDATASIZE SUB DUP2 ADD SWAP1 PUSH2 0x1DC SWAP2 SWAP1 PUSH2 0xC1B JUMP JUMPDEST PUSH2 0x406 JUMP JUMPDEST PUSH1 0x40 MLOAD PUSH2 0x1EE SWAP2 SWAP1 PUSH2 0xC76 JUMP JUMPDEST PUSH1 0x40 MLOAD DUP1 SWAP2 SUB SWAP1 RETURN JUMPDEST PUSH2 0x211 PUSH1 0x4 DUP1 CALLDATASIZE SUB DUP2 ADD SWAP1 PUSH2 0x20C SWAP2 SWAP1 PUSH2 0xD72 JUMP JUMPDEST PUSH2 0x429 JUMP JUMPDEST PUSH1 0x40 MLOAD PUSH2 0x21E SWAP2 SWAP1 PUSH2 0xCA0 JUMP JUMPDEST PUSH1 0x40 MLOAD DUP1 SWAP2 SUB SWAP1 RETURN JUMPDEST PUSH1 0x60 PUSH1 0x3 DUP1 SLOAD PUSH2 0x236 SWAP1 PUSH2 0xDE1 JUMP JUMPDEST DUP1 PUSH1 0x1F ADD PUSH1 0x20 DUP1 SWAP2 DIV MUL PUSH1 0x20 ADD PUSH1 0x40 MLOAD SWAP1 DUP2 ADD PUSH1 0x40 MSTORE DUP1 SWAP3 SWAP2 SWAP1 DUP2 DUP2 MSTORE PUSH1 0x20 ADD DUP3 DUP1 SLOAD PUSH2 0x262 SWAP1 PUSH2 0xDE1 JUMP JUMPDEST DUP1 ISZERO PUSH2 0x2AF JUMPI DUP1 PUSH1 0x1F LT PUSH2 0x284 JUMPI PUSH2 0x100 DUP1 DUP4 SLOAD DIV MUL DUP4 MSTORE SWAP2 PUSH1 0x20 ADD SWAP2 PUSH2 0x2AF JUMP JUMPDEST DUP3 ADD SWAP2 SWAP1 PUSH1 0x0 MSTORE PUSH1 0x20 PUSH1 0x0 KECCAK256 SWAP1 JUMPDEST DUP2 SLOAD DUP2 MSTORE SWAP1 PUSH1 0x1 ADD SWAP1 PUSH1 0x20 ADD DUP1 DUP4 GT PUSH2 0x292 JUMPI DUP3 SWAP1 SUB PUSH1 0x1F AND DUP3 ADD SWAP2 JUMPDEST POP POP POP POP POP SWAP1 POP SWAP1 JUMP JUMPDEST PUSH1 0x0 DUP1 PUSH2 0x2C4 PUSH2 0x4B0 JUMP JUMPDEST SWAP1 POP PUSH2 0x2D1 DUP2 DUP6 DUP6 PUSH2 0x4B8 JUMP JUMPDEST PUSH1 0x1 SWAP2 POP POP SWAP3 SWAP2 POP POP JUMP JUMPDEST PUSH1 0x0 PUSH1 0x2 SLOAD SWAP1 POP SWAP1 JUMP JUMPDEST PUSH1 0x0 DUP1 PUSH2 0x2F1 PUSH2 0x4B0 JUMP JUMPDEST SWAP1 POP PUSH2 0x2FE DUP6 DUP3 DUP6 PUSH2 0x4CA JUMP JUMPDEST PUSH2 0x309 DUP6 DUP6 DUP6 PUSH2 0x55E JUMP JUMPDEST PUSH1 0x1 SWAP2 POP POP SWAP4 SWAP3 POP POP POP JUMP JUMPDEST PUSH1 0x0 PUSH1 0x12 SWAP1 POP SWAP1 JUMP JUMPDEST PUSH2 0x328 DUP3 DUP3 PUSH2 0x652 JUMP JUMPDEST POP POP JUMP JUMPDEST PUSH1 0x0 DUP1 PUSH1 0x0 DUP4 PUSH20 0xFFFFFFFFFFFFFFFFFFFFFFFFFFFFFFFFFFFFFFFF AND PUSH20 0xFFFFFFFFFFFFFFFFFFFFFFFFFFFFFFFFFFFFFFFF AND DUP2 MSTORE PUSH1 0x20 ADD SWAP1 DUP2 MSTORE PUSH1 0x20 ADD PUSH1 0x0 KECCAK256 SLOAD SWAP1 POP SWAP2 SWAP1 POP JUMP JUMPDEST PUSH1 0x60 PUSH1 0x4 DUP1 SLOAD PUSH2 0x383 SWAP1 PUSH2 0xDE1 JUMP JUMPDEST DUP1 PUSH1 0x1F ADD PUSH1 0x20 DUP1 SWAP2 DIV MUL PUSH1 0x20 ADD PUSH1 0x40 MLOAD SWAP1 DUP2 ADD PUSH1 0x40 MSTORE DUP1 SWAP3 SWAP2 SWAP1 DUP2 DUP2 MSTORE PUSH1 0x20 ADD DUP3 DUP1 SLOAD PUSH2 0x3AF SWAP1 PUSH2 0xDE1 JUMP JUMPDEST DUP1 ISZERO PUSH2 0x3FC JUMPI DUP1 PUSH1 0x1F LT PUSH2 0x3D1 JUMPI PUSH2 0x100 DUP1 DUP4 SLOAD DIV MUL DUP4 MSTORE SWAP2 PUSH1 0x20 ADD SWAP2 PUSH2 0x3FC JUMP JUMPDEST DUP3 ADD SWAP2 SWAP1 PUSH1 0x0 MSTORE PUSH1 0x20 PUSH1 0x0 KECCAK256 SWAP1 JUMPDEST DUP2 SLOAD DUP2 MSTORE SWAP1 PUSH1 0x1 ADD SWAP1 PUSH1 0x20 ADD DUP1 DUP4 GT PUSH2 0x3DF JUMPI DUP3 SWAP1 SUB PUSH1 0x1F AND DUP3 ADD SWAP2 JUMPDEST POP POP POP POP POP SWAP1 POP SWAP1 JUMP JUMPDEST PUSH1 0x0 DUP1 PUSH2 0x411 PUSH2 0x4B0 JUMP JUMPDEST SWAP1 POP PUSH2 0x41E DUP2 DUP6 DUP6 PUSH2 0x55E JUMP JUMPDEST PUSH1 0x1 SWAP2 POP POP SWAP3 SWAP2 POP POP JUMP JUMPDEST PUSH1 0x0 PUSH1 0x1 PUSH1 0x0 DUP5 PUSH20 0xFFFFFFFFFFFFFFFFFFFFFFFFFFFFFFFFFFFFFFFF AND PUSH20 0xFFFFFFFFFFFFFFFFFFFFFFFFFFFFFFFFFFFFFFFF AND DUP2 MSTORE PUSH1 0x20 ADD SWAP1 DUP2 MSTORE PUSH1 0x20 ADD PUSH1 0x0 KECCAK256 PUSH1 0x0 DUP4 PUSH20 0xFFFFFFFFFFFFFFFFFFFFFFFFFFFFFFFFFFFFFFFF AND PUSH20 0xFFFFFFFFFFFFFFFFFFFFFFFFFFFFFFFFFFFFFFFF AND DUP2 MSTORE PUSH1 0x20 ADD SWAP1 DUP2 MSTORE PUSH1 0x20 ADD PUSH1 0x0 KECCAK256 SLOAD SWAP1 POP SWAP3 SWAP2 POP POP JUMP JUMPDEST PUSH1 0x0 CALLER SWAP1 POP SWAP1 JUMP JUMPDEST PUSH2 0x4C5 DUP4 DUP4 DUP4 PUSH1 0x1 PUSH2 0x6D4 JUMP JUMPDEST POP POP POP JUMP JUMPDEST PUSH1 0x0 PUSH2 0x4D6 DUP5 DUP5 PUSH2 0x429 JUMP JUMPDEST SWAP1 POP PUSH32 0xFFFFFFFFFFFFFFFFFFFFFFFFFFFFFFFFFFFFFFFFFFFFFFFFFFFFFFFFFFFFFFFF DUP2 EQ PUSH2 0x558 JUMPI DUP2 DUP2 LT ISZERO PUSH2 0x548 JUMPI DUP3 DUP2 DUP4 PUSH1 0x40 MLOAD PUSH32 0xFB8F41B200000000000000000000000000000000000000000000000000000000 DUP2 MSTORE PUSH1 0x4 ADD PUSH2 0x53F SWAP4 SWAP3 SWAP2 SWAP1 PUSH2 0xE21 JUMP JUMPDEST PUSH1 0x40 MLOAD DUP1 SWAP2 SUB SWAP1 REVERT JUMPDEST PUSH2 0x557 DUP5 DUP5 DUP5 DUP5 SUB PUSH1 0x0 PUSH2 0x6D4 JUMP JUMPDEST JUMPDEST POP POP POP POP JUMP JUMPDEST PUSH1 0x0 PUSH20 0xFFFFFFFFFFFFFFFFFFFFFFFFFFFFFFFFFFFFFFFF AND DUP4 PUSH20 0xFFFFFFFFFFFFFFFFFFFFFFFFFFFFFFFFFFFFFFFF AND SUB PUSH2 0x5D0 JUMPI PUSH1 0x0 PUSH1 0x40 MLOAD PUSH32 0x96C6FD1E00000000000000000000000000000000000000000000000000000000 DUP2 MSTORE PUSH1 0x4 ADD PUSH2 0x5C7 SWAP2 SWAP1 PUSH2 0xE58 JUMP JUMPDEST PUSH1 0x40 MLOAD DUP1 SWAP2 SUB SWAP1 REVERT JUMPDEST PUSH1 0x0 PUSH20 0xFFFFFFFFFFFFFFFFFFFFFFFFFFFFFFFFFFFFFFFF AND DUP3 PUSH20 0xFFFFFFFFFFFFFFFFFFFFFFFFFFFFFFFFFFFFFFFF AND SUB PUSH2 0x642 JUMPI PUSH1 0x0 PUSH1 0x40 MLOAD PUSH32 0xEC442F0500000000000000000000000000000000000000000000000000000000 DUP2 MSTORE PUSH1 0x4 ADD PUSH2 0x639 SWAP2 SWAP1 PUSH2 0xE58 JUMP JUMPDEST PUSH1 0x40 MLOAD DUP1 SWAP2 SUB SWAP1 REVERT JUMPDEST PUSH2 0x64D DUP4 DUP4 DUP4 PUSH2 0x8AB JUMP JUMPDEST POP POP POP JUMP JUMPDEST PUSH1 0x0 PUSH20 0xFFFFFFFFFFFFFFFFFFFFFFFFFFFFFFFFFFFFFFFF AND DUP3 PUSH20 0xFFFFFFFFFFFFFFFFFFFFFFFFFFFFFFFFFFFFFFFF AND SUB PUSH2 0x6C4 JUMPI PUSH1 0x0 PUSH1 0x40 MLOAD PUSH32 0xEC442F0500000000000000000000000000000000000000000000000000000000 DUP2 MSTORE PUSH1 0x4 ADD PUSH2 0x6BB SWAP2 SWAP1 PUSH2 0xE58 JUMP JUMPDEST PUSH1 0x40 MLOAD DUP1 SWAP2 SUB SWAP1 REVERT JUMPDEST PUSH2 0x6D0 PUSH1 0x0 DUP4 DUP4 PUSH2 0x8AB JUMP JUMPDEST POP POP JUMP JUMPDEST PUSH1 0x0 PUSH20 0xFFFFFFFFFFFFFFFFFFFFFFFFFFFFFFFFFFFFFFFF AND DUP5 PUSH20 0xFFFFFFFFFFFFFFFFFFFFFFFFFFFFFFFFFFFFFFFF AND SUB PUSH2 0x746 JUMPI PUSH1 0x0 PUSH1 0x40 MLOAD PUSH32 0xE602DF0500000000000000000000000000000000000000000000000000000000 DUP2 MSTORE PUSH1 0x4 ADD PUSH2 0x73D SWAP2 SWAP1 PUSH2 0xE58 JUMP JUMPDEST PUSH1 0x40 MLOAD DUP1 SWAP2 SUB SWAP1 REVERT JUMPDEST PUSH1 0x0 PUSH20 0xFFFFFFFFFFFFFFFFFFFFFFFFFFFFFFFFFFFFFFFF AND DUP4 PUSH20 0xFFFFFFFFFFFFFFFFFFFFFFFFFFFFFFFFFFFFFFFF AND SUB PUSH2 0x7B8 JUMPI PUSH1 0x0 PUSH1 0x40 MLOAD PUSH32 0x94280D6200000000000000000000000000000000000000000000000000000000 DUP2 MSTORE PUSH1 0x4 ADD PUSH2 0x7AF SWAP2 SWAP1 PUSH2 0xE58 JUMP JUMPDEST PUSH1 0x40 MLOAD DUP1 SWAP2 SUB SWAP1 REVERT JUMPDEST DUP2 PUSH1 0x1 PUSH1 0x0 DUP7 PUSH20 0xFFFFFFFFFFFFFFFFFFFFFFFFFFFFFFFFFFFFFFFF AND PUSH20 0xFFFFFFFFFFFFFFFFFFFFFFFFFFFFFFFFFFFFFFFF AND DUP2 MSTORE PUSH1 0x20 ADD SWAP1 DUP2 MSTORE PUSH1 0x20 ADD PUSH1 0x0 KECCAK256 PUSH1 0x0 DUP6 PUSH20 0xFFFFFFFFFFFFFFFFFFFFFFFFFFFFFFFFFFFFFFFF AND PUSH20 0xFFFFFFFFFFFFFFFFFFFFFFFFFFFFFFFFFFFFFFFF AND DUP2 MSTORE PUSH1 0x20 ADD SWAP1 DUP2 MSTORE PUSH1 0x20 ADD PUSH1 0x0 KECCAK256 DUP2 SWAP1 SSTORE POP DUP1 ISZERO PUSH2 0x8A5 JUMPI DUP3 PUSH20 0xFFFFFFFFFFFFFFFFFFFFFFFFFFFFFFFFFFFFFFFF AND DUP5 PUSH20 0xFFFFFFFFFFFFFFFFFFFFFFFFFFFFFFFFFFFFFFFF AND PUSH32 0x8C5BE1E5EBEC7D5BD14F71427D1E84F3DD0314C0F7B2291E5B200AC8C7C3B925 DUP5 PUSH1 0x40 MLOAD PUSH2 0x89C SWAP2 SWAP1 PUSH2 0xCA0 JUMP JUMPDEST PUSH1 0x40 MLOAD DUP1 SWAP2 SUB SWAP1 LOG3 JUMPDEST POP POP POP POP JUMP JUMPDEST PUSH1 0x0 PUSH20 0xFFFFFFFFFFFFFFFFFFFFFFFFFFFFFFFFFFFFFFFF AND DUP4 PUSH20 0xFFFFFFFFFFFFFFFFFFFFFFFFFFFFFFFFFFFFFFFF AND SUB PUSH2 0x8FD JUMPI DUP1 PUSH1 0x2 PUSH1 0x0 DUP3 DUP3 SLOAD PUSH2 0x8F1 SWAP2 SWAP1 PUSH2 0xEA2 JUMP JUMPDEST SWAP3 POP POP DUP2 SWAP1 SSTORE POP PUSH2 0x9D0 JUMP JUMPDEST PUSH1 0x0 DUP1 PUSH1 0x0 DUP6 PUSH20 0xFFFFFFFFFFFFFFFFFFFFFFFFFFFFFFFFFFFFFFFF AND PUSH20 0xFFFFFFFFFFFFFFFFFFFFFFFFFFFFFFFFFFFFFFFF AND DUP2 MSTORE PUSH1 0x20 ADD SWAP1 DUP2 MSTORE PUSH1 0x20 ADD PUSH1 0x0 KECCAK256 SLOAD SWAP1 POP DUP2 DUP2 LT ISZERO PUSH2 0x989 JUMPI DUP4 DUP2 DUP4 PUSH1 0x40 MLOAD PUSH32 0xE450D38C00000000000000000000000000000000000000000000000000000000 DUP2 MSTORE PUSH1 0x4 ADD PUSH2 0x980 SWAP4 SWAP3 SWAP2 SWAP1 PUSH2 0xE21 JUMP JUMPDEST PUSH1 0x40 MLOAD DUP1 SWAP2 SUB SWAP1 REVERT JUMPDEST DUP2 DUP2 SUB PUSH1 0x0 DUP1 DUP7 PUSH20 0xFFFFFFFFFFFFFFFFFFFFFFFFFFFFFFFFFFFFFFFF AND PUSH20 0xFFFFFFFFFFFFFFFFFFFFFFFFFFFFFFFFFFFFFFFF AND DUP2 MSTORE PUSH1 0x20 ADD SWAP1 DUP2 MSTORE PUSH1 0x20 ADD PUSH1 0x0 KECCAK256 DUP2 SWAP1 SSTORE POP POP JUMPDEST PUSH1 0x0 PUSH20 0xFFFFFFFFFFFFFFFFFFFFFFFFFFFFFFFFFFFFFFFF AND DUP3 PUSH20 0xFFFFFFFFFFFFFFFFFFFFFFFFFFFFFFFFFFFFFFFF AND SUB PUSH2 0xA19 JUMPI DUP1 PUSH1 0x2 PUSH1 0x0 DUP3 DUP3 SLOAD SUB SWAP3 POP POP DUP2 SWAP1 SSTORE POP PUSH2 0xA66 JUMP JUMPDEST DUP1 PUSH1 0x0 DUP1 DUP5 PUSH20 0xFFFFFFFFFFFFFFFFFFFFFFFFFFFFFFFFFFFFFFFF AND PUSH20 0xFFFFFFFFFFFFFFFFFFFFFFFFFFFFFFFFFFFFFFFF AND DUP2 MSTORE PUSH1 0x20 ADD SWAP1 DUP2 MSTORE PUSH1 0x20 ADD PUSH1 0x0 KECCAK256 PUSH1 0x0 DUP3 DUP3 SLOAD ADD SWAP3 POP POP DUP2 SWAP1 SSTORE POP JUMPDEST DUP2 PUSH20 0xFFFFFFFFFFFFFFFFFFFFFFFFFFFFFFFFFFFFFFFF AND DUP4 PUSH20 0xFFFFFFFFFFFFFFFFFFFFFFFFFFFFFFFFFFFFFFFF AND PUSH32 0xDDF252AD1BE2C89B69C2B068FC378DAA952BA7F163C4A11628F55A4DF523B3EF DUP4 PUSH1 0x40 MLOAD PUSH2 0xAC3 SWAP2 SWAP1 PUSH2 0xCA0 JUMP JUMPDEST PUSH1 0x40 MLOAD DUP1 SWAP2 SUB SWAP1 LOG3 POP POP POP JUMP JUMPDEST PUSH1 0x0 DUP2 MLOAD SWAP1 POP SWAP2 SWAP1 POP JUMP JUMPDEST PUSH1 0x0 DUP3 DUP3 MSTORE PUSH1 0x20 DUP3 ADD SWAP1 POP SWAP3 SWAP2 POP POP JUMP JUMPDEST PUSH1 0x0 JUMPDEST DUP4 DUP2 LT ISZERO PUSH2 0xB0A JUMPI DUP1 DUP3 ADD MLOAD DUP2 DUP5 ADD MSTORE PUSH1 0x20 DUP2 ADD SWAP1 POP PUSH2 0xAEF JUMP JUMPDEST PUSH1 0x0 DUP5 DUP5 ADD MSTORE POP POP POP POP JUMP JUMPDEST PUSH1 0x0 PUSH1 0x1F NOT PUSH1 0x1F DUP4 ADD AND SWAP1 POP SWAP2 SWAP1 POP JUMP JUMPDEST PUSH1 0x0 PUSH2 0xB32 DUP3 PUSH2 0xAD0 JUMP JUMPDEST PUSH2 0xB3C DUP2 DUP6 PUSH2 0xADB JUMP JUMPDEST SWAP4 POP PUSH2 0xB4C DUP2 DUP6 PUSH1 0x20 DUP7 ADD PUSH2 0xAEC JUMP JUMPDEST PUSH2 0xB55 DUP2 PUSH2 0xB16 JUMP JUMPDEST DUP5 ADD SWAP2 POP POP SWAP3 SWAP2 POP POP JUMP JUMPDEST PUSH1 0x0 PUSH1 0x20 DUP3 ADD SWAP1 POP DUP2 DUP2 SUB PUSH1 0x0 DUP4 ADD MSTORE PUSH2 0xB7A DUP2 DUP5 PUSH2 0xB27 JUMP JUMPDEST SWAP1 POP SWAP3 SWAP2 POP POP JUMP JUMPDEST PUSH1 0x0 DUP1 REVERT JUMPDEST PUSH1 0x0 PUSH20 0xFFFFFFFFFFFFFFFFFFFFFFFFFFFFFFFFFFFFFFFF DUP3 AND SWAP1 POP SWAP2 SWAP1 POP JUMP JUMPDEST PUSH1 0x0 PUSH2 0xBB2 DUP3 PUSH2 0xB87 JUMP JUMPDEST SWAP1 POP SWAP2 SWAP1 POP JUMP JUMPDEST PUSH2 0xBC2 DUP2 PUSH2 0xBA7 JUMP JUMPDEST DUP2 EQ PUSH2 0xBCD JUMPI PUSH1 0x0 DUP1 REVERT JUMPDEST POP JUMP JUMPDEST PUSH1 0x0 DUP2 CALLDATALOAD SWAP1 POP PUSH2 0xBDF DUP2 PUSH2 0xBB9 JUMP JUMPDEST SWAP3 SWAP2 POP POP JUMP JUMPDEST PUSH1 0x0 DUP2 SWAP1 POP SWAP2 SWAP1 POP JUMP JUMPDEST PUSH2 0xBF8 DUP2 PUSH2 0xBE5 JUMP JUMPDEST DUP2 EQ PUSH2 0xC03 JUMPI PUSH1 0x0 DUP1 REVERT JUMPDEST POP JUMP JUMPDEST PUSH1 0x0 DUP2 CALLDATALOAD SWAP1 POP PUSH2 0xC15 DUP2 PUSH2 0xBEF JUMP JUMPDEST SWAP3 SWAP2 POP POP JUMP JUMPDEST PUSH1 0x0 DUP1 PUSH1 0x40 DUP4 DUP6 SUB SLT ISZERO PUSH2 0xC32 JUMPI PUSH2 0xC31 PUSH2 0xB82 JUMP JUMPDEST JUMPDEST PUSH1 0x0 PUSH2 0xC40 DUP6 DUP3 DUP7 ADD PUSH2 0xBD0 JUMP JUMPDEST SWAP3 POP POP PUSH1 0x20 PUSH2 0xC51 DUP6 DUP3 DUP7 ADD PUSH2 0xC06 JUMP JUMPDEST SWAP2 POP POP SWAP3 POP SWAP3 SWAP1 POP JUMP JUMPDEST PUSH1 0x0 DUP2 ISZERO ISZERO SWAP1 POP SWAP2 SWAP1 POP JUMP JUMPDEST PUSH2 0xC70 DUP2 PUSH2 0xC5B JUMP JUMPDEST DUP3 MSTORE POP POP JUMP JUMPDEST PUSH1 0x0 PUSH1 0x20 DUP3 ADD SWAP1 POP PUSH2 0xC8B PUSH1 0x0 DUP4 ADD DUP5 PUSH2 0xC67 JUMP JUMPDEST SWAP3 SWAP2 POP POP JUMP JUMPDEST PUSH2 0xC9A DUP2 PUSH2 0xBE5 JUMP JUMPDEST DUP3 MSTORE POP POP JUMP JUMPDEST PUSH1 0x0 PUSH1 0x20 DUP3 ADD SWAP1 POP PUSH2 0xCB5 PUSH1 0x0 DUP4 ADD DUP5 PUSH2 0xC91 JUMP JUMPDEST SWAP3 SWAP2 POP POP JUMP JUMPDEST PUSH1 0x0 DUP1 PUSH1 0x0 PUSH1 0x60 DUP5 DUP7 SUB SLT ISZERO PUSH2 0xCD4 JUMPI PUSH2 0xCD3 PUSH2 0xB82 JUMP JUMPDEST JUMPDEST PUSH1 0x0 PUSH2 0xCE2 DUP7 DUP3 DUP8 ADD PUSH2 0xBD0 JUMP JUMPDEST SWAP4 POP POP PUSH1 0x20 PUSH2 0xCF3 DUP7 DUP3 DUP8 ADD PUSH2 0xBD0 JUMP JUMPDEST SWAP3 POP POP PUSH1 0x40 PUSH2 0xD04 DUP7 DUP3 DUP8 ADD PUSH2 0xC06 JUMP JUMPDEST SWAP2 POP POP SWAP3 POP SWAP3 POP SWAP3 JUMP JUMPDEST PUSH1 0x0 PUSH1 0xFF DUP3 AND SWAP1 POP SWAP2 SWAP1 POP JUMP JUMPDEST PUSH2 0xD24 DUP2 PUSH2 0xD0E JUMP JUMPDEST DUP3 MSTORE POP POP JUMP JUMPDEST PUSH1 0x0 PUSH1 0x20 DUP3 ADD SWAP1 POP PUSH2 0xD3F PUSH1 0x0 DUP4 ADD DUP5 PUSH2 0xD1B JUMP JUMPDEST SWAP3 SWAP2 POP POP JUMP JUMPDEST PUSH1 0x0 PUSH1 0x20 DUP3 DUP5 SUB SLT ISZERO PUSH2 0xD5B JUMPI PUSH2 0xD5A PUSH2 0xB82 JUMP JUMPDEST JUMPDEST PUSH1 0x0 PUSH2 0xD69 DUP5 DUP3 DUP6 ADD PUSH2 0xBD0 JUMP JUMPDEST SWAP2 POP POP SWAP3 SWAP2 POP POP JUMP JUMPDEST PUSH1 0x0 DUP1 PUSH1 0x40 DUP4 DUP6 SUB SLT ISZERO PUSH2 0xD89 JUMPI PUSH2 0xD88 PUSH2 0xB82 JUMP JUMPDEST JUMPDEST PUSH1 0x0 PUSH2 0xD97 DUP6 DUP3 DUP7 ADD PUSH2 0xBD0 JUMP JUMPDEST SWAP3 POP POP PUSH1 0x20 PUSH2 0xDA8 DUP6 DUP3 DUP7 ADD PUSH2 0xBD0 JUMP JUMPDEST SWAP2 POP POP SWAP3 POP SWAP3 SWAP1 POP JUMP JUMPDEST PUSH32 0x4E487B7100000000000000000000000000000000000000000000000000000000 PUSH1 0x0 MSTORE PUSH1 0x22 PUSH1 0x4 MSTORE PUSH1 0x24 PUSH1 0x0 REVERT JUMPDEST PUSH1 0x0 PUSH1 0x2 DUP3 DIV SWAP1 POP PUSH1 0x1 DUP3 AND DUP1 PUSH2 0xDF9 JUMPI PUSH1 0x7F DUP3 AND SWAP2 POP JUMPDEST PUSH1 0x20 DUP3 LT DUP2 SUB PUSH2 0xE0C JUMPI PUSH2 0xE0B PUSH2 0xDB2 JUMP JUMPDEST JUMPDEST POP SWAP2 SWAP1 POP JUMP JUMPDEST PUSH2 0xE1B DUP2 PUSH2 0xBA7 JUMP JUMPDEST DUP3 MSTORE POP POP JUMP JUMPDEST PUSH1 0x0 PUSH1 0x60 DUP3 ADD SWAP1 POP PUSH2 0xE36 PUSH1 0x0 DUP4 ADD DUP7 PUSH2 0xE12 JUMP JUMPDEST PUSH2 0xE43 PUSH1 0x20 DUP4 ADD DUP6 PUSH2 0xC91 JUMP JUMPDEST PUSH2 0xE50 PUSH1 0x40 DUP4 ADD DUP5 PUSH2 0xC91 JUMP JUMPDEST SWAP5 SWAP4 POP POP POP POP JUMP JUMPDEST PUSH1 0x0 PUSH1 0x20 DUP3 ADD SWAP1 POP PUSH2 0xE6D PUSH1 0x0 DUP4 ADD DUP5 PUSH2 0xE12 JUMP JUMPDEST SWAP3 SWAP2 POP POP JUMP JUMPDEST PUSH32 0x4E487B7100000000000000000000000000000000000000000000000000000000 PUSH1 0x0 MSTORE PUSH1 0x11 PUSH1 0x4 MSTORE PUSH1 0x24 PUSH1 0x0 REVERT JUMPDEST PUSH1 0x0 PUSH2 0xEAD DUP3 PUSH2 0xBE5 JUMP JUMPDEST SWAP2 POP PUSH2 0xEB8 DUP4 PUSH2 0xBE5 JUMP JUMPDEST SWAP3 POP DUP3 DUP3 ADD SWAP1 POP DUP1 DUP3 GT ISZERO PUSH2 0xED0 JUMPI PUSH2 0xECF PUSH2 0xE73 JUMP JUMPDEST JUMPDEST SWAP3 SWAP2 POP POP JUMP INVALID LOG2 PUSH5 0x6970667358 0x22 SLT KECCAK256 0xB3 PUSH11 0xD20540C05699FF66D0D74F 0xF6 0xD5 RETURNDATASIZE SSTORE TLOAD 0x21 REVERT 0xB4 PUSH18 0x36429365B23E2BC0795164736F6C63430008 XOR STOP CALLER "},"methodIdentifiers":{"allowance(address,address)":"dd62ed3e","approve(address,uint256)":"095ea7b3","balanceOf(address)":"70a08231","decimals()":"313ce567","mint(address,uint256)":"40c10f19","name()":"06fdde03","symbol()":"95d89b41","totalSupply()":"18160ddd","transfer(address,uint256)":"a9059cbb","transferFrom(address,address,uint256)":"23b872dd"}}}}}