{"contracts/NewTask.sol":{"NewTask":{"abi":[{"inputs":[{"internalType":"address","name":"_taskTokenAddress","type":"address"}],"stateMutability":"nonpayable","type":"constructor"},{"inputs":[{"internalType":"address","name":"emp","type":"address"}],"name":"CreateManager","outputs":[],"stateMutability":"nonpayable","type":"function"},{"inputs":[{"internalType":"address","name":"emp","type":"address"},{"internalType":"address","name":"Manager","type":"address"}],"name":"CreateTeam","outputs":[],"stateMutability":"nonpayable","type":"function"},{"inputs":[{"internalType":"uint256","name":"","type":"uint256"}],"name":"Tasks","outputs":[{"internalType":"uint256","name":"taskId","type":"uint256"},{"internalType":"string","name":"title","type":"string"},{"internalType":"string","name":"description","type":"string"},{"internalType":"address","name":"assignedEmployee","type":"address"},{"internalType":"uint256","name":"complexity","type":"uint256"},{"internalType":"uint256","name":"deadline","type":"uint256"},{"internalType":"uint256","name":"tokens","type":"uint256"},{"internalType":"bool","name":"completed","type":"bool"},{"internalType":"bool","name":"verified","type":"bool"},{"internalType":"bool","name":"approved","type":"bool"}],"stateMutability":"view","type":"function"},{"inputs":[],"name":"TotalTasks","outputs":[{"internalType":"uint256","name":"","type":"uint256"}],"stateMutability":"view","type":"function"},{"inputs":[{"internalType":"uint256","name":"_taskId","type":"uint256"}],"name":"approveTask","outputs":[],"stateMutability":"nonpayable","type":"function"},{"inputs":[{"internalType":"uint256","name":"_amount","type":"uint256"}],"name":"approveTransfer","outputs":[],"stateMutability":"nonpayable","type":"function"},{"inputs":[{"internalType":"uint256","name":"taskId","type":"uint256"},{"internalType":"address","name":"_assignedEmployee","type":"address"}],"name":"assignTask","outputs":[],"stateMutability":"nonpayable","type":"function"},{"inputs":[{"internalType":"uint256","name":"taskId","type":"uint256"}],"name":"completeTask","outputs":[],"stateMutability":"nonpayable","type":"function"},{"inputs":[{"internalType":"string","name":"_title","type":"string"},{"internalType":"string","name":"_description","type":"string"},{"internalType":"address","name":"_assignedEmployee","type":"address"},{"internalType":"uint256","name":"_complexity","type":"uint256"},{"internalType":"uint256","name":"_deadline","type":"uint256"},{"internalType":"uint256","name":"_tokens","type":"uint256"}],"name":"createTask","outputs":[{"internalType":"uint256","name":"","type":"uint256"}],"stateMutability":"nonpayable","type":"function"},{"inputs":[{"internalType":"uint256","name":"","type":"uint256"}],"name":"employees","outputs":[{"internalType":"string","name":"name","type":"string"},{"internalType":"address","name":"empWallet","type":"address"},{"internalType":"uint256","name":"empID","type":"uint256"}],"stateMutability":"view","type":"function"},{"inputs":[{"internalType":"uint256","name":"_taskId","type":"uint256"}],"name":"getTaskDetails","outputs":[{"components":[{"internalType":"uint256","name":"taskId","type":"uint256"},{"internalType":"string","name":"title","type":"string"},{"internalType":"string","name":"description","type":"string"},{"internalType":"address","name":"assignedEmployee","type":"address"},{"internalType":"uint256","name":"complexity","type":"uint256"},{"internalType":"uint256","name":"deadline","type":"uint256"},{"internalType":"uint256","name":"tokens","type":"uint256"},{"internalType":"bool","name":"completed","type":"bool"},{"internalType":"bool","name":"verified","type":"bool"},{"internalType":"bool","name":"approved","type":"bool"}],"internalType":"struct NewTask.Task","name":"","type":"tuple"}],"stateMutability":"view","type":"function"},{"inputs":[{"internalType":"address","name":"","type":"address"}],"name":"isEmployeeRegistered","outputs":[{"internalType":"bool","name":"","type":"bool"}],"stateMutability":"view","type":"function"},{"inputs":[{"internalType":"address","name":"mgr","type":"address"}],"name":"isManager","outputs":[{"internalType":"bool","name":"","type":"bool"}],"stateMutability":"view","type":"function"},{"inputs":[{"internalType":"uint256","name":"","type":"uint256"}],"name":"managers","outputs":[{"internalType":"address","name":"","type":"address"}],"stateMutability":"view","type":"function"},{"inputs":[{"components":[{"internalType":"string","name":"name","type":"string"},{"internalType":"address","name":"empWallet","type":"address"},{"internalType":"uint256","name":"empID","type":"uint256"}],"internalType":"struct NewTask.Employee","name":"emp","type":"tuple"}],"name":"registerEmployee","outputs":[],"stateMutability":"nonpayable","type":"function"},{"inputs":[{"internalType":"uint256","name":"","type":"uint256"}],"name":"reportees","outputs":[{"internalType":"address","name":"","type":"address"}],"stateMutability":"view","type":"function"},{"inputs":[],"name":"taskToken","outputs":[{"internalType":"contract Token","name":"","type":"address"}],"stateMutability":"view","type":"function"},{"inputs":[{"internalType":"address","name":"","type":"address"}],"name":"teamsMappings","outputs":[{"internalType":"address","name":"","type":"address"}],"stateMutability":"view","type":"function"},{"inputs":[{"internalType":"address","name":"_from","type":"address"},{"internalType":"address","name":"_to","type":"address"},{"internalType":"uint256","name":"_amount","type":"uint256"}],"name":"transferTokens","outputs":[],"stateMutability":"nonpayable","type":"function"},{"inputs":[{"internalType":"uint256","name":"taskId","type":"uint256"}],"name":"verifyTask","outputs":[],"stateMutability":"nonpayable","type":"function"},{"inputs":[{"internalType":"address","name":"manager","type":"address"}],"name":"viewTeam","outputs":[{"internalType":"address[]","name":"","type":"address[]"}],"stateMutability":"nonpayable","type":"function"}],"evm":{"bytecode":{"linkReferences":{},"object":"60806040523480156200001157600080fd5b506040516200285a3803806200285a8339818101604052810190620000379190620000e8565b806000806101000a81548173ffffffffffffffffffffffffffffffffffffffff021916908373ffffffffffffffffffffffffffffffffffffffff160217905550506200011a565b600080fd5b600073ffffffffffffffffffffffffffffffffffffffff82169050919050565b6000620000b08262000083565b9050919050565b620000c281620000a3565b8114620000ce57600080fd5b50565b600081519050620000e281620000b7565b92915050565b6000602082840312156200010157620001006200007e565b5b60006200011184828501620000d1565b91505092915050565b612730806200012a6000396000f3fe608060405234801561001057600080fd5b50600436106101375760003560e01c806367262d8f116100b8578063cacca4a01161007c578063cacca4a01461035e578063e1e295581461037a578063f3ae241514610396578063f4b2a46e146103c6578063f78aab4b146103ff578063f862da471461042f57610137565b806367262d8f146102ba5780639d88ebb6146102d8578063a64b6e5f14610308578063c36dec7a14610324578063c3a376531461034057610137565b80633d39c260116100ff5780633d39c260146102045780633e140947146102345780634739326b146102505780635293ee81146102825780635573e3ef1461029e57610137565b80630a07fae61461013c578063181d2f82146101585780631e22a2d4146101885780632d0bc6d2146101b85780633888b9d5146101d4575b600080fd5b6101566004803603810190610151919061168e565b61045f565b005b610172600480360381019061016d9190611719565b61053c565b60405161017f9190611755565b60405180910390f35b6101a2600480360381019061019d91906118b6565b61056f565b6040516101af919061198a565b60405180910390f35b6101d260048036038101906101cd91906119a5565b610714565b005b6101ee60048036038101906101e9919061168e565b610796565b6040516101fb9190611b7e565b60405180910390f35b61021e6004803603810190610219919061168e565b6109b7565b60405161022b9190611755565b60405180910390f35b61024e60048036038101906102499190611719565b6109f6565b005b61026a6004803603810190610265919061168e565b610ab3565b60405161027993929190611bea565b60405180910390f35b61029c60048036038101906102979190611c28565b610b95565b005b6102b860048036038101906102b3919061168e565b610c93565b005b6102c2610d28565b6040516102cf9190611cc7565b60405180910390f35b6102f260048036038101906102ed9190611719565b610d4c565b6040516102ff9190611cf1565b60405180910390f35b610322600480360381019061031d9190611d0c565b610d6c565b005b61033e60048036038101906103399190611de9565b610e12565b005b610348610f97565b604051610355919061198a565b60405180910390f35b6103786004803603810190610373919061168e565b610f9d565b005b610394600480360381019061038f919061168e565b61103f565b005b6103b060048036038101906103ab9190611719565b611115565b6040516103bd9190611cf1565b60405180910390f35b6103e060048036038101906103db919061168e565b6111bd565b6040516103f69a99989796959493929190611e32565b60405180910390f35b61041960048036038101906104149190611719565b611368565b6040516104269190611f8b565b60405180910390f35b6104496004803603810190610444919061168e565b611596565b6040516104569190611755565b60405180910390f35b61046833611115565b6104a7576040517f08c379a000000000000000000000000000000000000000000000000000000000815260040161049e90611ff9565b60405180910390fd5b6006600082815260200190815260200160002060070160019054906101000a900460ff1661050a576040517f08c379a000000000000000000000000000000000000000000000000000000000815260040161050190612065565b60405180910390fd5b60016006600083815260200190815260200160002060070160026101000a81548160ff02191690831515021790555050565b60026020528060005260406000206000915054906101000a900473ffffffffffffffffffffffffffffffffffffffff1681565b600060405180610140016040528060075481526020018881526020018781526020018673ffffffffffffffffffffffffffffffffffffffff1681526020018581526020018481526020018381526020016000151581526020016000151581526020016000151581525060066000600754815260200190815260200160002060008201518160000155602082015181600101908161060c9190612287565b5060408201518160020190816106229190612287565b5060608201518160030160006101000a81548173ffffffffffffffffffffffffffffffffffffffff021916908373ffffffffffffffffffffffffffffffffffffffff1602179055506080820151816004015560a0820151816005015560c0820151816006015560e08201518160070160006101000a81548160ff0219169083151502179055506101008201518160070160016101000a81548160ff0219169083151502179055506101208201518160070160026101000a81548160ff0219169083151502179055509050506007600081548092919061070090612388565b919050555060075490509695505050505050565b80600260008473ffffffffffffffffffffffffffffffffffffffff1673ffffffffffffffffffffffffffffffffffffffff16815260200190815260200160002060006101000a81548173ffffffffffffffffffffffffffffffffffffffff021916908373ffffffffffffffffffffffffffffffffffffffff1602179055505050565b61079e6115d5565b6006600083815260200190815260200160002060405180610140016040529081600082015481526020016001820180546107d7906120b4565b80601f0160208091040260200160405190810160405280929190818152602001828054610803906120b4565b80156108505780601f1061082557610100808354040283529160200191610850565b820191906000526020600020905b81548152906001019060200180831161083357829003601f168201915b50505050508152602001600282018054610869906120b4565b80601f0160208091040260200160405190810160405280929190818152602001828054610895906120b4565b80156108e25780601f106108b7576101008083540402835291602001916108e2565b820191906000526020600020905b8154815290600101906020018083116108c557829003601f168201915b505050505081526020016003820160009054906101000a900473ffffffffffffffffffffffffffffffffffffffff1673ffffffffffffffffffffffffffffffffffffffff1673ffffffffffffffffffffffffffffffffffffffff1681526020016004820154815260200160058201548152602001600682015481526020016007820160009054906101000a900460ff161515151581526020016007820160019054906101000a900460ff161515151581526020016007820160029054906101000a900460ff1615151515815250509050919050565b600481815481106109c757600080fd5b906000526020600020016000915054906101000a900473ffffffffffffffffffffffffffffffffffffffff1681565b6000610a0182611115565b15610a0b57600190505b8015610a4c576040517f08c379a0000000000000000000000000000000000000000000000000000000008152600401610a439061241c565b60405180910390fd5b6004829080600181540180825580915050600190039060005260206000200160009091909190916101000a81548173ffffffffffffffffffffffffffffffffffffffff021916908373ffffffffffffffffffffffffffffffffffffffff1602179055505050565b60018181548110610ac357600080fd5b9060005260206000209060030201600091509050806000018054610ae6906120b4565b80601f0160208091040260200160405190810160405280929190818152602001828054610b12906120b4565b8015610b5f5780601f10610b3457610100808354040283529160200191610b5f565b820191906000526020600020905b815481529060010190602001808311610b4257829003601f168201915b5050505050908060010160009054906101000a900473ffffffffffffffffffffffffffffffffffffffff16908060020154905083565b600073ffffffffffffffffffffffffffffffffffffffff166006600084815260200190815260200160002060030160009054906101000a900473ffffffffffffffffffffffffffffffffffffffff1673ffffffffffffffffffffffffffffffffffffffff1614610c3a576040517f08c379a0000000000000000000000000000000000000000000000000000000008152600401610c3190612488565b60405180910390fd5b806006600084815260200190815260200160002060030160006101000a81548173ffffffffffffffffffffffffffffffffffffffff021916908373ffffffffffffffffffffffffffffffffffffffff1602179055505050565b6006600082815260200190815260200160002060070160009054906101000a900460ff16610cf6576040517f08c379a0000000000000000000000000000000000000000000000000000000008152600401610ced906124f4565b60405180910390fd5b60016006600083815260200190815260200160002060070160016101000a81548160ff02191690831515021790555050565b60008054906101000a900473ffffffffffffffffffffffffffffffffffffffff1681565b60056020528060005260406000206000915054906101000a900460ff1681565b60008054906101000a900473ffffffffffffffffffffffffffffffffffffffff1673ffffffffffffffffffffffffffffffffffffffff166323b872dd8484846040518463ffffffff1660e01b8152600401610dc993929190612514565b6020604051808303816000875af1158015610de8573d6000803e3d6000fd5b505050506040513d601f19601f82011682018060405250810190610e0c9190612577565b50505050565b60056000826020015173ffffffffffffffffffffffffffffffffffffffff1673ffffffffffffffffffffffffffffffffffffffff16815260200190815260200160002060009054906101000a900460ff1615610ea3576040517f08c379a0000000000000000000000000000000000000000000000000000000008152600401610e9a906125f0565b60405180910390fd5b60018190806001815401808255809150506001900390600052602060002090600302016000909190919091506000820151816000019081610ee49190612287565b5060208201518160010160006101000a81548173ffffffffffffffffffffffffffffffffffffffff021916908373ffffffffffffffffffffffffffffffffffffffff160217905550604082015181600201555050600160056000836020015173ffffffffffffffffffffffffffffffffffffffff1673ffffffffffffffffffffffffffffffffffffffff16815260200190815260200160002060006101000a81548160ff02191690831515021790555050565b60075481565b60008054906101000a900473ffffffffffffffffffffffffffffffffffffffff1673ffffffffffffffffffffffffffffffffffffffff1663095ea7b330836040518363ffffffff1660e01b8152600401610ff8929190612610565b6020604051808303816000875af1158015611017573d6000803e3d6000fd5b505050506040513d601f19601f8201168201806040525081019061103b9190612577565b5050565b3373ffffffffffffffffffffffffffffffffffffffff166006600083815260200190815260200160002060030160009054906101000a900473ffffffffffffffffffffffffffffffffffffffff1673ffffffffffffffffffffffffffffffffffffffff16146110e3576040517f08c379a00000000000000000000000000000000000000000000000000000000081526004016110da906126ab565b60405180910390fd5b60016006600083815260200190815260200160002060070160006101000a81548160ff02191690831515021790555050565b6000806000905060005b6004805490508110156111b3578373ffffffffffffffffffffffffffffffffffffffff1660048281548110611157576111566126cb565b5b9060005260206000200160009054906101000a900473ffffffffffffffffffffffffffffffffffffffff1673ffffffffffffffffffffffffffffffffffffffff16036111a657600191506111b3565b808060010191505061111f565b5080915050919050565b60066020528060005260406000206000915090508060000154908060010180546111e6906120b4565b80601f0160208091040260200160405190810160405280929190818152602001828054611212906120b4565b801561125f5780601f106112345761010080835404028352916020019161125f565b820191906000526020600020905b81548152906001019060200180831161124257829003601f168201915b505050505090806002018054611274906120b4565b80601f01602080910402602001604051908101604052809291908181526020018280546112a0906120b4565b80156112ed5780601f106112c2576101008083540402835291602001916112ed565b820191906000526020600020905b8154815290600101906020018083116112d057829003601f168201915b5050505050908060030160009054906101000a900473ffffffffffffffffffffffffffffffffffffffff16908060040154908060050154908060060154908060070160009054906101000a900460ff16908060070160019054906101000a900460ff16908060070160029054906101000a900460ff1690508a565b606060005b600180549050811015611507578273ffffffffffffffffffffffffffffffffffffffff1660026000600184815481106113a9576113a86126cb565b5b906000526020600020906003020160010160009054906101000a900473ffffffffffffffffffffffffffffffffffffffff1673ffffffffffffffffffffffffffffffffffffffff1673ffffffffffffffffffffffffffffffffffffffff16815260200190815260200160002060009054906101000a900473ffffffffffffffffffffffffffffffffffffffff1673ffffffffffffffffffffffffffffffffffffffff16036114fa57600360018281548110611467576114666126cb565b5b906000526020600020906003020160010160009054906101000a900473ffffffffffffffffffffffffffffffffffffffff169080600181540180825580915050600190039060005260206000200160009091909190916101000a81548173ffffffffffffffffffffffffffffffffffffffff021916908373ffffffffffffffffffffffffffffffffffffffff1602179055505b808060010191505061136d565b50600380548060200260200160405190810160405280929190818152602001828054801561158a57602002820191906000526020600020905b8160009054906101000a900473ffffffffffffffffffffffffffffffffffffffff1673ffffffffffffffffffffffffffffffffffffffff1681526020019060010190808311611540575b50505050509050919050565b600381815481106115a657600080fd5b906000526020600020016000915054906101000a900473ffffffffffffffffffffffffffffffffffffffff1681565b604051806101400160405280600081526020016060815260200160608152602001600073ffffffffffffffffffffffffffffffffffffffff1681526020016000815260200160008152602001600081526020016000151581526020016000151581526020016000151581525090565b6000604051905090565b600080fd5b600080fd5b6000819050919050565b61166b81611658565b811461167657600080fd5b50565b60008135905061168881611662565b92915050565b6000602082840312156116a4576116a361164e565b5b60006116b284828501611679565b91505092915050565b600073ffffffffffffffffffffffffffffffffffffffff82169050919050565b60006116e6826116bb565b9050919050565b6116f6816116db565b811461170157600080fd5b50565b600081359050611713816116ed565b92915050565b60006020828403121561172f5761172e61164e565b5b600061173d84828501611704565b91505092915050565b61174f816116db565b82525050565b600060208201905061176a6000830184611746565b92915050565b600080fd5b600080fd5b6000601f19601f8301169050919050565b7f4e487b7100000000000000000000000000000000000000000000000000000000600052604160045260246000fd5b6117c38261177a565b810181811067ffffffffffffffff821117156117e2576117e161178b565b5b80604052505050565b60006117f5611644565b905061180182826117ba565b919050565b600067ffffffffffffffff8211156118215761182061178b565b5b61182a8261177a565b9050602081019050919050565b82818337600083830152505050565b600061185961185484611806565b6117eb565b90508281526020810184848401111561187557611874611775565b5b611880848285611837565b509392505050565b600082601f83011261189d5761189c611770565b5b81356118ad848260208601611846565b91505092915050565b60008060008060008060c087890312156118d3576118d261164e565b5b600087013567ffffffffffffffff8111156118f1576118f0611653565b5b6118fd89828a01611888565b965050602087013567ffffffffffffffff81111561191e5761191d611653565b5b61192a89828a01611888565b955050604061193b89828a01611704565b945050606061194c89828a01611679565b935050608061195d89828a01611679565b92505060a061196e89828a01611679565b9150509295509295509295565b61198481611658565b82525050565b600060208201905061199f600083018461197b565b92915050565b600080604083850312156119bc576119bb61164e565b5b60006119ca85828601611704565b92505060206119db85828601611704565b9150509250929050565b6119ee81611658565b82525050565b600081519050919050565b600082825260208201905092915050565b60005b83811015611a2e578082015181840152602081019050611a13565b60008484015250505050565b6000611a45826119f4565b611a4f81856119ff565b9350611a5f818560208601611a10565b611a688161177a565b840191505092915050565b611a7c816116db565b82525050565b60008115159050919050565b611a9781611a82565b82525050565b600061014083016000830151611ab660008601826119e5565b5060208301518482036020860152611ace8282611a3a565b91505060408301518482036040860152611ae88282611a3a565b9150506060830151611afd6060860182611a73565b506080830151611b1060808601826119e5565b5060a0830151611b2360a08601826119e5565b5060c0830151611b3660c08601826119e5565b5060e0830151611b4960e0860182611a8e565b50610100830151611b5e610100860182611a8e565b50610120830151611b73610120860182611a8e565b508091505092915050565b60006020820190508181036000830152611b988184611a9d565b905092915050565b600082825260208201905092915050565b6000611bbc826119f4565b611bc68185611ba0565b9350611bd6818560208601611a10565b611bdf8161177a565b840191505092915050565b60006060820190508181036000830152611c048186611bb1565b9050611c136020830185611746565b611c20604083018461197b565b949350505050565b60008060408385031215611c3f57611c3e61164e565b5b6000611c4d85828601611679565b9250506020611c5e85828601611704565b9150509250929050565b6000819050919050565b6000611c8d611c88611c83846116bb565b611c68565b6116bb565b9050919050565b6000611c9f82611c72565b9050919050565b6000611cb182611c94565b9050919050565b611cc181611ca6565b82525050565b6000602082019050611cdc6000830184611cb8565b92915050565b611ceb81611a82565b82525050565b6000602082019050611d066000830184611ce2565b92915050565b600080600060608486031215611d2557611d2461164e565b5b6000611d3386828701611704565b9350506020611d4486828701611704565b9250506040611d5586828701611679565b9150509250925092565b600080fd5b600080fd5b600060608284031215611d7f57611d7e611d5f565b5b611d8960606117eb565b9050600082013567ffffffffffffffff811115611da957611da8611d64565b5b611db584828501611888565b6000830152506020611dc984828501611704565b6020830152506040611ddd84828501611679565b60408301525092915050565b600060208284031215611dff57611dfe61164e565b5b600082013567ffffffffffffffff811115611e1d57611e1c611653565b5b611e2984828501611d69565b91505092915050565b600061014082019050611e48600083018d61197b565b8181036020830152611e5a818c611bb1565b90508181036040830152611e6e818b611bb1565b9050611e7d606083018a611746565b611e8a608083018961197b565b611e9760a083018861197b565b611ea460c083018761197b565b611eb160e0830186611ce2565b611ebf610100830185611ce2565b611ecd610120830184611ce2565b9b9a5050505050505050505050565b600081519050919050565b600082825260208201905092915050565b6000819050602082019050919050565b6000611f148383611a73565b60208301905092915050565b6000602082019050919050565b6000611f3882611edc565b611f428185611ee7565b9350611f4d83611ef8565b8060005b83811015611f7e578151611f658882611f08565b9750611f7083611f20565b925050600181019050611f51565b5085935050505092915050565b60006020820190508181036000830152611fa58184611f2d565b905092915050565b7f4f6e6c79204d616e616765722063616e20617070726f76650000000000000000600082015250565b6000611fe3601883611ba0565b9150611fee82611fad565b602082019050919050565b6000602082019050818103600083015261201281611fd6565b9050919050565b7f5461736b206973204e6f74207665726966696564000000000000000000000000600082015250565b600061204f601483611ba0565b915061205a82612019565b602082019050919050565b6000602082019050818103600083015261207e81612042565b9050919050565b7f4e487b7100000000000000000000000000000000000000000000000000000000600052602260045260246000fd5b600060028204905060018216806120cc57607f821691505b6020821081036120df576120de612085565b5b50919050565b60008190508160005260206000209050919050565b60006020601f8301049050919050565b600082821b905092915050565b6000600883026121477fffffffffffffffffffffffffffffffffffffffffffffffffffffffffffffffff8261210a565b612151868361210a565b95508019841693508086168417925050509392505050565b600061218461217f61217a84611658565b611c68565b611658565b9050919050565b6000819050919050565b61219e83612169565b6121b26121aa8261218b565b848454612117565b825550505050565b600090565b6121c76121ba565b6121d2818484612195565b505050565b5b818110156121f6576121eb6000826121bf565b6001810190506121d8565b5050565b601f82111561223b5761220c816120e5565b612215846120fa565b81016020851015612224578190505b612238612230856120fa565b8301826121d7565b50505b505050565b600082821c905092915050565b600061225e60001984600802612240565b1980831691505092915050565b6000612277838361224d565b9150826002028217905092915050565b612290826119f4565b67ffffffffffffffff8111156122a9576122a861178b565b5b6122b382546120b4565b6122be8282856121fa565b600060209050601f8311600181146122f157600084156122df578287015190505b6122e9858261226b565b865550612351565b601f1984166122ff866120e5565b60005b8281101561232757848901518255600182019150602085019450602081019050612302565b868310156123445784890151612340601f89168261224d565b8355505b6001600288020188555050505b505050505050565b7f4e487b7100000000000000000000000000000000000000000000000000000000600052601160045260246000fd5b600061239382611658565b91507fffffffffffffffffffffffffffffffffffffffffffffffffffffffffffffffff82036123c5576123c4612359565b5b600182019050919050565b7f4d616e6167657220616c72656164792072656769737465726564000000000000600082015250565b6000612406601a83611ba0565b9150612411826123d0565b602082019050919050565b60006020820190508181036000830152612435816123f9565b9050919050565b7f5461736b20416c72656164792061737369676e65640000000000000000000000600082015250565b6000612472601583611ba0565b915061247d8261243c565b602082019050919050565b600060208201905081810360008301526124a181612465565b9050919050565b7f5461736b204e6f7420636f6d706c657465640000000000000000000000000000600082015250565b60006124de601283611ba0565b91506124e9826124a8565b602082019050919050565b6000602082019050818103600083015261250d816124d1565b9050919050565b60006060820190506125296000830186611746565b6125366020830185611746565b612543604083018461197b565b949350505050565b61255481611a82565b811461255f57600080fd5b50565b6000815190506125718161254b565b92915050565b60006020828403121561258d5761258c61164e565b5b600061259b84828501612562565b91505092915050565b7f456d706c6f79656520616c726561647920726567697374657265640000000000600082015250565b60006125da601b83611ba0565b91506125e5826125a4565b602082019050919050565b60006020820190508181036000830152612609816125cd565b9050919050565b60006040820190506126256000830185611746565b612632602083018461197b565b9392505050565b7f4f6e6c792041737369676e656420454d706c6f7965652063616e206368616e6760008201527f6520737461747573000000000000000000000000000000000000000000000000602082015250565b6000612695602883611ba0565b91506126a082612639565b604082019050919050565b600060208201905081810360008301526126c481612688565b9050919050565b7f4e487b7100000000000000000000000000000000000000000000000000000000600052603260045260246000fdfea26469706673582212209f2616940d380169b0db6c3236e5b4d58f3039da434a9d228c8e28c01daa585a64736f6c63430008180033","opcodes":"PUSH1 0x80 PUSH1 0x40 MSTORE CALLVALUE DUP1 ISZERO PUSH3 0x11 JUMPI PUSH1 0x0 DUP1 REVERT JUMPDEST POP PUSH1 0x40 MLOAD PUSH3 0x285A CODESIZE SUB DUP1 PUSH3 0x285A DUP4 CODECOPY DUP2 DUP2 ADD PUSH1 0x40 MSTORE DUP2 ADD SWAP1 PUSH3 0x37 SWAP2 SWAP1 PUSH3 0xE8 JUMP JUMPDEST DUP1 PUSH1 0x0 DUP1 PUSH2 0x100 EXP DUP2 SLOAD DUP2 PUSH20 0xFFFFFFFFFFFFFFFFFFFFFFFFFFFFFFFFFFFFFFFF MUL NOT AND SWAP1 DUP4 PUSH20 0xFFFFFFFFFFFFFFFFFFFFFFFFFFFFFFFFFFFFFFFF AND MUL OR SWAP1 SSTORE POP POP PUSH3 0x11A JUMP JUMPDEST PUSH1 0x0 DUP1 REVERT JUMPDEST PUSH1 0x0 PUSH20 0xFFFFFFFFFFFFFFFFFFFFFFFFFFFFFFFFFFFFFFFF DUP3 AND SWAP1 POP SWAP2 SWAP1 POP JUMP JUMPDEST PUSH1 0x0 PUSH3 0xB0 DUP3 PUSH3 0x83 JUMP JUMPDEST SWAP1 POP SWAP2 SWAP1 POP JUMP JUMPDEST PUSH3 0xC2 DUP2 PUSH3 0xA3 JUMP JUMPDEST DUP2 EQ PUSH3 0xCE JUMPI PUSH1 0x0 DUP1 REVERT JUMPDEST POP JUMP JUMPDEST PUSH1 0x0 DUP2 MLOAD SWAP1 POP PUSH3 0xE2 DUP2 PUSH3 0xB7 JUMP JUMPDEST SWAP3 SWAP2 POP POP JUMP JUMPDEST PUSH1 0x0 PUSH1 0x20 DUP3 DUP5 SUB SLT ISZERO PUSH3 0x101 JUMPI PUSH3 0x100 PUSH3 0x7E JUMP JUMPDEST JUMPDEST PUSH1 0x0 PUSH3 0x111 DUP5 DUP3 DUP6 ADD PUSH3 0xD1 JUMP JUMPDEST SWAP2 POP POP SWAP3 SWAP2 POP POP JUMP JUMPDEST PUSH2 0x2730 DUP1 PUSH3 0x12A PUSH1 0x0 CODECOPY PUSH1 0x0 RETURN INVALID PUSH1 0x80 PUSH1 0x40 MSTORE CALLVALUE DUP1 ISZERO PUSH2 0x10 JUMPI PUSH1 0x0 DUP1 REVERT JUMPDEST POP PUSH1 0x4 CALLDATASIZE LT PUSH2 0x137 JUMPI PUSH1 0x0 CALLDATALOAD PUSH1 0xE0 SHR DUP1 PUSH4 0x67262D8F GT PUSH2 0xB8 JUMPI DUP1 PUSH4 0xCACCA4A0 GT PUSH2 0x7C JUMPI DUP1 PUSH4 0xCACCA4A0 EQ PUSH2 0x35E JUMPI DUP1 PUSH4 0xE1E29558 EQ PUSH2 0x37A JUMPI DUP1 PUSH4 0xF3AE2415 EQ PUSH2 0x396 JUMPI DUP1 PUSH4 0xF4B2A46E EQ PUSH2 0x3C6 JUMPI DUP1 PUSH4 0xF78AAB4B EQ PUSH2 0x3FF JUMPI DUP1 PUSH4 0xF862DA47 EQ PUSH2 0x42F JUMPI PUSH2 0x137 JUMP JUMPDEST DUP1 PUSH4 0x67262D8F EQ PUSH2 0x2BA JUMPI DUP1 PUSH4 0x9D88EBB6 EQ PUSH2 0x2D8 JUMPI DUP1 PUSH4 0xA64B6E5F EQ PUSH2 0x308 JUMPI DUP1 PUSH4 0xC36DEC7A EQ PUSH2 0x324 JUMPI DUP1 PUSH4 0xC3A37653 EQ PUSH2 0x340 JUMPI PUSH2 0x137 JUMP JUMPDEST DUP1 PUSH4 0x3D39C260 GT PUSH2 0xFF JUMPI DUP1 PUSH4 0x3D39C260 EQ PUSH2 0x204 JUMPI DUP1 PUSH4 0x3E140947 EQ PUSH2 0x234 JUMPI DUP1 PUSH4 0x4739326B EQ PUSH2 0x250 JUMPI DUP1 PUSH4 0x5293EE81 EQ PUSH2 0x282 JUMPI DUP1 PUSH4 0x5573E3EF EQ PUSH2 0x29E JUMPI PUSH2 0x137 JUMP JUMPDEST DUP1 PUSH4 0xA07FAE6 EQ PUSH2 0x13C JUMPI DUP1 PUSH4 0x181D2F82 EQ PUSH2 0x158 JUMPI DUP1 PUSH4 0x1E22A2D4 EQ PUSH2 0x188 JUMPI DUP1 PUSH4 0x2D0BC6D2 EQ PUSH2 0x1B8 JUMPI DUP1 PUSH4 0x3888B9D5 EQ PUSH2 0x1D4 JUMPI JUMPDEST PUSH1 0x0 DUP1 REVERT JUMPDEST PUSH2 0x156 PUSH1 0x4 DUP1 CALLDATASIZE SUB DUP2 ADD SWAP1 PUSH2 0x151 SWAP2 SWAP1 PUSH2 0x168E JUMP JUMPDEST PUSH2 0x45F JUMP JUMPDEST STOP JUMPDEST PUSH2 0x172 PUSH1 0x4 DUP1 CALLDATASIZE SUB DUP2 ADD SWAP1 PUSH2 0x16D SWAP2 SWAP1 PUSH2 0x1719 JUMP JUMPDEST PUSH2 0x53C JUMP JUMPDEST PUSH1 0x40 MLOAD PUSH2 0x17F SWAP2 SWAP1 PUSH2 0x1755 JUMP JUMPDEST PUSH1 0x40 MLOAD DUP1 SWAP2 SUB SWAP1 RETURN JUMPDEST PUSH2 0x1A2 PUSH1 0x4 DUP1 CALLDATASIZE SUB DUP2 ADD SWAP1 PUSH2 0x19D SWAP2 SWAP1 PUSH2 0x18B6 JUMP JUMPDEST PUSH2 0x56F JUMP JUMPDEST PUSH1 0x40 MLOAD PUSH2 0x1AF SWAP2 SWAP1 PUSH2 0x198A JUMP JUMPDEST PUSH1 0x40 MLOAD DUP1 SWAP2 SUB SWAP1 RETURN JUMPDEST PUSH2 0x1D2 PUSH1 0x4 DUP1 CALLDATASIZE SUB DUP2 ADD SWAP1 PUSH2 0x1CD SWAP2 SWAP1 PUSH2 0x19A5 JUMP JUMPDEST PUSH2 0x714 JUMP JUMPDEST STOP JUMPDEST PUSH2 0x1EE PUSH1 0x4 DUP1 CALLDATASIZE SUB DUP2 ADD SWAP1 PUSH2 0x1E9 SWAP2 SWAP1 PUSH2 0x168E JUMP JUMPDEST PUSH2 0x796 JUMP JUMPDEST PUSH1 0x40 MLOAD PUSH2 0x1FB SWAP2 SWAP1 PUSH2 0x1B7E JUMP JUMPDEST PUSH1 0x40 MLOAD DUP1 SWAP2 SUB SWAP1 RETURN JUMPDEST PUSH2 0x21E PUSH1 0x4 DUP1 CALLDATASIZE SUB DUP2 ADD SWAP1 PUSH2 0x219 SWAP2 SWAP1 PUSH2 0x168E JUMP JUMPDEST PUSH2 0x9B7 JUMP JUMPDEST PUSH1 0x40 MLOAD PUSH2 0x22B SWAP2 SWAP1 PUSH2 0x1755 JUMP JUMPDEST PUSH1 0x40 MLOAD DUP1 SWAP2 SUB SWAP1 RETURN JUMPDEST PUSH2 0x24E PUSH1 0x4 DUP1 CALLDATASIZE SUB DUP2 ADD SWAP1 PUSH2 0x249 SWAP2 SWAP1 PUSH2 0x1719 JUMP JUMPDEST PUSH2 0x9F6 JUMP JUMPDEST STOP JUMPDEST PUSH2 0x26A PUSH1 0x4 DUP1 CALLDATASIZE SUB DUP2 ADD SWAP1 PUSH2 0x265 SWAP2 SWAP1 PUSH2 0x168E JUMP JUMPDEST PUSH2 0xAB3 JUMP JUMPDEST PUSH1 0x40 MLOAD PUSH2 0x279 SWAP4 SWAP3 SWAP2 SWAP1 PUSH2 0x1BEA JUMP JUMPDEST PUSH1 0x40 MLOAD DUP1 SWAP2 SUB SWAP1 RETURN JUMPDEST PUSH2 0x29C PUSH1 0x4 DUP1 CALLDATASIZE SUB DUP2 ADD SWAP1 PUSH2 0x297 SWAP2 SWAP1 PUSH2 0x1C28 JUMP JUMPDEST PUSH2 0xB95 JUMP JUMPDEST STOP JUMPDEST PUSH2 0x2B8 PUSH1 0x4 DUP1 CALLDATASIZE SUB DUP2 ADD SWAP1 PUSH2 0x2B3 SWAP2 SWAP1 PUSH2 0x168E JUMP JUMPDEST PUSH2 0xC93 JUMP JUMPDEST STOP JUMPDEST PUSH2 0x2C2 PUSH2 0xD28 JUMP JUMPDEST PUSH1 0x40 MLOAD PUSH2 0x2CF SWAP2 SWAP1 PUSH2 0x1CC7 JUMP JUMPDEST PUSH1 0x40 MLOAD DUP1 SWAP2 SUB SWAP1 RETURN JUMPDEST PUSH2 0x2F2 PUSH1 0x4 DUP1 CALLDATASIZE SUB DUP2 ADD SWAP1 PUSH2 0x2ED SWAP2 SWAP1 PUSH2 0x1719 JUMP JUMPDEST PUSH2 0xD4C JUMP JUMPDEST PUSH1 0x40 MLOAD PUSH2 0x2FF SWAP2 SWAP1 PUSH2 0x1CF1 JUMP JUMPDEST PUSH1 0x40 MLOAD DUP1 SWAP2 SUB SWAP1 RETURN JUMPDEST PUSH2 0x322 PUSH1 0x4 DUP1 CALLDATASIZE SUB DUP2 ADD SWAP1 PUSH2 0x31D SWAP2 SWAP1 PUSH2 0x1D0C JUMP JUMPDEST PUSH2 0xD6C JUMP JUMPDEST STOP JUMPDEST PUSH2 0x33E PUSH1 0x4 DUP1 CALLDATASIZE SUB DUP2 ADD SWAP1 PUSH2 0x339 SWAP2 SWAP1 PUSH2 0x1DE9 JUMP JUMPDEST PUSH2 0xE12 JUMP JUMPDEST STOP JUMPDEST PUSH2 0x348 PUSH2 0xF97 JUMP JUMPDEST PUSH1 0x40 MLOAD PUSH2 0x355 SWAP2 SWAP1 PUSH2 0x198A JUMP JUMPDEST PUSH1 0x40 MLOAD DUP1 SWAP2 SUB SWAP1 RETURN JUMPDEST PUSH2 0x378 PUSH1 0x4 DUP1 CALLDATASIZE SUB DUP2 ADD SWAP1 PUSH2 0x373 SWAP2 SWAP1 PUSH2 0x168E JUMP JUMPDEST PUSH2 0xF9D JUMP JUMPDEST STOP JUMPDEST PUSH2 0x394 PUSH1 0x4 DUP1 CALLDATASIZE SUB DUP2 ADD SWAP1 PUSH2 0x38F SWAP2 SWAP1 PUSH2 0x168E JUMP JUMPDEST PUSH2 0x103F JUMP JUMPDEST STOP JUMPDEST PUSH2 0x3B0 PUSH1 0x4 DUP1 CALLDATASIZE SUB DUP2 ADD SWAP1 PUSH2 0x3AB SWAP2 SWAP1 PUSH2 0x1719 JUMP JUMPDEST PUSH2 0x1115 JUMP JUMPDEST PUSH1 0x40 MLOAD PUSH2 0x3BD SWAP2 SWAP1 PUSH2 0x1CF1 JUMP JUMPDEST PUSH1 0x40 MLOAD DUP1 SWAP2 SUB SWAP1 RETURN JUMPDEST PUSH2 0x3E0 PUSH1 0x4 DUP1 CALLDATASIZE SUB DUP2 ADD SWAP1 PUSH2 0x3DB SWAP2 SWAP1 PUSH2 0x168E JUMP JUMPDEST PUSH2 0x11BD JUMP JUMPDEST PUSH1 0x40 MLOAD PUSH2 0x3F6 SWAP11 SWAP10 SWAP9 SWAP8 SWAP7 SWAP6 SWAP5 SWAP4 SWAP3 SWAP2 SWAP1 PUSH2 0x1E32 JUMP JUMPDEST PUSH1 0x40 MLOAD DUP1 SWAP2 SUB SWAP1 RETURN JUMPDEST PUSH2 0x419 PUSH1 0x4 DUP1 CALLDATASIZE SUB DUP2 ADD SWAP1 PUSH2 0x414 SWAP2 SWAP1 PUSH2 0x1719 JUMP JUMPDEST PUSH2 0x1368 JUMP JUMPDEST PUSH1 0x40 MLOAD PUSH2 0x426 SWAP2 SWAP1 PUSH2 0x1F8B JUMP JUMPDEST PUSH1 0x40 MLOAD DUP1 SWAP2 SUB SWAP1 RETURN JUMPDEST PUSH2 0x449 PUSH1 0x4 DUP1 CALLDATASIZE SUB DUP2 ADD SWAP1 PUSH2 0x444 SWAP2 SWAP1 PUSH2 0x168E JUMP JUMPDEST PUSH2 0x1596 JUMP JUMPDEST PUSH1 0x40 MLOAD PUSH2 0x456 SWAP2 SWAP1 PUSH2 0x1755 JUMP JUMPDEST PUSH1 0x40 MLOAD DUP1 SWAP2 SUB SWAP1 RETURN JUMPDEST PUSH2 0x468 CALLER PUSH2 0x1115 JUMP JUMPDEST PUSH2 0x4A7 JUMPI PUSH1 0x40 MLOAD PUSH32 0x8C379A000000000000000000000000000000000000000000000000000000000 DUP2 MSTORE PUSH1 0x4 ADD PUSH2 0x49E SWAP1 PUSH2 0x1FF9 JUMP JUMPDEST PUSH1 0x40 MLOAD DUP1 SWAP2 SUB SWAP1 REVERT JUMPDEST PUSH1 0x6 PUSH1 0x0 DUP3 DUP2 MSTORE PUSH1 0x20 ADD SWAP1 DUP2 MSTORE PUSH1 0x20 ADD PUSH1 0x0 KECCAK256 PUSH1 0x7 ADD PUSH1 0x1 SWAP1 SLOAD SWAP1 PUSH2 0x100 EXP SWAP1 DIV PUSH1 0xFF AND PUSH2 0x50A JUMPI PUSH1 0x40 MLOAD PUSH32 0x8C379A000000000000000000000000000000000000000000000000000000000 DUP2 MSTORE PUSH1 0x4 ADD PUSH2 0x501 SWAP1 PUSH2 0x2065 JUMP JUMPDEST PUSH1 0x40 MLOAD DUP1 SWAP2 SUB SWAP1 REVERT JUMPDEST PUSH1 0x1 PUSH1 0x6 PUSH1 0x0 DUP4 DUP2 MSTORE PUSH1 0x20 ADD SWAP1 DUP2 MSTORE PUSH1 0x20 ADD PUSH1 0x0 KECCAK256 PUSH1 0x7 ADD PUSH1 0x2 PUSH2 0x100 EXP DUP2 SLOAD DUP2 PUSH1 0xFF MUL NOT AND SWAP1 DUP4 ISZERO ISZERO MUL OR SWAP1 SSTORE POP POP JUMP JUMPDEST PUSH1 0x2 PUSH1 0x20 MSTORE DUP1 PUSH1 0x0 MSTORE PUSH1 0x40 PUSH1 0x0 KECCAK256 PUSH1 0x0 SWAP2 POP SLOAD SWAP1 PUSH2 0x100 EXP SWAP1 DIV PUSH20 0xFFFFFFFFFFFFFFFFFFFFFFFFFFFFFFFFFFFFFFFF AND DUP2 JUMP JUMPDEST PUSH1 0x0 PUSH1 0x40 MLOAD DUP1 PUSH2 0x140 ADD PUSH1 0x40 MSTORE DUP1 PUSH1 0x7 SLOAD DUP2 MSTORE PUSH1 0x20 ADD DUP9 DUP2 MSTORE PUSH1 0x20 ADD DUP8 DUP2 MSTORE PUSH1 0x20 ADD DUP7 PUSH20 0xFFFFFFFFFFFFFFFFFFFFFFFFFFFFFFFFFFFFFFFF AND DUP2 MSTORE PUSH1 0x20 ADD DUP6 DUP2 MSTORE PUSH1 0x20 ADD DUP5 DUP2 MSTORE PUSH1 0x20 ADD DUP4 DUP2 MSTORE PUSH1 0x20 ADD PUSH1 0x0 ISZERO ISZERO DUP2 MSTORE PUSH1 0x20 ADD PUSH1 0x0 ISZERO ISZERO DUP2 MSTORE PUSH1 0x20 ADD PUSH1 0x0 ISZERO ISZERO DUP2 MSTORE POP PUSH1 0x6 PUSH1 0x0 PUSH1 0x7 SLOAD DUP2 MSTORE PUSH1 0x20 ADD SWAP1 DUP2 MSTORE PUSH1 0x20 ADD PUSH1 0x0 KECCAK256 PUSH1 0x0 DUP3 ADD MLOAD DUP2 PUSH1 0x0 ADD SSTORE PUSH1 0x20 DUP3 ADD MLOAD DUP2 PUSH1 0x1 ADD SWAP1 DUP2 PUSH2 0x60C SWAP2 SWAP1 PUSH2 0x2287 JUMP JUMPDEST POP PUSH1 0x40 DUP3 ADD MLOAD DUP2 PUSH1 0x2 ADD SWAP1 DUP2 PUSH2 0x622 SWAP2 SWAP1 PUSH2 0x2287 JUMP JUMPDEST POP PUSH1 0x60 DUP3 ADD MLOAD DUP2 PUSH1 0x3 ADD PUSH1 0x0 PUSH2 0x100 EXP DUP2 SLOAD DUP2 PUSH20 0xFFFFFFFFFFFFFFFFFFFFFFFFFFFFFFFFFFFFFFFF MUL NOT AND SWAP1 DUP4 PUSH20 0xFFFFFFFFFFFFFFFFFFFFFFFFFFFFFFFFFFFFFFFF AND MUL OR SWAP1 SSTORE POP PUSH1 0x80 DUP3 ADD MLOAD DUP2 PUSH1 0x4 ADD SSTORE PUSH1 0xA0 DUP3 ADD MLOAD DUP2 PUSH1 0x5 ADD SSTORE PUSH1 0xC0 DUP3 ADD MLOAD DUP2 PUSH1 0x6 ADD SSTORE PUSH1 0xE0 DUP3 ADD MLOAD DUP2 PUSH1 0x7 ADD PUSH1 0x0 PUSH2 0x100 EXP DUP2 SLOAD DUP2 PUSH1 0xFF MUL NOT AND SWAP1 DUP4 ISZERO ISZERO MUL OR SWAP1 SSTORE POP PUSH2 0x100 DUP3 ADD MLOAD DUP2 PUSH1 0x7 ADD PUSH1 0x1 PUSH2 0x100 EXP DUP2 SLOAD DUP2 PUSH1 0xFF MUL NOT AND SWAP1 DUP4 ISZERO ISZERO MUL OR SWAP1 SSTORE POP PUSH2 0x120 DUP3 ADD MLOAD DUP2 PUSH1 0x7 ADD PUSH1 0x2 PUSH2 0x100 EXP DUP2 SLOAD DUP2 PUSH1 0xFF MUL NOT AND SWAP1 DUP4 ISZERO ISZERO MUL OR SWAP1 SSTORE POP SWAP1 POP POP PUSH1 0x7 PUSH1 0x0 DUP2 SLOAD DUP1 SWAP3 SWAP2 SWAP1 PUSH2 0x700 SWAP1 PUSH2 0x2388 JUMP JUMPDEST SWAP2 SWAP1 POP SSTORE POP PUSH1 0x7 SLOAD SWAP1 POP SWAP7 SWAP6 POP POP POP POP POP POP JUMP JUMPDEST DUP1 PUSH1 0x2 PUSH1 0x0 DUP5 PUSH20 0xFFFFFFFFFFFFFFFFFFFFFFFFFFFFFFFFFFFFFFFF AND PUSH20 0xFFFFFFFFFFFFFFFFFFFFFFFFFFFFFFFFFFFFFFFF AND DUP2 MSTORE PUSH1 0x20 ADD SWAP1 DUP2 MSTORE PUSH1 0x20 ADD PUSH1 0x0 KECCAK256 PUSH1 0x0 PUSH2 0x100 EXP DUP2 SLOAD DUP2 PUSH20 0xFFFFFFFFFFFFFFFFFFFFFFFFFFFFFFFFFFFFFFFF MUL NOT AND SWAP1 DUP4 PUSH20 0xFFFFFFFFFFFFFFFFFFFFFFFFFFFFFFFFFFFFFFFF AND MUL OR SWAP1 SSTORE POP POP POP JUMP JUMPDEST PUSH2 0x79E PUSH2 0x15D5 JUMP JUMPDEST PUSH1 0x6 PUSH1 0x0 DUP4 DUP2 MSTORE PUSH1 0x20 ADD SWAP1 DUP2 MSTORE PUSH1 0x20 ADD PUSH1 0x0 KECCAK256 PUSH1 0x40 MLOAD DUP1 PUSH2 0x140 ADD PUSH1 0x40 MSTORE SWAP1 DUP2 PUSH1 0x0 DUP3 ADD SLOAD DUP2 MSTORE PUSH1 0x20 ADD PUSH1 0x1 DUP3 ADD DUP1 SLOAD PUSH2 0x7D7 SWAP1 PUSH2 0x20B4 JUMP JUMPDEST DUP1 PUSH1 0x1F ADD PUSH1 0x20 DUP1 SWAP2 DIV MUL PUSH1 0x20 ADD PUSH1 0x40 MLOAD SWAP1 DUP2 ADD PUSH1 0x40 MSTORE DUP1 SWAP3 SWAP2 SWAP1 DUP2 DUP2 MSTORE PUSH1 0x20 ADD DUP3 DUP1 SLOAD PUSH2 0x803 SWAP1 PUSH2 0x20B4 JUMP JUMPDEST DUP1 ISZERO PUSH2 0x850 JUMPI DUP1 PUSH1 0x1F LT PUSH2 0x825 JUMPI PUSH2 0x100 DUP1 DUP4 SLOAD DIV MUL DUP4 MSTORE SWAP2 PUSH1 0x20 ADD SWAP2 PUSH2 0x850 JUMP JUMPDEST DUP3 ADD SWAP2 SWAP1 PUSH1 0x0 MSTORE PUSH1 0x20 PUSH1 0x0 KECCAK256 SWAP1 JUMPDEST DUP2 SLOAD DUP2 MSTORE SWAP1 PUSH1 0x1 ADD SWAP1 PUSH1 0x20 ADD DUP1 DUP4 GT PUSH2 0x833 JUMPI DUP3 SWAP1 SUB PUSH1 0x1F AND DUP3 ADD SWAP2 JUMPDEST POP POP POP POP POP DUP2 MSTORE PUSH1 0x20 ADD PUSH1 0x2 DUP3 ADD DUP1 SLOAD PUSH2 0x869 SWAP1 PUSH2 0x20B4 JUMP JUMPDEST DUP1 PUSH1 0x1F ADD PUSH1 0x20 DUP1 SWAP2 DIV MUL PUSH1 0x20 ADD PUSH1 0x40 MLOAD SWAP1 DUP2 ADD PUSH1 0x40 MSTORE DUP1 SWAP3 SWAP2 SWAP1 DUP2 DUP2 MSTORE PUSH1 0x20 ADD DUP3 DUP1 SLOAD PUSH2 0x895 SWAP1 PUSH2 0x20B4 JUMP JUMPDEST DUP1 ISZERO PUSH2 0x8E2 JUMPI DUP1 PUSH1 0x1F LT PUSH2 0x8B7 JUMPI PUSH2 0x100 DUP1 DUP4 SLOAD DIV MUL DUP4 MSTORE SWAP2 PUSH1 0x20 ADD SWAP2 PUSH2 0x8E2 JUMP JUMPDEST DUP3 ADD SWAP2 SWAP1 PUSH1 0x0 MSTORE PUSH1 0x20 PUSH1 0x0 KECCAK256 SWAP1 JUMPDEST DUP2 SLOAD DUP2 MSTORE SWAP1 PUSH1 0x1 ADD SWAP1 PUSH1 0x20 ADD DUP1 DUP4 GT PUSH2 0x8C5 JUMPI DUP3 SWAP1 SUB PUSH1 0x1F AND DUP3 ADD SWAP2 JUMPDEST POP POP POP POP POP DUP2 MSTORE PUSH1 0x20 ADD PUSH1 0x3 DUP3 ADD PUSH1 0x0 SWAP1 SLOAD SWAP1 PUSH2 0x100 EXP SWAP1 DIV PUSH20 0xFFFFFFFFFFFFFFFFFFFFFFFFFFFFFFFFFFFFFFFF AND PUSH20 0xFFFFFFFFFFFFFFFFFFFFFFFFFFFFFFFFFFFFFFFF AND PUSH20 0xFFFFFFFFFFFFFFFFFFFFFFFFFFFFFFFFFFFFFFFF AND DUP2 MSTORE PUSH1 0x20 ADD PUSH1 0x4 DUP3 ADD SLOAD DUP2 MSTORE PUSH1 0x20 ADD PUSH1 0x5 DUP3 ADD SLOAD DUP2 MSTORE PUSH1 0x20 ADD PUSH1 0x6 DUP3 ADD SLOAD DUP2 MSTORE PUSH1 0x20 ADD PUSH1 0x7 DUP3 ADD PUSH1 0x0 SWAP1 SLOAD SWAP1 PUSH2 0x100 EXP SWAP1 DIV PUSH1 0xFF AND ISZERO ISZERO ISZERO ISZERO DUP2 MSTORE PUSH1 0x20 ADD PUSH1 0x7 DUP3 ADD PUSH1 0x1 SWAP1 SLOAD SWAP1 PUSH2 0x100 EXP SWAP1 DIV PUSH1 0xFF AND ISZERO ISZERO ISZERO ISZERO DUP2 MSTORE PUSH1 0x20 ADD PUSH1 0x7 DUP3 ADD PUSH1 0x2 SWAP1 SLOAD SWAP1 PUSH2 0x100 EXP SWAP1 DIV PUSH1 0xFF AND ISZERO ISZERO ISZERO ISZERO DUP2 MSTORE POP POP SWAP1 POP SWAP2 SWAP1 POP JUMP JUMPDEST PUSH1 0x4 DUP2 DUP2 SLOAD DUP2 LT PUSH2 0x9C7 JUMPI PUSH1 0x0 DUP1 REVERT JUMPDEST SWAP1 PUSH1 0x0 MSTORE PUSH1 0x20 PUSH1 0x0 KECCAK256 ADD PUSH1 0x0 SWAP2 POP SLOAD SWAP1 PUSH2 0x100 EXP SWAP1 DIV PUSH20 0xFFFFFFFFFFFFFFFFFFFFFFFFFFFFFFFFFFFFFFFF AND DUP2 JUMP JUMPDEST PUSH1 0x0 PUSH2 0xA01 DUP3 PUSH2 0x1115 JUMP JUMPDEST ISZERO PUSH2 0xA0B JUMPI PUSH1 0x1 SWAP1 POP JUMPDEST DUP1 ISZERO PUSH2 0xA4C JUMPI PUSH1 0x40 MLOAD PUSH32 0x8C379A000000000000000000000000000000000000000000000000000000000 DUP2 MSTORE PUSH1 0x4 ADD PUSH2 0xA43 SWAP1 PUSH2 0x241C JUMP JUMPDEST PUSH1 0x40 MLOAD DUP1 SWAP2 SUB SWAP1 REVERT JUMPDEST PUSH1 0x4 DUP3 SWAP1 DUP1 PUSH1 0x1 DUP2 SLOAD ADD DUP1 DUP3 SSTORE DUP1 SWAP2 POP POP PUSH1 0x1 SWAP1 SUB SWAP1 PUSH1 0x0 MSTORE PUSH1 0x20 PUSH1 0x0 KECCAK256 ADD PUSH1 0x0 SWAP1 SWAP2 SWAP1 SWAP2 SWAP1 SWAP2 PUSH2 0x100 EXP DUP2 SLOAD DUP2 PUSH20 0xFFFFFFFFFFFFFFFFFFFFFFFFFFFFFFFFFFFFFFFF MUL NOT AND SWAP1 DUP4 PUSH20 0xFFFFFFFFFFFFFFFFFFFFFFFFFFFFFFFFFFFFFFFF AND MUL OR SWAP1 SSTORE POP POP POP JUMP JUMPDEST PUSH1 0x1 DUP2 DUP2 SLOAD DUP2 LT PUSH2 0xAC3 JUMPI PUSH1 0x0 DUP1 REVERT JUMPDEST SWAP1 PUSH1 0x0 MSTORE PUSH1 0x20 PUSH1 0x0 KECCAK256 SWAP1 PUSH1 0x3 MUL ADD PUSH1 0x0 SWAP2 POP SWAP1 POP DUP1 PUSH1 0x0 ADD DUP1 SLOAD PUSH2 0xAE6 SWAP1 PUSH2 0x20B4 JUMP JUMPDEST DUP1 PUSH1 0x1F ADD PUSH1 0x20 DUP1 SWAP2 DIV MUL PUSH1 0x20 ADD PUSH1 0x40 MLOAD SWAP1 DUP2 ADD PUSH1 0x40 MSTORE DUP1 SWAP3 SWAP2 SWAP1 DUP2 DUP2 MSTORE PUSH1 0x20 ADD DUP3 DUP1 SLOAD PUSH2 0xB12 SWAP1 PUSH2 0x20B4 JUMP JUMPDEST DUP1 ISZERO PUSH2 0xB5F JUMPI DUP1 PUSH1 0x1F LT PUSH2 0xB34 JUMPI PUSH2 0x100 DUP1 DUP4 SLOAD DIV MUL DUP4 MSTORE SWAP2 PUSH1 0x20 ADD SWAP2 PUSH2 0xB5F JUMP JUMPDEST DUP3 ADD SWAP2 SWAP1 PUSH1 0x0 MSTORE PUSH1 0x20 PUSH1 0x0 KECCAK256 SWAP1 JUMPDEST DUP2 SLOAD DUP2 MSTORE SWAP1 PUSH1 0x1 ADD SWAP1 PUSH1 0x20 ADD DUP1 DUP4 GT PUSH2 0xB42 JUMPI DUP3 SWAP1 SUB PUSH1 0x1F AND DUP3 ADD SWAP2 JUMPDEST POP POP POP POP POP SWAP1 DUP1 PUSH1 0x1 ADD PUSH1 0x0 SWAP1 SLOAD SWAP1 PUSH2 0x100 EXP SWAP1 DIV PUSH20 0xFFFFFFFFFFFFFFFFFFFFFFFFFFFFFFFFFFFFFFFF AND SWAP1 DUP1 PUSH1 0x2 ADD SLOAD SWAP1 POP DUP4 JUMP JUMPDEST PUSH1 0x0 PUSH20 0xFFFFFFFFFFFFFFFFFFFFFFFFFFFFFFFFFFFFFFFF AND PUSH1 0x6 PUSH1 0x0 DUP5 DUP2 MSTORE PUSH1 0x20 ADD SWAP1 DUP2 MSTORE PUSH1 0x20 ADD PUSH1 0x0 KECCAK256 PUSH1 0x3 ADD PUSH1 0x0 SWAP1 SLOAD SWAP1 PUSH2 0x100 EXP SWAP1 DIV PUSH20 0xFFFFFFFFFFFFFFFFFFFFFFFFFFFFFFFFFFFFFFFF AND PUSH20 0xFFFFFFFFFFFFFFFFFFFFFFFFFFFFFFFFFFFFFFFF AND EQ PUSH2 0xC3A JUMPI PUSH1 0x40 MLOAD PUSH32 0x8C379A000000000000000000000000000000000000000000000000000000000 DUP2 MSTORE PUSH1 0x4 ADD PUSH2 0xC31 SWAP1 PUSH2 0x2488 JUMP JUMPDEST PUSH1 0x40 MLOAD DUP1 SWAP2 SUB SWAP1 REVERT JUMPDEST DUP1 PUSH1 0x6 PUSH1 0x0 DUP5 DUP2 MSTORE PUSH1 0x20 ADD SWAP1 DUP2 MSTORE PUSH1 0x20 ADD PUSH1 0x0 KECCAK256 PUSH1 0x3 ADD PUSH1 0x0 PUSH2 0x100 EXP DUP2 SLOAD DUP2 PUSH20 0xFFFFFFFFFFFFFFFFFFFFFFFFFFFFFFFFFFFFFFFF MUL NOT AND SWAP1 DUP4 PUSH20 0xFFFFFFFFFFFFFFFFFFFFFFFFFFFFFFFFFFFFFFFF AND MUL OR SWAP1 SSTORE POP POP POP JUMP JUMPDEST PUSH1 0x6 PUSH1 0x0 DUP3 DUP2 MSTORE PUSH1 0x20 ADD SWAP1 DUP2 MSTORE PUSH1 0x20 ADD PUSH1 0x0 KECCAK256 PUSH1 0x7 ADD PUSH1 0x0 SWAP1 SLOAD SWAP1 PUSH2 0x100 EXP SWAP1 DIV PUSH1 0xFF AND PUSH2 0xCF6 JUMPI PUSH1 0x40 MLOAD PUSH32 0x8C379A000000000000000000000000000000000000000000000000000000000 DUP2 MSTORE PUSH1 0x4 ADD PUSH2 0xCED SWAP1 PUSH2 0x24F4 JUMP JUMPDEST PUSH1 0x40 MLOAD DUP1 SWAP2 SUB SWAP1 REVERT JUMPDEST PUSH1 0x1 PUSH1 0x6 PUSH1 0x0 DUP4 DUP2 MSTORE PUSH1 0x20 ADD SWAP1 DUP2 MSTORE PUSH1 0x20 ADD PUSH1 0x0 KECCAK256 PUSH1 0x7 ADD PUSH1 0x1 PUSH2 0x100 EXP DUP2 SLOAD DUP2 PUSH1 0xFF MUL NOT AND SWAP1 DUP4 ISZERO ISZERO MUL OR SWAP1 SSTORE POP POP JUMP JUMPDEST PUSH1 0x0 DUP1 SLOAD SWAP1 PUSH2 0x100 EXP SWAP1 DIV PUSH20 0xFFFFFFFFFFFFFFFFFFFFFFFFFFFFFFFFFFFFFFFF AND DUP2 JUMP JUMPDEST PUSH1 0x5 PUSH1 0x20 MSTORE DUP1 PUSH1 0x0 MSTORE PUSH1 0x40 PUSH1 0x0 KECCAK256 PUSH1 0x0 SWAP2 POP SLOAD SWAP1 PUSH2 0x100 EXP SWAP1 DIV PUSH1 0xFF AND DUP2 JUMP JUMPDEST PUSH1 0x0 DUP1 SLOAD SWAP1 PUSH2 0x100 EXP SWAP1 DIV PUSH20 0xFFFFFFFFFFFFFFFFFFFFFFFFFFFFFFFFFFFFFFFF AND PUSH20 0xFFFFFFFFFFFFFFFFFFFFFFFFFFFFFFFFFFFFFFFF AND PUSH4 0x23B872DD DUP5 DUP5 DUP5 PUSH1 0x40 MLOAD DUP5 PUSH4 0xFFFFFFFF AND PUSH1 0xE0 SHL DUP2 MSTORE PUSH1 0x4 ADD PUSH2 0xDC9 SWAP4 SWAP3 SWAP2 SWAP1 PUSH2 0x2514 JUMP JUMPDEST PUSH1 0x20 PUSH1 0x40 MLOAD DUP1 DUP4 SUB DUP2 PUSH1 0x0 DUP8 GAS CALL ISZERO DUP1 ISZERO PUSH2 0xDE8 JUMPI RETURNDATASIZE PUSH1 0x0 DUP1 RETURNDATACOPY RETURNDATASIZE PUSH1 0x0 REVERT JUMPDEST POP POP POP POP PUSH1 0x40 MLOAD RETURNDATASIZE PUSH1 0x1F NOT PUSH1 0x1F DUP3 ADD AND DUP3 ADD DUP1 PUSH1 0x40 MSTORE POP DUP2 ADD SWAP1 PUSH2 0xE0C SWAP2 SWAP1 PUSH2 0x2577 JUMP JUMPDEST POP POP POP POP JUMP JUMPDEST PUSH1 0x5 PUSH1 0x0 DUP3 PUSH1 0x20 ADD MLOAD PUSH20 0xFFFFFFFFFFFFFFFFFFFFFFFFFFFFFFFFFFFFFFFF AND PUSH20 0xFFFFFFFFFFFFFFFFFFFFFFFFFFFFFFFFFFFFFFFF AND DUP2 MSTORE PUSH1 0x20 ADD SWAP1 DUP2 MSTORE PUSH1 0x20 ADD PUSH1 0x0 KECCAK256 PUSH1 0x0 SWAP1 SLOAD SWAP1 PUSH2 0x100 EXP SWAP1 DIV PUSH1 0xFF AND ISZERO PUSH2 0xEA3 JUMPI PUSH1 0x40 MLOAD PUSH32 0x8C379A000000000000000000000000000000000000000000000000000000000 DUP2 MSTORE PUSH1 0x4 ADD PUSH2 0xE9A SWAP1 PUSH2 0x25F0 JUMP JUMPDEST PUSH1 0x40 MLOAD DUP1 SWAP2 SUB SWAP1 REVERT JUMPDEST PUSH1 0x1 DUP2 SWAP1 DUP1 PUSH1 0x1 DUP2 SLOAD ADD DUP1 DUP3 SSTORE DUP1 SWAP2 POP POP PUSH1 0x1 SWAP1 SUB SWAP1 PUSH1 0x0 MSTORE PUSH1 0x20 PUSH1 0x0 KECCAK256 SWAP1 PUSH1 0x3 MUL ADD PUSH1 0x0 SWAP1 SWAP2 SWAP1 SWAP2 SWAP1 SWAP2 POP PUSH1 0x0 DUP3 ADD MLOAD DUP2 PUSH1 0x0 ADD SWAP1 DUP2 PUSH2 0xEE4 SWAP2 SWAP1 PUSH2 0x2287 JUMP JUMPDEST POP PUSH1 0x20 DUP3 ADD MLOAD DUP2 PUSH1 0x1 ADD PUSH1 0x0 PUSH2 0x100 EXP DUP2 SLOAD DUP2 PUSH20 0xFFFFFFFFFFFFFFFFFFFFFFFFFFFFFFFFFFFFFFFF MUL NOT AND SWAP1 DUP4 PUSH20 0xFFFFFFFFFFFFFFFFFFFFFFFFFFFFFFFFFFFFFFFF AND MUL OR SWAP1 SSTORE POP PUSH1 0x40 DUP3 ADD MLOAD DUP2 PUSH1 0x2 ADD SSTORE POP POP PUSH1 0x1 PUSH1 0x5 PUSH1 0x0 DUP4 PUSH1 0x20 ADD MLOAD PUSH20 0xFFFFFFFFFFFFFFFFFFFFFFFFFFFFFFFFFFFFFFFF AND PUSH20 0xFFFFFFFFFFFFFFFFFFFFFFFFFFFFFFFFFFFFFFFF AND DUP2 MSTORE PUSH1 0x20 ADD SWAP1 DUP2 MSTORE PUSH1 0x20 ADD PUSH1 0x0 KECCAK256 PUSH1 0x0 PUSH2 0x100 EXP DUP2 SLOAD DUP2 PUSH1 0xFF MUL NOT AND SWAP1 DUP4 ISZERO ISZERO MUL OR SWAP1 SSTORE POP POP JUMP JUMPDEST PUSH1 0x7 SLOAD DUP2 JUMP JUMPDEST PUSH1 0x0 DUP1 SLOAD SWAP1 PUSH2 0x100 EXP SWAP1 DIV PUSH20 0xFFFFFFFFFFFFFFFFFFFFFFFFFFFFFFFFFFFFFFFF AND PUSH20 0xFFFFFFFFFFFFFFFFFFFFFFFFFFFFFFFFFFFFFFFF AND PUSH4 0x95EA7B3 ADDRESS DUP4 PUSH1 0x40 MLOAD DUP4 PUSH4 0xFFFFFFFF AND PUSH1 0xE0 SHL DUP2 MSTORE PUSH1 0x4 ADD PUSH2 0xFF8 SWAP3 SWAP2 SWAP1 PUSH2 0x2610 JUMP JUMPDEST PUSH1 0x20 PUSH1 0x40 MLOAD DUP1 DUP4 SUB DUP2 PUSH1 0x0 DUP8 GAS CALL ISZERO DUP1 ISZERO PUSH2 0x1017 JUMPI RETURNDATASIZE PUSH1 0x0 DUP1 RETURNDATACOPY RETURNDATASIZE PUSH1 0x0 REVERT JUMPDEST POP POP POP POP PUSH1 0x40 MLOAD RETURNDATASIZE PUSH1 0x1F NOT PUSH1 0x1F DUP3 ADD AND DUP3 ADD DUP1 PUSH1 0x40 MSTORE POP DUP2 ADD SWAP1 PUSH2 0x103B SWAP2 SWAP1 PUSH2 0x2577 JUMP JUMPDEST POP POP JUMP JUMPDEST CALLER PUSH20 0xFFFFFFFFFFFFFFFFFFFFFFFFFFFFFFFFFFFFFFFF AND PUSH1 0x6 PUSH1 0x0 DUP4 DUP2 MSTORE PUSH1 0x20 ADD SWAP1 DUP2 MSTORE PUSH1 0x20 ADD PUSH1 0x0 KECCAK256 PUSH1 0x3 ADD PUSH1 0x0 SWAP1 SLOAD SWAP1 PUSH2 0x100 EXP SWAP1 DIV PUSH20 0xFFFFFFFFFFFFFFFFFFFFFFFFFFFFFFFFFFFFFFFF AND PUSH20 0xFFFFFFFFFFFFFFFFFFFFFFFFFFFFFFFFFFFFFFFF AND EQ PUSH2 0x10E3 JUMPI PUSH1 0x40 MLOAD PUSH32 0x8C379A000000000000000000000000000000000000000000000000000000000 DUP2 MSTORE PUSH1 0x4 ADD PUSH2 0x10DA SWAP1 PUSH2 0x26AB JUMP JUMPDEST PUSH1 0x40 MLOAD DUP1 SWAP2 SUB SWAP1 REVERT JUMPDEST PUSH1 0x1 PUSH1 0x6 PUSH1 0x0 DUP4 DUP2 MSTORE PUSH1 0x20 ADD SWAP1 DUP2 MSTORE PUSH1 0x20 ADD PUSH1 0x0 KECCAK256 PUSH1 0x7 ADD PUSH1 0x0 PUSH2 0x100 EXP DUP2 SLOAD DUP2 PUSH1 0xFF MUL NOT AND SWAP1 DUP4 ISZERO ISZERO MUL OR SWAP1 SSTORE POP POP JUMP JUMPDEST PUSH1 0x0 DUP1 PUSH1 0x0 SWAP1 POP PUSH1 0x0 JUMPDEST PUSH1 0x4 DUP1 SLOAD SWAP1 POP DUP2 LT ISZERO PUSH2 0x11B3 JUMPI DUP4 PUSH20 0xFFFFFFFFFFFFFFFFFFFFFFFFFFFFFFFFFFFFFFFF AND PUSH1 0x4 DUP3 DUP2 SLOAD DUP2 LT PUSH2 0x1157 JUMPI PUSH2 0x1156 PUSH2 0x26CB JUMP JUMPDEST JUMPDEST SWAP1 PUSH1 0x0 MSTORE PUSH1 0x20 PUSH1 0x0 KECCAK256 ADD PUSH1 0x0 SWAP1 SLOAD SWAP1 PUSH2 0x100 EXP SWAP1 DIV PUSH20 0xFFFFFFFFFFFFFFFFFFFFFFFFFFFFFFFFFFFFFFFF AND PUSH20 0xFFFFFFFFFFFFFFFFFFFFFFFFFFFFFFFFFFFFFFFF AND SUB PUSH2 0x11A6 JUMPI PUSH1 0x1 SWAP2 POP PUSH2 0x11B3 JUMP JUMPDEST DUP1 DUP1 PUSH1 0x1 ADD SWAP2 POP POP PUSH2 0x111F JUMP JUMPDEST POP DUP1 SWAP2 POP POP SWAP2 SWAP1 POP JUMP JUMPDEST PUSH1 0x6 PUSH1 0x20 MSTORE DUP1 PUSH1 0x0 MSTORE PUSH1 0x40 PUSH1 0x0 KECCAK256 PUSH1 0x0 SWAP2 POP SWAP1 POP DUP1 PUSH1 0x0 ADD SLOAD SWAP1 DUP1 PUSH1 0x1 ADD DUP1 SLOAD PUSH2 0x11E6 SWAP1 PUSH2 0x20B4 JUMP JUMPDEST DUP1 PUSH1 0x1F ADD PUSH1 0x20 DUP1 SWAP2 DIV MUL PUSH1 0x20 ADD PUSH1 0x40 MLOAD SWAP1 DUP2 ADD PUSH1 0x40 MSTORE DUP1 SWAP3 SWAP2 SWAP1 DUP2 DUP2 MSTORE PUSH1 0x20 ADD DUP3 DUP1 SLOAD PUSH2 0x1212 SWAP1 PUSH2 0x20B4 JUMP JUMPDEST DUP1 ISZERO PUSH2 0x125F JUMPI DUP1 PUSH1 0x1F LT PUSH2 0x1234 JUMPI PUSH2 0x100 DUP1 DUP4 SLOAD DIV MUL DUP4 MSTORE SWAP2 PUSH1 0x20 ADD SWAP2 PUSH2 0x125F JUMP JUMPDEST DUP3 ADD SWAP2 SWAP1 PUSH1 0x0 MSTORE PUSH1 0x20 PUSH1 0x0 KECCAK256 SWAP1 JUMPDEST DUP2 SLOAD DUP2 MSTORE SWAP1 PUSH1 0x1 ADD SWAP1 PUSH1 0x20 ADD DUP1 DUP4 GT PUSH2 0x1242 JUMPI DUP3 SWAP1 SUB PUSH1 0x1F AND DUP3 ADD SWAP2 JUMPDEST POP POP POP POP POP SWAP1 DUP1 PUSH1 0x2 ADD DUP1 SLOAD PUSH2 0x1274 SWAP1 PUSH2 0x20B4 JUMP JUMPDEST DUP1 PUSH1 0x1F ADD PUSH1 0x20 DUP1 SWAP2 DIV MUL PUSH1 0x20 ADD PUSH1 0x40 MLOAD SWAP1 DUP2 ADD PUSH1 0x40 MSTORE DUP1 SWAP3 SWAP2 SWAP1 DUP2 DUP2 MSTORE PUSH1 0x20 ADD DUP3 DUP1 SLOAD PUSH2 0x12A0 SWAP1 PUSH2 0x20B4 JUMP JUMPDEST DUP1 ISZERO PUSH2 0x12ED JUMPI DUP1 PUSH1 0x1F LT PUSH2 0x12C2 JUMPI PUSH2 0x100 DUP1 DUP4 SLOAD DIV MUL DUP4 MSTORE SWAP2 PUSH1 0x20 ADD SWAP2 PUSH2 0x12ED JUMP JUMPDEST DUP3 ADD SWAP2 SWAP1 PUSH1 0x0 MSTORE PUSH1 0x20 PUSH1 0x0 KECCAK256 SWAP1 JUMPDEST DUP2 SLOAD DUP2 MSTORE SWAP1 PUSH1 0x1 ADD SWAP1 PUSH1 0x20 ADD DUP1 DUP4 GT PUSH2 0x12D0 JUMPI DUP3 SWAP1 SUB PUSH1 0x1F AND DUP3 ADD SWAP2 JUMPDEST POP POP POP POP POP SWAP1 DUP1 PUSH1 0x3 ADD PUSH1 0x0 SWAP1 SLOAD SWAP1 PUSH2 0x100 EXP SWAP1 DIV PUSH20 0xFFFFFFFFFFFFFFFFFFFFFFFFFFFFFFFFFFFFFFFF AND SWAP1 DUP1 PUSH1 0x4 ADD SLOAD SWAP1 DUP1 PUSH1 0x5 ADD SLOAD SWAP1 DUP1 PUSH1 0x6 ADD SLOAD SWAP1 DUP1 PUSH1 0x7 ADD PUSH1 0x0 SWAP1 SLOAD SWAP1 PUSH2 0x100 EXP SWAP1 DIV PUSH1 0xFF AND SWAP1 DUP1 PUSH1 0x7 ADD PUSH1 0x1 SWAP1 SLOAD SWAP1 PUSH2 0x100 EXP SWAP1 DIV PUSH1 0xFF AND SWAP1 DUP1 PUSH1 0x7 ADD PUSH1 0x2 SWAP1 SLOAD SWAP1 PUSH2 0x100 EXP SWAP1 DIV PUSH1 0xFF AND SWAP1 POP DUP11 JUMP JUMPDEST PUSH1 0x60 PUSH1 0x0 JUMPDEST PUSH1 0x1 DUP1 SLOAD SWAP1 POP DUP2 LT ISZERO PUSH2 0x1507 JUMPI DUP3 PUSH20 0xFFFFFFFFFFFFFFFFFFFFFFFFFFFFFFFFFFFFFFFF AND PUSH1 0x2 PUSH1 0x0 PUSH1 0x1 DUP5 DUP2 SLOAD DUP2 LT PUSH2 0x13A9 JUMPI PUSH2 0x13A8 PUSH2 0x26CB JUMP JUMPDEST JUMPDEST SWAP1 PUSH1 0x0 MSTORE PUSH1 0x20 PUSH1 0x0 KECCAK256 SWAP1 PUSH1 0x3 MUL ADD PUSH1 0x1 ADD PUSH1 0x0 SWAP1 SLOAD SWAP1 PUSH2 0x100 EXP SWAP1 DIV PUSH20 0xFFFFFFFFFFFFFFFFFFFFFFFFFFFFFFFFFFFFFFFF AND PUSH20 0xFFFFFFFFFFFFFFFFFFFFFFFFFFFFFFFFFFFFFFFF AND PUSH20 0xFFFFFFFFFFFFFFFFFFFFFFFFFFFFFFFFFFFFFFFF AND DUP2 MSTORE PUSH1 0x20 ADD SWAP1 DUP2 MSTORE PUSH1 0x20 ADD PUSH1 0x0 KECCAK256 PUSH1 0x0 SWAP1 SLOAD SWAP1 PUSH2 0x100 EXP SWAP1 DIV PUSH20 0xFFFFFFFFFFFFFFFFFFFFFFFFFFFFFFFFFFFFFFFF AND PUSH20 0xFFFFFFFFFFFFFFFFFFFFFFFFFFFFFFFFFFFFFFFF AND SUB PUSH2 0x14FA JUMPI PUSH1 0x3 PUSH1 0x1 DUP3 DUP2 SLOAD DUP2 LT PUSH2 0x1467 JUMPI PUSH2 0x1466 PUSH2 0x26CB JUMP JUMPDEST JUMPDEST SWAP1 PUSH1 0x0 MSTORE PUSH1 0x20 PUSH1 0x0 KECCAK256 SWAP1 PUSH1 0x3 MUL ADD PUSH1 0x1 ADD PUSH1 0x0 SWAP1 SLOAD SWAP1 PUSH2 0x100 EXP SWAP1 DIV PUSH20 0xFFFFFFFFFFFFFFFFFFFFFFFFFFFFFFFFFFFFFFFF AND SWAP1 DUP1 PUSH1 0x1 DUP2 SLOAD ADD DUP1 DUP3 SSTORE DUP1 SWAP2 POP POP PUSH1 0x1 SWAP1 SUB SWAP1 PUSH1 0x0 MSTORE PUSH1 0x20 PUSH1 0x0 KECCAK256 ADD PUSH1 0x0 SWAP1 SWAP2 SWAP1 SWAP2 SWAP1 SWAP2 PUSH2 0x100 EXP DUP2 SLOAD DUP2 PUSH20 0xFFFFFFFFFFFFFFFFFFFFFFFFFFFFFFFFFFFFFFFF MUL NOT AND SWAP1 DUP4 PUSH20 0xFFFFFFFFFFFFFFFFFFFFFFFFFFFFFFFFFFFFFFFF AND MUL OR SWAP1 SSTORE POP JUMPDEST DUP1 DUP1 PUSH1 0x1 ADD SWAP2 POP POP PUSH2 0x136D JUMP JUMPDEST POP PUSH1 0x3 DUP1 SLOAD DUP1 PUSH1 0x20 MUL PUSH1 0x20 ADD PUSH1 0x40 MLOAD SWAP1 DUP2 ADD PUSH1 0x40 MSTORE DUP1 SWAP3 SWAP2 SWAP1 DUP2 DUP2 MSTORE PUSH1 0x20 ADD DUP3 DUP1 SLOAD DUP1 ISZERO PUSH2 0x158A JUMPI PUSH1 0x20 MUL DUP3 ADD SWAP2 SWAP1 PUSH1 0x0 MSTORE PUSH1 0x20 PUSH1 0x0 KECCAK256 SWAP1 JUMPDEST DUP2 PUSH1 0x0 SWAP1 SLOAD SWAP1 PUSH2 0x100 EXP SWAP1 DIV PUSH20 0xFFFFFFFFFFFFFFFFFFFFFFFFFFFFFFFFFFFFFFFF AND PUSH20 0xFFFFFFFFFFFFFFFFFFFFFFFFFFFFFFFFFFFFFFFF AND DUP2 MSTORE PUSH1 0x20 ADD SWAP1 PUSH1 0x1 ADD SWAP1 DUP1 DUP4 GT PUSH2 0x1540 JUMPI JUMPDEST POP POP POP POP POP SWAP1 POP SWAP2 SWAP1 POP JUMP JUMPDEST PUSH1 0x3 DUP2 DUP2 SLOAD DUP2 LT PUSH2 0x15A6 JUMPI PUSH1 0x0 DUP1 REVERT JUMPDEST SWAP1 PUSH1 0x0 MSTORE PUSH1 0x20 PUSH1 0x0 KECCAK256 ADD PUSH1 0x0 SWAP2 POP SLOAD SWAP1 PUSH2 0x100 EXP SWAP1 DIV PUSH20 0xFFFFFFFFFFFFFFFFFFFFFFFFFFFFFFFFFFFFFFFF AND DUP2 JUMP JUMPDEST PUSH1 0x40 MLOAD DUP1 PUSH2 0x140 ADD PUSH1 0x40 MSTORE DUP1 PUSH1 0x0 DUP2 MSTORE PUSH1 0x20 ADD PUSH1 0x60 DUP2 MSTORE PUSH1 0x20 ADD PUSH1 0x60 DUP2 MSTORE PUSH1 0x20 ADD PUSH1 0x0 PUSH20 0xFFFFFFFFFFFFFFFFFFFFFFFFFFFFFFFFFFFFFFFF AND DUP2 MSTORE PUSH1 0x20 ADD PUSH1 0x0 DUP2 MSTORE PUSH1 0x20 ADD PUSH1 0x0 DUP2 MSTORE PUSH1 0x20 ADD PUSH1 0x0 DUP2 MSTORE PUSH1 0x20 ADD PUSH1 0x0 ISZERO ISZERO DUP2 MSTORE PUSH1 0x20 ADD PUSH1 0x0 ISZERO ISZERO DUP2 MSTORE PUSH1 0x20 ADD PUSH1 0x0 ISZERO ISZERO DUP2 MSTORE POP SWAP1 JUMP JUMPDEST PUSH1 0x0 PUSH1 0x40 MLOAD SWAP1 POP SWAP1 JUMP JUMPDEST PUSH1 0x0 DUP1 REVERT JUMPDEST PUSH1 0x0 DUP1 REVERT JUMPDEST PUSH1 0x0 DUP2 SWAP1 POP SWAP2 SWAP1 POP JUMP JUMPDEST PUSH2 0x166B DUP2 PUSH2 0x1658 JUMP JUMPDEST DUP2 EQ PUSH2 0x1676 JUMPI PUSH1 0x0 DUP1 REVERT JUMPDEST POP JUMP JUMPDEST PUSH1 0x0 DUP2 CALLDATALOAD SWAP1 POP PUSH2 0x1688 DUP2 PUSH2 0x1662 JUMP JUMPDEST SWAP3 SWAP2 POP POP JUMP JUMPDEST PUSH1 0x0 PUSH1 0x20 DUP3 DUP5 SUB SLT ISZERO PUSH2 0x16A4 JUMPI PUSH2 0x16A3 PUSH2 0x164E JUMP JUMPDEST JUMPDEST PUSH1 0x0 PUSH2 0x16B2 DUP5 DUP3 DUP6 ADD PUSH2 0x1679 JUMP JUMPDEST SWAP2 POP POP SWAP3 SWAP2 POP POP JUMP JUMPDEST PUSH1 0x0 PUSH20 0xFFFFFFFFFFFFFFFFFFFFFFFFFFFFFFFFFFFFFFFF DUP3 AND SWAP1 POP SWAP2 SWAP1 POP JUMP JUMPDEST PUSH1 0x0 PUSH2 0x16E6 DUP3 PUSH2 0x16BB JUMP JUMPDEST SWAP1 POP SWAP2 SWAP1 POP JUMP JUMPDEST PUSH2 0x16F6 DUP2 PUSH2 0x16DB JUMP JUMPDEST DUP2 EQ PUSH2 0x1701 JUMPI PUSH1 0x0 DUP1 REVERT JUMPDEST POP JUMP JUMPDEST PUSH1 0x0 DUP2 CALLDATALOAD SWAP1 POP PUSH2 0x1713 DUP2 PUSH2 0x16ED JUMP JUMPDEST SWAP3 SWAP2 POP POP JUMP JUMPDEST PUSH1 0x0 PUSH1 0x20 DUP3 DUP5 SUB SLT ISZERO PUSH2 0x172F JUMPI PUSH2 0x172E PUSH2 0x164E JUMP JUMPDEST JUMPDEST PUSH1 0x0 PUSH2 0x173D DUP5 DUP3 DUP6 ADD PUSH2 0x1704 JUMP JUMPDEST SWAP2 POP POP SWAP3 SWAP2 POP POP JUMP JUMPDEST PUSH2 0x174F DUP2 PUSH2 0x16DB JUMP JUMPDEST DUP3 MSTORE POP POP JUMP JUMPDEST PUSH1 0x0 PUSH1 0x20 DUP3 ADD SWAP1 POP PUSH2 0x176A PUSH1 0x0 DUP4 ADD DUP5 PUSH2 0x1746 JUMP JUMPDEST SWAP3 SWAP2 POP POP JUMP JUMPDEST PUSH1 0x0 DUP1 REVERT JUMPDEST PUSH1 0x0 DUP1 REVERT JUMPDEST PUSH1 0x0 PUSH1 0x1F NOT PUSH1 0x1F DUP4 ADD AND SWAP1 POP SWAP2 SWAP1 POP JUMP JUMPDEST PUSH32 0x4E487B7100000000000000000000000000000000000000000000000000000000 PUSH1 0x0 MSTORE PUSH1 0x41 PUSH1 0x4 MSTORE PUSH1 0x24 PUSH1 0x0 REVERT JUMPDEST PUSH2 0x17C3 DUP3 PUSH2 0x177A JUMP JUMPDEST DUP2 ADD DUP2 DUP2 LT PUSH8 0xFFFFFFFFFFFFFFFF DUP3 GT OR ISZERO PUSH2 0x17E2 JUMPI PUSH2 0x17E1 PUSH2 0x178B JUMP JUMPDEST JUMPDEST DUP1 PUSH1 0x40 MSTORE POP POP POP JUMP JUMPDEST PUSH1 0x0 PUSH2 0x17F5 PUSH2 0x1644 JUMP JUMPDEST SWAP1 POP PUSH2 0x1801 DUP3 DUP3 PUSH2 0x17BA JUMP JUMPDEST SWAP2 SWAP1 POP JUMP JUMPDEST PUSH1 0x0 PUSH8 0xFFFFFFFFFFFFFFFF DUP3 GT ISZERO PUSH2 0x1821 JUMPI PUSH2 0x1820 PUSH2 0x178B JUMP JUMPDEST JUMPDEST PUSH2 0x182A DUP3 PUSH2 0x177A JUMP JUMPDEST SWAP1 POP PUSH1 0x20 DUP2 ADD SWAP1 POP SWAP2 SWAP1 POP JUMP JUMPDEST DUP3 DUP2 DUP4 CALLDATACOPY PUSH1 0x0 DUP4 DUP4 ADD MSTORE POP POP POP JUMP JUMPDEST PUSH1 0x0 PUSH2 0x1859 PUSH2 0x1854 DUP5 PUSH2 0x1806 JUMP JUMPDEST PUSH2 0x17EB JUMP JUMPDEST SWAP1 POP DUP3 DUP2 MSTORE PUSH1 0x20 DUP2 ADD DUP5 DUP5 DUP5 ADD GT ISZERO PUSH2 0x1875 JUMPI PUSH2 0x1874 PUSH2 0x1775 JUMP JUMPDEST JUMPDEST PUSH2 0x1880 DUP5 DUP3 DUP6 PUSH2 0x1837 JUMP JUMPDEST POP SWAP4 SWAP3 POP POP POP JUMP JUMPDEST PUSH1 0x0 DUP3 PUSH1 0x1F DUP4 ADD SLT PUSH2 0x189D JUMPI PUSH2 0x189C PUSH2 0x1770 JUMP JUMPDEST JUMPDEST DUP2 CALLDATALOAD PUSH2 0x18AD DUP5 DUP3 PUSH1 0x20 DUP7 ADD PUSH2 0x1846 JUMP JUMPDEST SWAP2 POP POP SWAP3 SWAP2 POP POP JUMP JUMPDEST PUSH1 0x0 DUP1 PUSH1 0x0 DUP1 PUSH1 0x0 DUP1 PUSH1 0xC0 DUP8 DUP10 SUB SLT ISZERO PUSH2 0x18D3 JUMPI PUSH2 0x18D2 PUSH2 0x164E JUMP JUMPDEST JUMPDEST PUSH1 0x0 DUP8 ADD CALLDATALOAD PUSH8 0xFFFFFFFFFFFFFFFF DUP2 GT ISZERO PUSH2 0x18F1 JUMPI PUSH2 0x18F0 PUSH2 0x1653 JUMP JUMPDEST JUMPDEST PUSH2 0x18FD DUP10 DUP3 DUP11 ADD PUSH2 0x1888 JUMP JUMPDEST SWAP7 POP POP PUSH1 0x20 DUP8 ADD CALLDATALOAD PUSH8 0xFFFFFFFFFFFFFFFF DUP2 GT ISZERO PUSH2 0x191E JUMPI PUSH2 0x191D PUSH2 0x1653 JUMP JUMPDEST JUMPDEST PUSH2 0x192A DUP10 DUP3 DUP11 ADD PUSH2 0x1888 JUMP JUMPDEST SWAP6 POP POP PUSH1 0x40 PUSH2 0x193B DUP10 DUP3 DUP11 ADD PUSH2 0x1704 JUMP JUMPDEST SWAP5 POP POP PUSH1 0x60 PUSH2 0x194C DUP10 DUP3 DUP11 ADD PUSH2 0x1679 JUMP JUMPDEST SWAP4 POP POP PUSH1 0x80 PUSH2 0x195D DUP10 DUP3 DUP11 ADD PUSH2 0x1679 JUMP JUMPDEST SWAP3 POP POP PUSH1 0xA0 PUSH2 0x196E DUP10 DUP3 DUP11 ADD PUSH2 0x1679 JUMP JUMPDEST SWAP2 POP POP SWAP3 SWAP6 POP SWAP3 SWAP6 POP SWAP3 SWAP6 JUMP JUMPDEST PUSH2 0x1984 DUP2 PUSH2 0x1658 JUMP JUMPDEST DUP3 MSTORE POP POP JUMP JUMPDEST PUSH1 0x0 PUSH1 0x20 DUP3 ADD SWAP1 POP PUSH2 0x199F PUSH1 0x0 DUP4 ADD DUP5 PUSH2 0x197B JUMP JUMPDEST SWAP3 SWAP2 POP POP JUMP JUMPDEST PUSH1 0x0 DUP1 PUSH1 0x40 DUP4 DUP6 SUB SLT ISZERO PUSH2 0x19BC JUMPI PUSH2 0x19BB PUSH2 0x164E JUMP JUMPDEST JUMPDEST PUSH1 0x0 PUSH2 0x19CA DUP6 DUP3 DUP7 ADD PUSH2 0x1704 JUMP JUMPDEST SWAP3 POP POP PUSH1 0x20 PUSH2 0x19DB DUP6 DUP3 DUP7 ADD PUSH2 0x1704 JUMP JUMPDEST SWAP2 POP POP SWAP3 POP SWAP3 SWAP1 POP JUMP JUMPDEST PUSH2 0x19EE DUP2 PUSH2 0x1658 JUMP JUMPDEST DUP3 MSTORE POP POP JUMP JUMPDEST PUSH1 0x0 DUP2 MLOAD SWAP1 POP SWAP2 SWAP1 POP JUMP JUMPDEST PUSH1 0x0 DUP3 DUP3 MSTORE PUSH1 0x20 DUP3 ADD SWAP1 POP SWAP3 SWAP2 POP POP JUMP JUMPDEST PUSH1 0x0 JUMPDEST DUP4 DUP2 LT ISZERO PUSH2 0x1A2E JUMPI DUP1 DUP3 ADD MLOAD DUP2 DUP5 ADD MSTORE PUSH1 0x20 DUP2 ADD SWAP1 POP PUSH2 0x1A13 JUMP JUMPDEST PUSH1 0x0 DUP5 DUP5 ADD MSTORE POP POP POP POP JUMP JUMPDEST PUSH1 0x0 PUSH2 0x1A45 DUP3 PUSH2 0x19F4 JUMP JUMPDEST PUSH2 0x1A4F DUP2 DUP6 PUSH2 0x19FF JUMP JUMPDEST SWAP4 POP PUSH2 0x1A5F DUP2 DUP6 PUSH1 0x20 DUP7 ADD PUSH2 0x1A10 JUMP JUMPDEST PUSH2 0x1A68 DUP2 PUSH2 0x177A JUMP JUMPDEST DUP5 ADD SWAP2 POP POP SWAP3 SWAP2 POP POP JUMP JUMPDEST PUSH2 0x1A7C DUP2 PUSH2 0x16DB JUMP JUMPDEST DUP3 MSTORE POP POP JUMP JUMPDEST PUSH1 0x0 DUP2 ISZERO ISZERO SWAP1 POP SWAP2 SWAP1 POP JUMP JUMPDEST PUSH2 0x1A97 DUP2 PUSH2 0x1A82 JUMP JUMPDEST DUP3 MSTORE POP POP JUMP JUMPDEST PUSH1 0x0 PUSH2 0x140 DUP4 ADD PUSH1 0x0 DUP4 ADD MLOAD PUSH2 0x1AB6 PUSH1 0x0 DUP7 ADD DUP3 PUSH2 0x19E5 JUMP JUMPDEST POP PUSH1 0x20 DUP4 ADD MLOAD DUP5 DUP3 SUB PUSH1 0x20 DUP7 ADD MSTORE PUSH2 0x1ACE DUP3 DUP3 PUSH2 0x1A3A JUMP JUMPDEST SWAP2 POP POP PUSH1 0x40 DUP4 ADD MLOAD DUP5 DUP3 SUB PUSH1 0x40 DUP7 ADD MSTORE PUSH2 0x1AE8 DUP3 DUP3 PUSH2 0x1A3A JUMP JUMPDEST SWAP2 POP POP PUSH1 0x60 DUP4 ADD MLOAD PUSH2 0x1AFD PUSH1 0x60 DUP7 ADD DUP3 PUSH2 0x1A73 JUMP JUMPDEST POP PUSH1 0x80 DUP4 ADD MLOAD PUSH2 0x1B10 PUSH1 0x80 DUP7 ADD DUP3 PUSH2 0x19E5 JUMP JUMPDEST POP PUSH1 0xA0 DUP4 ADD MLOAD PUSH2 0x1B23 PUSH1 0xA0 DUP7 ADD DUP3 PUSH2 0x19E5 JUMP JUMPDEST POP PUSH1 0xC0 DUP4 ADD MLOAD PUSH2 0x1B36 PUSH1 0xC0 DUP7 ADD DUP3 PUSH2 0x19E5 JUMP JUMPDEST POP PUSH1 0xE0 DUP4 ADD MLOAD PUSH2 0x1B49 PUSH1 0xE0 DUP7 ADD DUP3 PUSH2 0x1A8E JUMP JUMPDEST POP PUSH2 0x100 DUP4 ADD MLOAD PUSH2 0x1B5E PUSH2 0x100 DUP7 ADD DUP3 PUSH2 0x1A8E JUMP JUMPDEST POP PUSH2 0x120 DUP4 ADD MLOAD PUSH2 0x1B73 PUSH2 0x120 DUP7 ADD DUP3 PUSH2 0x1A8E JUMP JUMPDEST POP DUP1 SWAP2 POP POP SWAP3 SWAP2 POP POP JUMP JUMPDEST PUSH1 0x0 PUSH1 0x20 DUP3 ADD SWAP1 POP DUP2 DUP2 SUB PUSH1 0x0 DUP4 ADD MSTORE PUSH2 0x1B98 DUP2 DUP5 PUSH2 0x1A9D JUMP JUMPDEST SWAP1 POP SWAP3 SWAP2 POP POP JUMP JUMPDEST PUSH1 0x0 DUP3 DUP3 MSTORE PUSH1 0x20 DUP3 ADD SWAP1 POP SWAP3 SWAP2 POP POP JUMP JUMPDEST PUSH1 0x0 PUSH2 0x1BBC DUP3 PUSH2 0x19F4 JUMP JUMPDEST PUSH2 0x1BC6 DUP2 DUP6 PUSH2 0x1BA0 JUMP JUMPDEST SWAP4 POP PUSH2 0x1BD6 DUP2 DUP6 PUSH1 0x20 DUP7 ADD PUSH2 0x1A10 JUMP JUMPDEST PUSH2 0x1BDF DUP2 PUSH2 0x177A JUMP JUMPDEST DUP5 ADD SWAP2 POP POP SWAP3 SWAP2 POP POP JUMP JUMPDEST PUSH1 0x0 PUSH1 0x60 DUP3 ADD SWAP1 POP DUP2 DUP2 SUB PUSH1 0x0 DUP4 ADD MSTORE PUSH2 0x1C04 DUP2 DUP7 PUSH2 0x1BB1 JUMP JUMPDEST SWAP1 POP PUSH2 0x1C13 PUSH1 0x20 DUP4 ADD DUP6 PUSH2 0x1746 JUMP JUMPDEST PUSH2 0x1C20 PUSH1 0x40 DUP4 ADD DUP5 PUSH2 0x197B JUMP JUMPDEST SWAP5 SWAP4 POP POP POP POP JUMP JUMPDEST PUSH1 0x0 DUP1 PUSH1 0x40 DUP4 DUP6 SUB SLT ISZERO PUSH2 0x1C3F JUMPI PUSH2 0x1C3E PUSH2 0x164E JUMP JUMPDEST JUMPDEST PUSH1 0x0 PUSH2 0x1C4D DUP6 DUP3 DUP7 ADD PUSH2 0x1679 JUMP JUMPDEST SWAP3 POP POP PUSH1 0x20 PUSH2 0x1C5E DUP6 DUP3 DUP7 ADD PUSH2 0x1704 JUMP JUMPDEST SWAP2 POP POP SWAP3 POP SWAP3 SWAP1 POP JUMP JUMPDEST PUSH1 0x0 DUP2 SWAP1 POP SWAP2 SWAP1 POP JUMP JUMPDEST PUSH1 0x0 PUSH2 0x1C8D PUSH2 0x1C88 PUSH2 0x1C83 DUP5 PUSH2 0x16BB JUMP JUMPDEST PUSH2 0x1C68 JUMP JUMPDEST PUSH2 0x16BB JUMP JUMPDEST SWAP1 POP SWAP2 SWAP1 POP JUMP JUMPDEST PUSH1 0x0 PUSH2 0x1C9F DUP3 PUSH2 0x1C72 JUMP JUMPDEST SWAP1 POP SWAP2 SWAP1 POP JUMP JUMPDEST PUSH1 0x0 PUSH2 0x1CB1 DUP3 PUSH2 0x1C94 JUMP JUMPDEST SWAP1 POP SWAP2 SWAP1 POP JUMP JUMPDEST PUSH2 0x1CC1 DUP2 PUSH2 0x1CA6 JUMP JUMPDEST DUP3 MSTORE POP POP JUMP JUMPDEST PUSH1 0x0 PUSH1 0x20 DUP3 ADD SWAP1 POP PUSH2 0x1CDC PUSH1 0x0 DUP4 ADD DUP5 PUSH2 0x1CB8 JUMP JUMPDEST SWAP3 SWAP2 POP POP JUMP JUMPDEST PUSH2 0x1CEB DUP2 PUSH2 0x1A82 JUMP JUMPDEST DUP3 MSTORE POP POP JUMP JUMPDEST PUSH1 0x0 PUSH1 0x20 DUP3 ADD SWAP1 POP PUSH2 0x1D06 PUSH1 0x0 DUP4 ADD DUP5 PUSH2 0x1CE2 JUMP JUMPDEST SWAP3 SWAP2 POP POP JUMP JUMPDEST PUSH1 0x0 DUP1 PUSH1 0x0 PUSH1 0x60 DUP5 DUP7 SUB SLT ISZERO PUSH2 0x1D25 JUMPI PUSH2 0x1D24 PUSH2 0x164E JUMP JUMPDEST JUMPDEST PUSH1 0x0 PUSH2 0x1D33 DUP7 DUP3 DUP8 ADD PUSH2 0x1704 JUMP JUMPDEST SWAP4 POP POP PUSH1 0x20 PUSH2 0x1D44 DUP7 DUP3 DUP8 ADD PUSH2 0x1704 JUMP JUMPDEST SWAP3 POP POP PUSH1 0x40 PUSH2 0x1D55 DUP7 DUP3 DUP8 ADD PUSH2 0x1679 JUMP JUMPDEST SWAP2 POP POP SWAP3 POP SWAP3 POP SWAP3 JUMP JUMPDEST PUSH1 0x0 DUP1 REVERT JUMPDEST PUSH1 0x0 DUP1 REVERT JUMPDEST PUSH1 0x0 PUSH1 0x60 DUP3 DUP5 SUB SLT ISZERO PUSH2 0x1D7F JUMPI PUSH2 0x1D7E PUSH2 0x1D5F JUMP JUMPDEST JUMPDEST PUSH2 0x1D89 PUSH1 0x60 PUSH2 0x17EB JUMP JUMPDEST SWAP1 POP PUSH1 0x0 DUP3 ADD CALLDATALOAD PUSH8 0xFFFFFFFFFFFFFFFF DUP2 GT ISZERO PUSH2 0x1DA9 JUMPI PUSH2 0x1DA8 PUSH2 0x1D64 JUMP JUMPDEST JUMPDEST PUSH2 0x1DB5 DUP5 DUP3 DUP6 ADD PUSH2 0x1888 JUMP JUMPDEST PUSH1 0x0 DUP4 ADD MSTORE POP PUSH1 0x20 PUSH2 0x1DC9 DUP5 DUP3 DUP6 ADD PUSH2 0x1704 JUMP JUMPDEST PUSH1 0x20 DUP4 ADD MSTORE POP PUSH1 0x40 PUSH2 0x1DDD DUP5 DUP3 DUP6 ADD PUSH2 0x1679 JUMP JUMPDEST PUSH1 0x40 DUP4 ADD MSTORE POP SWAP3 SWAP2 POP POP JUMP JUMPDEST PUSH1 0x0 PUSH1 0x20 DUP3 DUP5 SUB SLT ISZERO PUSH2 0x1DFF JUMPI PUSH2 0x1DFE PUSH2 0x164E JUMP JUMPDEST JUMPDEST PUSH1 0x0 DUP3 ADD CALLDATALOAD PUSH8 0xFFFFFFFFFFFFFFFF DUP2 GT ISZERO PUSH2 0x1E1D JUMPI PUSH2 0x1E1C PUSH2 0x1653 JUMP JUMPDEST JUMPDEST PUSH2 0x1E29 DUP5 DUP3 DUP6 ADD PUSH2 0x1D69 JUMP JUMPDEST SWAP2 POP POP SWAP3 SWAP2 POP POP JUMP JUMPDEST PUSH1 0x0 PUSH2 0x140 DUP3 ADD SWAP1 POP PUSH2 0x1E48 PUSH1 0x0 DUP4 ADD DUP14 PUSH2 0x197B JUMP JUMPDEST DUP2 DUP2 SUB PUSH1 0x20 DUP4 ADD MSTORE PUSH2 0x1E5A DUP2 DUP13 PUSH2 0x1BB1 JUMP JUMPDEST SWAP1 POP DUP2 DUP2 SUB PUSH1 0x40 DUP4 ADD MSTORE PUSH2 0x1E6E DUP2 DUP12 PUSH2 0x1BB1 JUMP JUMPDEST SWAP1 POP PUSH2 0x1E7D PUSH1 0x60 DUP4 ADD DUP11 PUSH2 0x1746 JUMP JUMPDEST PUSH2 0x1E8A PUSH1 0x80 DUP4 ADD DUP10 PUSH2 0x197B JUMP JUMPDEST PUSH2 0x1E97 PUSH1 0xA0 DUP4 ADD DUP9 PUSH2 0x197B JUMP JUMPDEST PUSH2 0x1EA4 PUSH1 0xC0 DUP4 ADD DUP8 PUSH2 0x197B JUMP JUMPDEST PUSH2 0x1EB1 PUSH1 0xE0 DUP4 ADD DUP7 PUSH2 0x1CE2 JUMP JUMPDEST PUSH2 0x1EBF PUSH2 0x100 DUP4 ADD DUP6 PUSH2 0x1CE2 JUMP JUMPDEST PUSH2 0x1ECD PUSH2 0x120 DUP4 ADD DUP5 PUSH2 0x1CE2 JUMP JUMPDEST SWAP12 SWAP11 POP POP POP POP POP POP POP POP POP POP POP JUMP JUMPDEST PUSH1 0x0 DUP2 MLOAD SWAP1 POP SWAP2 SWAP1 POP JUMP JUMPDEST PUSH1 0x0 DUP3 DUP3 MSTORE PUSH1 0x20 DUP3 ADD SWAP1 POP SWAP3 SWAP2 POP POP JUMP JUMPDEST PUSH1 0x0 DUP2 SWAP1 POP PUSH1 0x20 DUP3 ADD SWAP1 POP SWAP2 SWAP1 POP JUMP JUMPDEST PUSH1 0x0 PUSH2 0x1F14 DUP4 DUP4 PUSH2 0x1A73 JUMP JUMPDEST PUSH1 0x20 DUP4 ADD SWAP1 POP SWAP3 SWAP2 POP POP JUMP JUMPDEST PUSH1 0x0 PUSH1 0x20 DUP3 ADD SWAP1 POP SWAP2 SWAP1 POP JUMP JUMPDEST PUSH1 0x0 PUSH2 0x1F38 DUP3 PUSH2 0x1EDC JUMP JUMPDEST PUSH2 0x1F42 DUP2 DUP6 PUSH2 0x1EE7 JUMP JUMPDEST SWAP4 POP PUSH2 0x1F4D DUP4 PUSH2 0x1EF8 JUMP JUMPDEST DUP1 PUSH1 0x0 JUMPDEST DUP4 DUP2 LT ISZERO PUSH2 0x1F7E JUMPI DUP2 MLOAD PUSH2 0x1F65 DUP9 DUP3 PUSH2 0x1F08 JUMP JUMPDEST SWAP8 POP PUSH2 0x1F70 DUP4 PUSH2 0x1F20 JUMP JUMPDEST SWAP3 POP POP PUSH1 0x1 DUP2 ADD SWAP1 POP PUSH2 0x1F51 JUMP JUMPDEST POP DUP6 SWAP4 POP POP POP POP SWAP3 SWAP2 POP POP JUMP JUMPDEST PUSH1 0x0 PUSH1 0x20 DUP3 ADD SWAP1 POP DUP2 DUP2 SUB PUSH1 0x0 DUP4 ADD MSTORE PUSH2 0x1FA5 DUP2 DUP5 PUSH2 0x1F2D JUMP JUMPDEST SWAP1 POP SWAP3 SWAP2 POP POP JUMP JUMPDEST PUSH32 0x4F6E6C79204D616E616765722063616E20617070726F76650000000000000000 PUSH1 0x0 DUP3 ADD MSTORE POP JUMP JUMPDEST PUSH1 0x0 PUSH2 0x1FE3 PUSH1 0x18 DUP4 PUSH2 0x1BA0 JUMP JUMPDEST SWAP2 POP PUSH2 0x1FEE DUP3 PUSH2 0x1FAD JUMP JUMPDEST PUSH1 0x20 DUP3 ADD SWAP1 POP SWAP2 SWAP1 POP JUMP JUMPDEST PUSH1 0x0 PUSH1 0x20 DUP3 ADD SWAP1 POP DUP2 DUP2 SUB PUSH1 0x0 DUP4 ADD MSTORE PUSH2 0x2012 DUP2 PUSH2 0x1FD6 JUMP JUMPDEST SWAP1 POP SWAP2 SWAP1 POP JUMP JUMPDEST PUSH32 0x5461736B206973204E6F74207665726966696564000000000000000000000000 PUSH1 0x0 DUP3 ADD MSTORE POP JUMP JUMPDEST PUSH1 0x0 PUSH2 0x204F PUSH1 0x14 DUP4 PUSH2 0x1BA0 JUMP JUMPDEST SWAP2 POP PUSH2 0x205A DUP3 PUSH2 0x2019 JUMP JUMPDEST PUSH1 0x20 DUP3 ADD SWAP1 POP SWAP2 SWAP1 POP JUMP JUMPDEST PUSH1 0x0 PUSH1 0x20 DUP3 ADD SWAP1 POP DUP2 DUP2 SUB PUSH1 0x0 DUP4 ADD MSTORE PUSH2 0x207E DUP2 PUSH2 0x2042 JUMP JUMPDEST SWAP1 POP SWAP2 SWAP1 POP JUMP JUMPDEST PUSH32 0x4E487B7100000000000000000000000000000000000000000000000000000000 PUSH1 0x0 MSTORE PUSH1 0x22 PUSH1 0x4 MSTORE PUSH1 0x24 PUSH1 0x0 REVERT JUMPDEST PUSH1 0x0 PUSH1 0x2 DUP3 DIV SWAP1 POP PUSH1 0x1 DUP3 AND DUP1 PUSH2 0x20CC JUMPI PUSH1 0x7F DUP3 AND SWAP2 POP JUMPDEST PUSH1 0x20 DUP3 LT DUP2 SUB PUSH2 0x20DF JUMPI PUSH2 0x20DE PUSH2 0x2085 JUMP JUMPDEST JUMPDEST POP SWAP2 SWAP1 POP JUMP JUMPDEST PUSH1 0x0 DUP2 SWAP1 POP DUP2 PUSH1 0x0 MSTORE PUSH1 0x20 PUSH1 0x0 KECCAK256 SWAP1 POP SWAP2 SWAP1 POP JUMP JUMPDEST PUSH1 0x0 PUSH1 0x20 PUSH1 0x1F DUP4 ADD DIV SWAP1 POP SWAP2 SWAP1 POP JUMP JUMPDEST PUSH1 0x0 DUP3 DUP3 SHL SWAP1 POP SWAP3 SWAP2 POP POP JUMP JUMPDEST PUSH1 0x0 PUSH1 0x8 DUP4 MUL PUSH2 0x2147 PUSH32 0xFFFFFFFFFFFFFFFFFFFFFFFFFFFFFFFFFFFFFFFFFFFFFFFFFFFFFFFFFFFFFFFF DUP3 PUSH2 0x210A JUMP JUMPDEST PUSH2 0x2151 DUP7 DUP4 PUSH2 0x210A JUMP JUMPDEST SWAP6 POP DUP1 NOT DUP5 AND SWAP4 POP DUP1 DUP7 AND DUP5 OR SWAP3 POP POP POP SWAP4 SWAP3 POP POP POP JUMP JUMPDEST PUSH1 0x0 PUSH2 0x2184 PUSH2 0x217F PUSH2 0x217A DUP5 PUSH2 0x1658 JUMP JUMPDEST PUSH2 0x1C68 JUMP JUMPDEST PUSH2 0x1658 JUMP JUMPDEST SWAP1 POP SWAP2 SWAP1 POP JUMP JUMPDEST PUSH1 0x0 DUP2 SWAP1 POP SWAP2 SWAP1 POP JUMP JUMPDEST PUSH2 0x219E DUP4 PUSH2 0x2169 JUMP JUMPDEST PUSH2 0x21B2 PUSH2 0x21AA DUP3 PUSH2 0x218B JUMP JUMPDEST DUP5 DUP5 SLOAD PUSH2 0x2117 JUMP JUMPDEST DUP3 SSTORE POP POP POP POP JUMP JUMPDEST PUSH1 0x0 SWAP1 JUMP JUMPDEST PUSH2 0x21C7 PUSH2 0x21BA JUMP JUMPDEST PUSH2 0x21D2 DUP2 DUP5 DUP5 PUSH2 0x2195 JUMP JUMPDEST POP POP POP JUMP JUMPDEST JUMPDEST DUP2 DUP2 LT ISZERO PUSH2 0x21F6 JUMPI PUSH2 0x21EB PUSH1 0x0 DUP3 PUSH2 0x21BF JUMP JUMPDEST PUSH1 0x1 DUP2 ADD SWAP1 POP PUSH2 0x21D8 JUMP JUMPDEST POP POP JUMP JUMPDEST PUSH1 0x1F DUP3 GT ISZERO PUSH2 0x223B JUMPI PUSH2 0x220C DUP2 PUSH2 0x20E5 JUMP JUMPDEST PUSH2 0x2215 DUP5 PUSH2 0x20FA JUMP JUMPDEST DUP2 ADD PUSH1 0x20 DUP6 LT ISZERO PUSH2 0x2224 JUMPI DUP2 SWAP1 POP JUMPDEST PUSH2 0x2238 PUSH2 0x2230 DUP6 PUSH2 0x20FA JUMP JUMPDEST DUP4 ADD DUP3 PUSH2 0x21D7 JUMP JUMPDEST POP POP JUMPDEST POP POP POP JUMP JUMPDEST PUSH1 0x0 DUP3 DUP3 SHR SWAP1 POP SWAP3 SWAP2 POP POP JUMP JUMPDEST PUSH1 0x0 PUSH2 0x225E PUSH1 0x0 NOT DUP5 PUSH1 0x8 MUL PUSH2 0x2240 JUMP JUMPDEST NOT DUP1 DUP4 AND SWAP2 POP POP SWAP3 SWAP2 POP POP JUMP JUMPDEST PUSH1 0x0 PUSH2 0x2277 DUP4 DUP4 PUSH2 0x224D JUMP JUMPDEST SWAP2 POP DUP3 PUSH1 0x2 MUL DUP3 OR SWAP1 POP SWAP3 SWAP2 POP POP JUMP JUMPDEST PUSH2 0x2290 DUP3 PUSH2 0x19F4 JUMP JUMPDEST PUSH8 0xFFFFFFFFFFFFFFFF DUP2 GT ISZERO PUSH2 0x22A9 JUMPI PUSH2 0x22A8 PUSH2 0x178B JUMP JUMPDEST JUMPDEST PUSH2 0x22B3 DUP3 SLOAD PUSH2 0x20B4 JUMP JUMPDEST PUSH2 0x22BE DUP3 DUP3 DUP6 PUSH2 0x21FA JUMP JUMPDEST PUSH1 0x0 PUSH1 0x20 SWAP1 POP PUSH1 0x1F DUP4 GT PUSH1 0x1 DUP2 EQ PUSH2 0x22F1 JUMPI PUSH1 0x0 DUP5 ISZERO PUSH2 0x22DF JUMPI DUP3 DUP8 ADD MLOAD SWAP1 POP JUMPDEST PUSH2 0x22E9 DUP6 DUP3 PUSH2 0x226B JUMP JUMPDEST DUP7 SSTORE POP PUSH2 0x2351 JUMP JUMPDEST PUSH1 0x1F NOT DUP5 AND PUSH2 0x22FF DUP7 PUSH2 0x20E5 JUMP JUMPDEST PUSH1 0x0 JUMPDEST DUP3 DUP2 LT ISZERO PUSH2 0x2327 JUMPI DUP5 DUP10 ADD MLOAD DUP3 SSTORE PUSH1 0x1 DUP3 ADD SWAP2 POP PUSH1 0x20 DUP6 ADD SWAP5 POP PUSH1 0x20 DUP2 ADD SWAP1 POP PUSH2 0x2302 JUMP JUMPDEST DUP7 DUP4 LT ISZERO PUSH2 0x2344 JUMPI DUP5 DUP10 ADD MLOAD PUSH2 0x2340 PUSH1 0x1F DUP10 AND DUP3 PUSH2 0x224D JUMP JUMPDEST DUP4 SSTORE POP JUMPDEST PUSH1 0x1 PUSH1 0x2 DUP9 MUL ADD DUP9 SSTORE POP POP POP JUMPDEST POP POP POP POP POP POP JUMP JUMPDEST PUSH32 0x4E487B7100000000000000000000000000000000000000000000000000000000 PUSH1 0x0 MSTORE PUSH1 0x11 PUSH1 0x4 MSTORE PUSH1 0x24 PUSH1 0x0 REVERT JUMPDEST PUSH1 0x0 PUSH2 0x2393 DUP3 PUSH2 0x1658 JUMP JUMPDEST SWAP2 POP PUSH32 0xFFFFFFFFFFFFFFFFFFFFFFFFFFFFFFFFFFFFFFFFFFFFFFFFFFFFFFFFFFFFFFFF DUP3 SUB PUSH2 0x23C5 JUMPI PUSH2 0x23C4 PUSH2 0x2359 JUMP JUMPDEST JUMPDEST PUSH1 0x1 DUP3 ADD SWAP1 POP SWAP2 SWAP1 POP JUMP JUMPDEST PUSH32 0x4D616E6167657220616C72656164792072656769737465726564000000000000 PUSH1 0x0 DUP3 ADD MSTORE POP JUMP JUMPDEST PUSH1 0x0 PUSH2 0x2406 PUSH1 0x1A DUP4 PUSH2 0x1BA0 JUMP JUMPDEST SWAP2 POP PUSH2 0x2411 DUP3 PUSH2 0x23D0 JUMP JUMPDEST PUSH1 0x20 DUP3 ADD SWAP1 POP SWAP2 SWAP1 POP JUMP JUMPDEST PUSH1 0x0 PUSH1 0x20 DUP3 ADD SWAP1 POP DUP2 DUP2 SUB PUSH1 0x0 DUP4 ADD MSTORE PUSH2 0x2435 DUP2 PUSH2 0x23F9 JUMP JUMPDEST SWAP1 POP SWAP2 SWAP1 POP JUMP JUMPDEST PUSH32 0x5461736B20416C72656164792061737369676E65640000000000000000000000 PUSH1 0x0 DUP3 ADD MSTORE POP JUMP JUMPDEST PUSH1 0x0 PUSH2 0x2472 PUSH1 0x15 DUP4 PUSH2 0x1BA0 JUMP JUMPDEST SWAP2 POP PUSH2 0x247D DUP3 PUSH2 0x243C JUMP JUMPDEST PUSH1 0x20 DUP3 ADD SWAP1 POP SWAP2 SWAP1 POP JUMP JUMPDEST PUSH1 0x0 PUSH1 0x20 DUP3 ADD SWAP1 POP DUP2 DUP2 SUB PUSH1 0x0 DUP4 ADD MSTORE PUSH2 0x24A1 DUP2 PUSH2 0x2465 JUMP JUMPDEST SWAP1 POP SWAP2 SWAP1 POP JUMP JUMPDEST PUSH32 0x5461736B204E6F7420636F6D706C657465640000000000000000000000000000 PUSH1 0x0 DUP3 ADD MSTORE POP JUMP JUMPDEST PUSH1 0x0 PUSH2 0x24DE PUSH1 0x12 DUP4 PUSH2 0x1BA0 JUMP JUMPDEST SWAP2 POP PUSH2 0x24E9 DUP3 PUSH2 0x24A8 JUMP JUMPDEST PUSH1 0x20 DUP3 ADD SWAP1 POP SWAP2 SWAP1 POP JUMP JUMPDEST PUSH1 0x0 PUSH1 0x20 DUP3 ADD SWAP1 POP DUP2 DUP2 SUB PUSH1 0x0 DUP4 ADD MSTORE PUSH2 0x250D DUP2 PUSH2 0x24D1 JUMP JUMPDEST SWAP1 POP SWAP2 SWAP1 POP JUMP JUMPDEST PUSH1 0x0 PUSH1 0x60 DUP3 ADD SWAP1 POP PUSH2 0x2529 PUSH1 0x0 DUP4 ADD DUP7 PUSH2 0x1746 JUMP JUMPDEST PUSH2 0x2536 PUSH1 0x20 DUP4 ADD DUP6 PUSH2 0x1746 JUMP JUMPDEST PUSH2 0x2543 PUSH1 0x40 DUP4 ADD DUP5 PUSH2 0x197B JUMP JUMPDEST SWAP5 SWAP4 POP POP POP POP JUMP JUMPDEST PUSH2 0x2554 DUP2 PUSH2 0x1A82 JUMP JUMPDEST DUP2 EQ PUSH2 0x255F JUMPI PUSH1 0x0 DUP1 REVERT JUMPDEST POP JUMP JUMPDEST PUSH1 0x0 DUP2 MLOAD SWAP1 POP PUSH2 0x2571 DUP2 PUSH2 0x254B JUMP JUMPDEST SWAP3 SWAP2 POP POP JUMP JUMPDEST PUSH1 0x0 PUSH1 0x20 DUP3 DUP5 SUB SLT ISZERO PUSH2 0x258D JUMPI PUSH2 0x258C PUSH2 0x164E JUMP JUMPDEST JUMPDEST PUSH1 0x0 PUSH2 0x259B DUP5 DUP3 DUP6 ADD PUSH2 0x2562 JUMP JUMPDEST SWAP2 POP POP SWAP3 SWAP2 POP POP JUMP JUMPDEST PUSH32 0x456D706C6F79656520616C726561647920726567697374657265640000000000 PUSH1 0x0 DUP3 ADD MSTORE POP JUMP JUMPDEST PUSH1 0x0 PUSH2 0x25DA PUSH1 0x1B DUP4 PUSH2 0x1BA0 JUMP JUMPDEST SWAP2 POP PUSH2 0x25E5 DUP3 PUSH2 0x25A4 JUMP JUMPDEST PUSH1 0x20 DUP3 ADD SWAP1 POP SWAP2 SWAP1 POP JUMP JUMPDEST PUSH1 0x0 PUSH1 0x20 DUP3 ADD SWAP1 POP DUP2 DUP2 SUB PUSH1 0x0 DUP4 ADD MSTORE PUSH2 0x2609 DUP2 PUSH2 0x25CD JUMP JUMPDEST SWAP1 POP SWAP2 SWAP1 POP JUMP JUMPDEST PUSH1 0x0 PUSH1 0x40 DUP3 ADD SWAP1 POP PUSH2 0x2625 PUSH1 0x0 DUP4 ADD DUP6 PUSH2 0x1746 JUMP JUMPDEST PUSH2 0x2632 PUSH1 0x20 DUP4 ADD DUP5 PUSH2 0x197B JUMP JUMPDEST SWAP4 SWAP3 POP POP POP JUMP JUMPDEST PUSH32 0x4F6E6C792041737369676E656420454D706C6F7965652063616E206368616E67 PUSH1 0x0 DUP3 ADD MSTORE PUSH32 0x6520737461747573000000000000000000000000000000000000000000000000 PUSH1 0x20 DUP3 ADD MSTORE POP JUMP JUMPDEST PUSH1 0x0 PUSH2 0x2695 PUSH1 0x28 DUP4 PUSH2 0x1BA0 JUMP JUMPDEST SWAP2 POP PUSH2 0x26A0 DUP3 PUSH2 0x2639 JUMP JUMPDEST PUSH1 0x40 DUP3 ADD SWAP1 POP SWAP2 SWAP1 POP JUMP JUMPDEST PUSH1 0x0 PUSH1 0x20 DUP3 ADD SWAP1 POP DUP2 DUP2 SUB PUSH1 0x0 DUP4 ADD MSTORE PUSH2 0x26C4 DUP2 PUSH2 0x2688 JUMP JUMPDEST SWAP1 POP SWAP2 SWAP1 POP JUMP JUMPDEST PUSH32 0x4E487B7100000000000000000000000000000000000000000000000000000000 PUSH1 0x0 MSTORE PUSH1 0x32 PUSH1 0x4 MSTORE PUSH1 0x24 PUSH1 0x0 REVERT INVALID LOG2 PUSH5 0x6970667358 0x22 SLT KECCAK256 SWAP16 0x26 AND SWAP5 0xD CODESIZE ADD PUSH10 0xB0DB6C3236E5B4D58F30 CODECOPY 0xDA NUMBER BLOBBASEFEE SWAP14 0x22 DUP13 DUP15 0x28 0xC0 SAR 0xAA PC GAS PUSH5 0x736F6C6343 STOP ADDMOD XOR STOP CALLER "},"methodIdentifiers":{"CreateManager(address)":"3e140947","CreateTeam(address,address)":"2d0bc6d2","Tasks(uint256)":"f4b2a46e","TotalTasks()":"c3a37653","approveTask(uint256)":"0a07fae6","approveTransfer(uint256)":"cacca4a0","assignTask(uint256,address)":"5293ee81","completeTask(uint256)":"e1e29558","createTask(string,string,address,uint256,uint256,uint256)":"1e22a2d4","employees(uint256)":"4739326b","getTaskDetails(uint256)":"3888b9d5","isEmployeeRegistered(address)":"9d88ebb6","isManager(address)":"f3ae2415","managers(uint256)":"3d39c260","registerEmployee((string,address,uint256))":"c36dec7a","reportees(uint256)":"f862da47","taskToken()":"67262d8f","teamsMappings(address)":"181d2f82","transferTokens(address,address,uint256)":"a64b6e5f","verifyTask(uint256)":"5573e3ef","viewTeam(address)":"f78aab4b"}}}}}