{
  "_format": "hh-sol-artifact-1",
  "contractName": "NewTask",
  "sourceName": "contracts/NewTask.sol",
  "abi": [
    {
      "inputs": [
        {
          "internalType": "address",
          "name": "_taskTokenAddress",
          "type": "address"
        }
      ],
      "stateMutability": "nonpayable",
      "type": "constructor"
    },
    {
      "inputs": [
        {
          "internalType": "address",
          "name": "emp",
          "type": "address"
        }
      ],
      "name": "CreateManager",
      "outputs": [],
      "stateMutability": "nonpayable",
      "type": "function"
    },
    {
      "inputs": [
        {
          "internalType": "address",
          "name": "emp",
          "type": "address"
        },
        {
          "internalType": "address",
          "name": "Manager",
          "type": "address"
        }
      ],
      "name": "CreateTeam",
      "outputs": [],
      "stateMutability": "nonpayable",
      "type": "function"
    },
    {
      "inputs": [
        {
          "internalType": "uint256",
          "name": "",
          "type": "uint256"
        }
      ],
      "name": "Tasks",
      "outputs": [
        {
          "internalType": "uint256",
          "name": "taskId",
          "type": "uint256"
        },
        {
          "internalType": "string",
          "name": "title",
          "type": "string"
        },
        {
          "internalType": "string",
          "name": "description",
          "type": "string"
        },
        {
          "internalType": "address",
          "name": "assignedEmployee",
          "type": "address"
        },
        {
          "internalType": "uint256",
          "name": "complexity",
          "type": "uint256"
        },
        {
          "internalType": "uint256",
          "name": "deadline",
          "type": "uint256"
        },
        {
          "internalType": "uint256",
          "name": "tokens",
          "type": "uint256"
        },
        {
          "internalType": "bool",
          "name": "completed",
          "type": "bool"
        },
        {
          "internalType": "bool",
          "name": "verified",
          "type": "bool"
        },
        {
          "internalType": "bool",
          "name": "approved",
          "type": "bool"
        }
      ],
      "stateMutability": "view",
      "type": "function"
    },
    {
      "inputs": [],
      "name": "TotalTasks",
      "outputs": [
        {
          "internalType": "uint256",
          "name": "",
          "type": "uint256"
        }
      ],
      "stateMutability": "view",
      "type": "function"
    },
    {
      "inputs": [
        {
          "internalType": "uint256",
          "name": "_taskId",
          "type": "uint256"
        }
      ],
      "name": "approveTask",
      "outputs": [],
      "stateMutability": "nonpayable",
      "type": "function"
    },
    {
      "inputs": [
        {
          "internalType": "uint256",
          "name": "_amount",
          "type": "uint256"
        }
      ],
      "name": "approveTransfer",
      "outputs": [],
      "stateMutability": "nonpayable",
      "type": "function"
    },
    {
      "inputs": [
        {
          "internalType": "uint256",
          "name": "taskId",
          "type": "uint256"
        },
        {
          "internalType": "address",
          "name": "_assignedEmployee",
          "type": "address"
        }
      ],
      "name": "assignTask",
      "outputs": [],
      "stateMutability": "nonpayable",
      "type": "function"
    },
    {
      "inputs": [
        {
          "internalType": "uint256",
          "name": "taskId",
          "type": "uint256"
        }
      ],
      "name": "completeTask",
      "outputs": [],
      "stateMutability": "nonpayable",
      "type": "function"
    },
    {
      "inputs": [
        {
          "internalType": "string",
          "name": "_title",
          "type": "string"
        },
        {
          "internalType": "string",
          "name": "_description",
          "type": "string"
        },
        {
          "internalType": "address",
          "name": "_assignedEmployee",
          "type": "address"
        },
        {
          "internalType": "uint256",
          "name": "_complexity",
          "type": "uint256"
        },
        {
          "internalType": "uint256",
          "name": "_deadline",
          "type": "uint256"
        },
        {
          "internalType": "uint256",
          "name": "_tokens",
          "type": "uint256"
        }
      ],
      "name": "createTask",
      "outputs": [
        {
          "internalType": "uint256",
          "name": "",
          "type": "uint256"
        }
      ],
      "stateMutability": "nonpayable",
      "type": "function"
    },
    {
      "inputs": [
        {
          "internalType": "uint256",
          "name": "",
          "type": "uint256"
        }
      ],
      "name": "employees",
      "outputs": [
        {
          "internalType": "string",
          "name": "name",
          "type": "string"
        },
        {
          "internalType": "address",
          "name": "empWallet",
          "type": "address"
        },
        {
          "internalType": "uint256",
          "name": "empID",
          "type": "uint256"
        }
      ],
      "stateMutability": "view",
      "type": "function"
    },
    {
      "inputs": [
        {
          "internalType": "uint256",
          "name": "_taskId",
          "type": "uint256"
        }
      ],
      "name": "getTaskDetails",
      "outputs": [
        {
          "components": [
            {
              "internalType": "uint256",
              "name": "taskId",
              "type": "uint256"
            },
            {
              "internalType": "string",
              "name": "title",
              "type": "string"
            },
            {
              "internalType": "string",
              "name": "description",
              "type": "string"
            },
            {
              "internalType": "address",
              "name": "assignedEmployee",
              "type": "address"
            },
            {
              "internalType": "uint256",
              "name": "complexity",
              "type": "uint256"
            },
            {
              "internalType": "uint256",
              "name": "deadline",
              "type": "uint256"
            },
            {
              "internalType": "uint256",
              "name": "tokens",
              "type": "uint256"
            },
            {
              "internalType": "bool",
              "name": "completed",
              "type": "bool"
            },
            {
              "internalType": "bool",
              "name": "verified",
              "type": "bool"
            },
            {
              "internalType": "bool",
              "name": "approved",
              "type": "bool"
            }
          ],
          "internalType": "struct NewTask.Task",
          "name": "",
          "type": "tuple"
        }
      ],
      "stateMutability": "view",
      "type": "function"
    },
    {
      "inputs": [
        {
          "internalType": "address",
          "name": "",
          "type": "address"
        }
      ],
      "name": "isEmployeeRegistered",
      "outputs": [
        {
          "internalType": "bool",
          "name": "",
          "type": "bool"
        }
      ],
      "stateMutability": "view",
      "type": "function"
    },
    {
      "inputs": [
        {
          "internalType": "address",
          "name": "mgr",
          "type": "address"
        }
      ],
      "name": "isManager",
      "outputs": [
        {
          "internalType": "bool",
          "name": "",
          "type": "bool"
        }
      ],
      "stateMutability": "view",
      "type": "function"
    },
    {
      "inputs": [
        {
          "internalType": "uint256",
          "name": "",
          "type": "uint256"
        }
      ],
      "name": "managers",
      "outputs": [
        {
          "internalType": "address",
          "name": "",
          "type": "address"
        }
      ],
      "stateMutability": "view",
      "type": "function"
    },
    {
      "inputs": [
        {
          "components": [
            {
              "internalType": "string",
              "name": "name",
              "type": "string"
            },
            {
              "internalType": "address",
              "name": "empWallet",
              "type": "address"
            },
            {
              "internalType": "uint256",
              "name": "empID",
              "type": "uint256"
            }
          ],
          "internalType": "struct NewTask.Employee",
          "name": "emp",
          "type": "tuple"
        }
      ],
      "name": "registerEmployee",
      "outputs": [],
      "stateMutability": "nonpayable",
      "type": "function"
    },
    {
      "inputs": [
        {
          "internalType": "uint256",
          "name": "",
          "type": "uint256"
        }
      ],
      "name": "reportees",
      "outputs": [
        {
          "internalType": "address",
          "name": "",
          "type": "address"
        }
      ],
      "stateMutability": "view",
      "type": "function"
    },
    {
      "inputs": [],
      "name": "taskToken",
      "outputs": [
        {
          "internalType": "contract Token",
          "name": "",
          "type": "address"
        }
      ],
      "stateMutability": "view",
      "type": "function"
    },
    {
      "inputs": [
        {
          "internalType": "address",
          "name": "",
          "type": "address"
        }
      ],
      "name": "teamsMappings",
      "outputs": [
        {
          "internalType": "address",
          "name": "",
          "type": "address"
        }
      ],
      "stateMutability": "view",
      "type": "function"
    },
    {
      "inputs": [
        {
          "internalType": "address",
          "name": "_from",
          "type": "address"
        },
        {
          "internalType": "address",
          "name": "_to",
          "type": "address"
        },
        {
          "internalType": "uint256",
          "name": "_amount",
          "type": "uint256"
        }
      ],
      "name": "transferTokens",
      "outputs": [],
      "stateMutability": "nonpayable",
      "type": "function"
    },
    {
      "inputs": [
        {
          "internalType": "uint256",
          "name": "taskId",
          "type": "uint256"
        }
      ],
      "name": "verifyTask",
      "outputs": [],
      "stateMutability": "nonpayable",
      "type": "function"
    },
    {
      "inputs": [
        {
          "internalType": "address",
          "name": "manager",
          "type": "address"
        }
      ],
      "name": "viewTeam",
      "outputs": [
        {
          "internalType": "address[]",
          "name": "",
          "type": "address[]"
        }
      ],
      "stateMutability": "nonpayable",
      "type": "function"
    }
  ],
  "bytecode": "0x60806040523480156200001157600080fd5b506040516200285a3803806200285a8339818101604052810190620000379190620000e8565b806000806101000a81548173ffffffffffffffffffffffffffffffffffffffff021916908373ffffffffffffffffffffffffffffffffffffffff160217905550506200011a565b600080fd5b600073ffffffffffffffffffffffffffffffffffffffff82169050919050565b6000620000b08262000083565b9050919050565b620000c281620000a3565b8114620000ce57600080fd5b50565b600081519050620000e281620000b7565b92915050565b6000602082840312156200010157620001006200007e565b5b60006200011184828501620000d1565b91505092915050565b612730806200012a6000396000f3fe608060405234801561001057600080fd5b50600436106101375760003560e01c806367262d8f116100b8578063cacca4a01161007c578063cacca4a01461035e578063e1e295581461037a578063f3ae241514610396578063f4b2a46e146103c6578063f78aab4b146103ff578063f862da471461042f57610137565b806367262d8f146102ba5780639d88ebb6146102d8578063a64b6e5f14610308578063c36dec7a14610324578063c3a376531461034057610137565b80633d39c260116100ff5780633d39c260146102045780633e140947146102345780634739326b146102505780635293ee81146102825780635573e3ef1461029e57610137565b80630a07fae61461013c578063181d2f82146101585780631e22a2d4146101885780632d0bc6d2146101b85780633888b9d5146101d4575b600080fd5b6101566004803603810190610151919061168e565b61045f565b005b610172600480360381019061016d9190611719565b61053c565b60405161017f9190611755565b60405180910390f35b6101a2600480360381019061019d91906118b6565b61056f565b6040516101af919061198a565b60405180910390f35b6101d260048036038101906101cd91906119a5565b610714565b005b6101ee60048036038101906101e9919061168e565b610796565b6040516101fb9190611b7e565b60405180910390f35b61021e6004803603810190610219919061168e565b6109b7565b60405161022b9190611755565b60405180910390f35b61024e60048036038101906102499190611719565b6109f6565b005b61026a6004803603810190610265919061168e565b610ab3565b60405161027993929190611bea565b60405180910390f35b61029c60048036038101906102979190611c28565b610b95565b005b6102b860048036038101906102b3919061168e565b610c93565b005b6102c2610d28565b6040516102cf9190611cc7565b60405180910390f35b6102f260048036038101906102ed9190611719565b610d4c565b6040516102ff9190611cf1565b60405180910390f35b610322600480360381019061031d9190611d0c565b610d6c565b005b61033e60048036038101906103399190611de9565b610e12565b005b610348610f97565b604051610355919061198a565b60405180910390f35b6103786004803603810190610373919061168e565b610f9d565b005b610394600480360381019061038f919061168e565b61103f565b005b6103b060048036038101906103ab9190611719565b611115565b6040516103bd9190611cf1565b60405180910390f35b6103e060048036038101906103db919061168e565b6111bd565b6040516103f69a99989796959493929190611e32565b60405180910390f35b61041960048036038101906104149190611719565b611368565b6040516104269190611f8b565b60405180910390f35b6104496004803603810190610444919061168e565b611596565b6040516104569190611755565b60405180910390f35b61046833611115565b6104a7576040517f08c379a000000000000000000000000000000000000000000000000000000000815260040161049e90611ff9565b60405180910390fd5b6006600082815260200190815260200160002060070160019054906101000a900460ff1661050a576040517f08c379a000000000000000000000000000000000000000000000000000000000815260040161050190612065565b60405180910390fd5b60016006600083815260200190815260200160002060070160026101000a81548160ff02191690831515021790555050565b60026020528060005260406000206000915054906101000a900473ffffffffffffffffffffffffffffffffffffffff1681565b600060405180610140016040528060075481526020018881526020018781526020018673ffffffffffffffffffffffffffffffffffffffff1681526020018581526020018481526020018381526020016000151581526020016000151581526020016000151581525060066000600754815260200190815260200160002060008201518160000155602082015181600101908161060c9190612287565b5060408201518160020190816106229190612287565b5060608201518160030160006101000a81548173ffffffffffffffffffffffffffffffffffffffff021916908373ffffffffffffffffffffffffffffffffffffffff1602179055506080820151816004015560a0820151816005015560c0820151816006015560e08201518160070160006101000a81548160ff0219169083151502179055506101008201518160070160016101000a81548160ff0219169083151502179055506101208201518160070160026101000a81548160ff0219169083151502179055509050506007600081548092919061070090612388565b919050555060075490509695505050505050565b80600260008473ffffffffffffffffffffffffffffffffffffffff1673ffffffffffffffffffffffffffffffffffffffff16815260200190815260200160002060006101000a81548173ffffffffffffffffffffffffffffffffffffffff021916908373ffffffffffffffffffffffffffffffffffffffff1602179055505050565b61079e6115d5565b6006600083815260200190815260200160002060405180610140016040529081600082015481526020016001820180546107d7906120b4565b80601f0160208091040260200160405190810160405280929190818152602001828054610803906120b4565b80156108505780601f1061082557610100808354040283529160200191610850565b820191906000526020600020905b81548152906001019060200180831161083357829003601f168201915b50505050508152602001600282018054610869906120b4565b80601f0160208091040260200160405190810160405280929190818152602001828054610895906120b4565b80156108e25780601f106108b7576101008083540402835291602001916108e2565b820191906000526020600020905b8154815290600101906020018083116108c557829003601f168201915b505050505081526020016003820160009054906101000a900473ffffffffffffffffffffffffffffffffffffffff1673ffffffffffffffffffffffffffffffffffffffff1673ffffffffffffffffffffffffffffffffffffffff1681526020016004820154815260200160058201548152602001600682015481526020016007820160009054906101000a900460ff161515151581526020016007820160019054906101000a900460ff161515151581526020016007820160029054906101000a900460ff1615151515815250509050919050565b600481815481106109c757600080fd5b906000526020600020016000915054906101000a900473ffffffffffffffffffffffffffffffffffffffff1681565b6000610a0182611115565b15610a0b57600190505b8015610a4c576040517f08c379a0000000000000000000000000000000000000000000000000000000008152600401610a439061241c565b60405180910390fd5b6004829080600181540180825580915050600190039060005260206000200160009091909190916101000a81548173ffffffffffffffffffffffffffffffffffffffff021916908373ffffffffffffffffffffffffffffffffffffffff1602179055505050565b60018181548110610ac357600080fd5b9060005260206000209060030201600091509050806000018054610ae6906120b4565b80601f0160208091040260200160405190810160405280929190818152602001828054610b12906120b4565b8015610b5f5780601f10610b3457610100808354040283529160200191610b5f565b820191906000526020600020905b815481529060010190602001808311610b4257829003601f168201915b5050505050908060010160009054906101000a900473ffffffffffffffffffffffffffffffffffffffff16908060020154905083565b600073ffffffffffffffffffffffffffffffffffffffff166006600084815260200190815260200160002060030160009054906101000a900473ffffffffffffffffffffffffffffffffffffffff1673ffffffffffffffffffffffffffffffffffffffff1614610c3a576040517f08c379a0000000000000000000000000000000000000000000000000000000008152600401610c3190612488565b60405180910390fd5b806006600084815260200190815260200160002060030160006101000a81548173ffffffffffffffffffffffffffffffffffffffff021916908373ffffffffffffffffffffffffffffffffffffffff1602179055505050565b6006600082815260200190815260200160002060070160009054906101000a900460ff16610cf6576040517f08c379a0000000000000000000000000000000000000000000000000000000008152600401610ced906124f4565b60405180910390fd5b60016006600083815260200190815260200160002060070160016101000a81548160ff02191690831515021790555050565b60008054906101000a900473ffffffffffffffffffffffffffffffffffffffff1681565b60056020528060005260406000206000915054906101000a900460ff1681565b60008054906101000a900473ffffffffffffffffffffffffffffffffffffffff1673ffffffffffffffffffffffffffffffffffffffff166323b872dd8484846040518463ffffffff1660e01b8152600401610dc993929190612514565b6020604051808303816000875af1158015610de8573d6000803e3d6000fd5b505050506040513d601f19601f82011682018060405250810190610e0c9190612577565b50505050565b60056000826020015173ffffffffffffffffffffffffffffffffffffffff1673ffffffffffffffffffffffffffffffffffffffff16815260200190815260200160002060009054906101000a900460ff1615610ea3576040517f08c379a0000000000000000000000000000000000000000000000000000000008152600401610e9a906125f0565b60405180910390fd5b60018190806001815401808255809150506001900390600052602060002090600302016000909190919091506000820151816000019081610ee49190612287565b5060208201518160010160006101000a81548173ffffffffffffffffffffffffffffffffffffffff021916908373ffffffffffffffffffffffffffffffffffffffff160217905550604082015181600201555050600160056000836020015173ffffffffffffffffffffffffffffffffffffffff1673ffffffffffffffffffffffffffffffffffffffff16815260200190815260200160002060006101000a81548160ff02191690831515021790555050565b60075481565b60008054906101000a900473ffffffffffffffffffffffffffffffffffffffff1673ffffffffffffffffffffffffffffffffffffffff1663095ea7b330836040518363ffffffff1660e01b8152600401610ff8929190612610565b6020604051808303816000875af1158015611017573d6000803e3d6000fd5b505050506040513d601f19601f8201168201806040525081019061103b9190612577565b5050565b3373ffffffffffffffffffffffffffffffffffffffff166006600083815260200190815260200160002060030160009054906101000a900473ffffffffffffffffffffffffffffffffffffffff1673ffffffffffffffffffffffffffffffffffffffff16146110e3576040517f08c379a00000000000000000000000000000000000000000000000000000000081526004016110da906126ab565b60405180910390fd5b60016006600083815260200190815260200160002060070160006101000a81548160ff02191690831515021790555050565b6000806000905060005b6004805490508110156111b3578373ffffffffffffffffffffffffffffffffffffffff1660048281548110611157576111566126cb565b5b9060005260206000200160009054906101000a900473ffffffffffffffffffffffffffffffffffffffff1673ffffffffffffffffffffffffffffffffffffffff16036111a657600191506111b3565b808060010191505061111f565b5080915050919050565b60066020528060005260406000206000915090508060000154908060010180546111e6906120b4565b80601f0160208091040260200160405190810160405280929190818152602001828054611212906120b4565b801561125f5780601f106112345761010080835404028352916020019161125f565b820191906000526020600020905b81548152906001019060200180831161124257829003601f168201915b505050505090806002018054611274906120b4565b80601f01602080910402602001604051908101604052809291908181526020018280546112a0906120b4565b80156112ed5780601f106112c2576101008083540402835291602001916112ed565b820191906000526020600020905b8154815290600101906020018083116112d057829003601f168201915b5050505050908060030160009054906101000a900473ffffffffffffffffffffffffffffffffffffffff16908060040154908060050154908060060154908060070160009054906101000a900460ff16908060070160019054906101000a900460ff16908060070160029054906101000a900460ff1690508a565b606060005b600180549050811015611507578273ffffffffffffffffffffffffffffffffffffffff1660026000600184815481106113a9576113a86126cb565b5b906000526020600020906003020160010160009054906101000a900473ffffffffffffffffffffffffffffffffffffffff1673ffffffffffffffffffffffffffffffffffffffff1673ffffffffffffffffffffffffffffffffffffffff16815260200190815260200160002060009054906101000a900473ffffffffffffffffffffffffffffffffffffffff1673ffffffffffffffffffffffffffffffffffffffff16036114fa57600360018281548110611467576114666126cb565b5b906000526020600020906003020160010160009054906101000a900473ffffffffffffffffffffffffffffffffffffffff169080600181540180825580915050600190039060005260206000200160009091909190916101000a81548173ffffffffffffffffffffffffffffffffffffffff021916908373ffffffffffffffffffffffffffffffffffffffff1602179055505b808060010191505061136d565b50600380548060200260200160405190810160405280929190818152602001828054801561158a57602002820191906000526020600020905b8160009054906101000a900473ffffffffffffffffffffffffffffffffffffffff1673ffffffffffffffffffffffffffffffffffffffff1681526020019060010190808311611540575b50505050509050919050565b600381815481106115a657600080fd5b906000526020600020016000915054906101000a900473ffffffffffffffffffffffffffffffffffffffff1681565b604051806101400160405280600081526020016060815260200160608152602001600073ffffffffffffffffffffffffffffffffffffffff1681526020016000815260200160008152602001600081526020016000151581526020016000151581526020016000151581525090565b6000604051905090565b600080fd5b600080fd5b6000819050919050565b61166b81611658565b811461167657600080fd5b50565b60008135905061168881611662565b92915050565b6000602082840312156116a4576116a361164e565b5b60006116b284828501611679565b91505092915050565b600073ffffffffffffffffffffffffffffffffffffffff82169050919050565b60006116e6826116bb565b9050919050565b6116f6816116db565b811461170157600080fd5b50565b600081359050611713816116ed565b92915050565b60006020828403121561172f5761172e61164e565b5b600061173d84828501611704565b91505092915050565b61174f816116db565b82525050565b600060208201905061176a6000830184611746565b92915050565b600080fd5b600080fd5b6000601f19601f8301169050919050565b7f4e487b7100000000000000000000000000000000000000000000000000000000600052604160045260246000fd5b6117c38261177a565b810181811067ffffffffffffffff821117156117e2576117e161178b565b5b80604052505050565b60006117f5611644565b905061180182826117ba565b919050565b600067ffffffffffffffff8211156118215761182061178b565b5b61182a8261177a565b9050602081019050919050565b82818337600083830152505050565b600061185961185484611806565b6117eb565b90508281526020810184848401111561187557611874611775565b5b611880848285611837565b509392505050565b600082601f83011261189d5761189c611770565b5b81356118ad848260208601611846565b91505092915050565b60008060008060008060c087890312156118d3576118d261164e565b5b600087013567ffffffffffffffff8111156118f1576118f0611653565b5b6118fd89828a01611888565b965050602087013567ffffffffffffffff81111561191e5761191d611653565b5b61192a89828a01611888565b955050604061193b89828a01611704565b945050606061194c89828a01611679565b935050608061195d89828a01611679565b92505060a061196e89828a01611679565b9150509295509295509295565b61198481611658565b82525050565b600060208201905061199f600083018461197b565b92915050565b600080604083850312156119bc576119bb61164e565b5b60006119ca85828601611704565b92505060206119db85828601611704565b9150509250929050565b6119ee81611658565b82525050565b600081519050919050565b600082825260208201905092915050565b60005b83811015611a2e578082015181840152602081019050611a13565b60008484015250505050565b6000611a45826119f4565b611a4f81856119ff565b9350611a5f818560208601611a10565b611a688161177a565b840191505092915050565b611a7c816116db565b82525050565b60008115159050919050565b611a9781611a82565b82525050565b600061014083016000830151611ab660008601826119e5565b5060208301518482036020860152611ace8282611a3a565b91505060408301518482036040860152611ae88282611a3a565b9150506060830151611afd6060860182611a73565b506080830151611b1060808601826119e5565b5060a0830151611b2360a08601826119e5565b5060c0830151611b3660c08601826119e5565b5060e0830151611b4960e0860182611a8e565b50610100830151611b5e610100860182611a8e565b50610120830151611b73610120860182611a8e565b508091505092915050565b60006020820190508181036000830152611b988184611a9d565b905092915050565b600082825260208201905092915050565b6000611bbc826119f4565b611bc68185611ba0565b9350611bd6818560208601611a10565b611bdf8161177a565b840191505092915050565b60006060820190508181036000830152611c048186611bb1565b9050611c136020830185611746565b611c20604083018461197b565b949350505050565b60008060408385031215611c3f57611c3e61164e565b5b6000611c4d85828601611679565b9250506020611c5e85828601611704565b9150509250929050565b6000819050919050565b6000611c8d611c88611c83846116bb565b611c68565b6116bb565b9050919050565b6000611c9f82611c72565b9050919050565b6000611cb182611c94565b9050919050565b611cc181611ca6565b82525050565b6000602082019050611cdc6000830184611cb8565b92915050565b611ceb81611a82565b82525050565b6000602082019050611d066000830184611ce2565b92915050565b600080600060608486031215611d2557611d2461164e565b5b6000611d3386828701611704565b9350506020611d4486828701611704565b9250506040611d5586828701611679565b9150509250925092565b600080fd5b600080fd5b600060608284031215611d7f57611d7e611d5f565b5b611d8960606117eb565b9050600082013567ffffffffffffffff811115611da957611da8611d64565b5b611db584828501611888565b6000830152506020611dc984828501611704565b6020830152506040611ddd84828501611679565b60408301525092915050565b600060208284031215611dff57611dfe61164e565b5b600082013567ffffffffffffffff811115611e1d57611e1c611653565b5b611e2984828501611d69565b91505092915050565b600061014082019050611e48600083018d61197b565b8181036020830152611e5a818c611bb1565b90508181036040830152611e6e818b611bb1565b9050611e7d606083018a611746565b611e8a608083018961197b565b611e9760a083018861197b565b611ea460c083018761197b565b611eb160e0830186611ce2565b611ebf610100830185611ce2565b611ecd610120830184611ce2565b9b9a5050505050505050505050565b600081519050919050565b600082825260208201905092915050565b6000819050602082019050919050565b6000611f148383611a73565b60208301905092915050565b6000602082019050919050565b6000611f3882611edc565b611f428185611ee7565b9350611f4d83611ef8565b8060005b83811015611f7e578151611f658882611f08565b9750611f7083611f20565b925050600181019050611f51565b5085935050505092915050565b60006020820190508181036000830152611fa58184611f2d565b905092915050565b7f4f6e6c79204d616e616765722063616e20617070726f76650000000000000000600082015250565b6000611fe3601883611ba0565b9150611fee82611fad565b602082019050919050565b6000602082019050818103600083015261201281611fd6565b9050919050565b7f5461736b206973204e6f74207665726966696564000000000000000000000000600082015250565b600061204f601483611ba0565b915061205a82612019565b602082019050919050565b6000602082019050818103600083015261207e81612042565b9050919050565b7f4e487b7100000000000000000000000000000000000000000000000000000000600052602260045260246000fd5b600060028204905060018216806120cc57607f821691505b6020821081036120df576120de612085565b5b50919050565b60008190508160005260206000209050919050565b60006020601f8301049050919050565b600082821b905092915050565b6000600883026121477fffffffffffffffffffffffffffffffffffffffffffffffffffffffffffffffff8261210a565b612151868361210a565b95508019841693508086168417925050509392505050565b600061218461217f61217a84611658565b611c68565b611658565b9050919050565b6000819050919050565b61219e83612169565b6121b26121aa8261218b565b848454612117565b825550505050565b600090565b6121c76121ba565b6121d2818484612195565b505050565b5b818110156121f6576121eb6000826121bf565b6001810190506121d8565b5050565b601f82111561223b5761220c816120e5565b612215846120fa565b81016020851015612224578190505b612238612230856120fa565b8301826121d7565b50505b505050565b600082821c905092915050565b600061225e60001984600802612240565b1980831691505092915050565b6000612277838361224d565b9150826002028217905092915050565b612290826119f4565b67ffffffffffffffff8111156122a9576122a861178b565b5b6122b382546120b4565b6122be8282856121fa565b600060209050601f8311600181146122f157600084156122df578287015190505b6122e9858261226b565b865550612351565b601f1984166122ff866120e5565b60005b8281101561232757848901518255600182019150602085019450602081019050612302565b868310156123445784890151612340601f89168261224d565b8355505b6001600288020188555050505b505050505050565b7f4e487b7100000000000000000000000000000000000000000000000000000000600052601160045260246000fd5b600061239382611658565b91507fffffffffffffffffffffffffffffffffffffffffffffffffffffffffffffffff82036123c5576123c4612359565b5b600182019050919050565b7f4d616e6167657220616c72656164792072656769737465726564000000000000600082015250565b6000612406601a83611ba0565b9150612411826123d0565b602082019050919050565b60006020820190508181036000830152612435816123f9565b9050919050565b7f5461736b20416c72656164792061737369676e65640000000000000000000000600082015250565b6000612472601583611ba0565b915061247d8261243c565b602082019050919050565b600060208201905081810360008301526124a181612465565b9050919050565b7f5461736b204e6f7420636f6d706c657465640000000000000000000000000000600082015250565b60006124de601283611ba0565b91506124e9826124a8565b602082019050919050565b6000602082019050818103600083015261250d816124d1565b9050919050565b60006060820190506125296000830186611746565b6125366020830185611746565b612543604083018461197b565b949350505050565b61255481611a82565b811461255f57600080fd5b50565b6000815190506125718161254b565b92915050565b60006020828403121561258d5761258c61164e565b5b600061259b84828501612562565b91505092915050565b7f456d706c6f79656520616c726561647920726567697374657265640000000000600082015250565b60006125da601b83611ba0565b91506125e5826125a4565b602082019050919050565b60006020820190508181036000830152612609816125cd565b9050919050565b60006040820190506126256000830185611746565b612632602083018461197b565b9392505050565b7f4f6e6c792041737369676e656420454d706c6f7965652063616e206368616e6760008201527f6520737461747573000000000000000000000000000000000000000000000000602082015250565b6000612695602883611ba0565b91506126a082612639565b604082019050919050565b600060208201905081810360008301526126c481612688565b9050919050565b7f4e487b7100000000000000000000000000000000000000000000000000000000600052603260045260246000fdfea26469706673582212209f2616940d380169b0db6c3236e5b4d58f3039da434a9d228c8e28c01daa585a64736f6c63430008180033",
  "linkReferences": {},
  "deployedLinkReferences": {}
}