{
  "_format": "hh-sol-artifact-1",
  "contractName": "NewTask",
  "sourceName": "contracts/NewTask.sol",
  "abi": [
    {
      "inputs": [
        {
          "internalType": "address",
          "name": "_taskTokenAddress",
          "type": "address"
        }
      ],
      "stateMutability": "nonpayable",
      "type": "constructor"
    },
    {
      "anonymous": false,
      "inputs": [
        {
          "indexed": false,
          "internalType": "address",
          "name": "empWallet",
          "type": "address"
        },
        {
          "indexed": false,
          "internalType": "uint256",
          "name": "empID",
          "type": "uint256"
        }
      ],
      "name": "EmployeeRegistered",
      "type": "event"
    },
    {
      "anonymous": false,
      "inputs": [
        {
          "indexed": false,
          "internalType": "string",
          "name": "message",
          "type": "string"
        }
      ],
      "name": "Error",
      "type": "event"
    },
    {
      "inputs": [
        {
          "internalType": "address",
          "name": "emp",
          "type": "address"
        }
      ],
      "name": "CreateManager",
      "outputs": [],
      "stateMutability": "nonpayable",
      "type": "function"
    },
    {
      "inputs": [
        {
          "internalType": "address",
          "name": "emp",
          "type": "address"
        },
        {
          "internalType": "address",
          "name": "Manager",
          "type": "address"
        }
      ],
      "name": "CreateTeam",
      "outputs": [],
      "stateMutability": "nonpayable",
      "type": "function"
    },
    {
      "inputs": [
        {
          "internalType": "uint256",
          "name": "",
          "type": "uint256"
        }
      ],
      "name": "Tasks",
      "outputs": [
        {
          "internalType": "uint256",
          "name": "taskId",
          "type": "uint256"
        },
        {
          "internalType": "string",
          "name": "title",
          "type": "string"
        },
        {
          "internalType": "string",
          "name": "description",
          "type": "string"
        },
        {
          "internalType": "address",
          "name": "assignedByMgr",
          "type": "address"
        },
        {
          "internalType": "address",
          "name": "assignedEmployee",
          "type": "address"
        },
        {
          "internalType": "uint256",
          "name": "complexity",
          "type": "uint256"
        },
        {
          "internalType": "uint256",
          "name": "deadline",
          "type": "uint256"
        },
        {
          "internalType": "uint256",
          "name": "tokens",
          "type": "uint256"
        },
        {
          "internalType": "bool",
          "name": "inprogress",
          "type": "bool"
        },
        {
          "internalType": "bool",
          "name": "completed",
          "type": "bool"
        },
        {
          "internalType": "bool",
          "name": "verified",
          "type": "bool"
        },
        {
          "internalType": "bool",
          "name": "approved",
          "type": "bool"
        }
      ],
      "stateMutability": "view",
      "type": "function"
    },
    {
      "inputs": [
        {
          "internalType": "address",
          "name": "",
          "type": "address"
        },
        {
          "internalType": "uint256",
          "name": "",
          "type": "uint256"
        }
      ],
      "name": "TasksBymanager",
      "outputs": [
        {
          "internalType": "uint256",
          "name": "",
          "type": "uint256"
        }
      ],
      "stateMutability": "view",
      "type": "function"
    },
    {
      "inputs": [
        {
          "internalType": "address",
          "name": "",
          "type": "address"
        },
        {
          "internalType": "uint256",
          "name": "",
          "type": "uint256"
        }
      ],
      "name": "TasksOfEmployee",
      "outputs": [
        {
          "internalType": "uint256",
          "name": "",
          "type": "uint256"
        }
      ],
      "stateMutability": "view",
      "type": "function"
    },
    {
      "inputs": [],
      "name": "TotalTasks",
      "outputs": [
        {
          "internalType": "uint256",
          "name": "",
          "type": "uint256"
        }
      ],
      "stateMutability": "view",
      "type": "function"
    },
    {
      "inputs": [
        {
          "internalType": "uint256",
          "name": "_taskId",
          "type": "uint256"
        }
      ],
      "name": "approveTask",
      "outputs": [],
      "stateMutability": "nonpayable",
      "type": "function"
    },
    {
      "inputs": [
        {
          "internalType": "uint256",
          "name": "_amount",
          "type": "uint256"
        }
      ],
      "name": "approveTransfer",
      "outputs": [],
      "stateMutability": "nonpayable",
      "type": "function"
    },
    {
      "inputs": [
        {
          "internalType": "uint256",
          "name": "taskId",
          "type": "uint256"
        },
        {
          "internalType": "address",
          "name": "_assignedEmployee",
          "type": "address"
        }
      ],
      "name": "assignTask",
      "outputs": [],
      "stateMutability": "nonpayable",
      "type": "function"
    },
    {
      "inputs": [
        {
          "internalType": "uint256",
          "name": "taskId",
          "type": "uint256"
        }
      ],
      "name": "completeTask",
      "outputs": [],
      "stateMutability": "nonpayable",
      "type": "function"
    },
    {
      "inputs": [
        {
          "internalType": "string",
          "name": "_title",
          "type": "string"
        },
        {
          "internalType": "string",
          "name": "_description",
          "type": "string"
        },
        {
          "internalType": "address",
          "name": "_assignedByMgr",
          "type": "address"
        },
        {
          "internalType": "address",
          "name": "_assignedEmployee",
          "type": "address"
        },
        {
          "internalType": "uint256",
          "name": "_complexity",
          "type": "uint256"
        },
        {
          "internalType": "uint256",
          "name": "_deadline",
          "type": "uint256"
        },
        {
          "internalType": "uint256",
          "name": "_tokens",
          "type": "uint256"
        }
      ],
      "name": "createTask",
      "outputs": [
        {
          "internalType": "uint256",
          "name": "",
          "type": "uint256"
        }
      ],
      "stateMutability": "nonpayable",
      "type": "function"
    },
    {
      "inputs": [
        {
          "internalType": "uint256",
          "name": "",
          "type": "uint256"
        }
      ],
      "name": "employees",
      "outputs": [
        {
          "internalType": "string",
          "name": "name",
          "type": "string"
        },
        {
          "internalType": "address",
          "name": "empWallet",
          "type": "address"
        },
        {
          "internalType": "uint256",
          "name": "empID",
          "type": "uint256"
        }
      ],
      "stateMutability": "view",
      "type": "function"
    },
    {
      "inputs": [],
      "name": "getAllTaskDetails",
      "outputs": [
        {
          "internalType": "uint256[]",
          "name": "",
          "type": "uint256[]"
        },
        {
          "internalType": "string[]",
          "name": "",
          "type": "string[]"
        }
      ],
      "stateMutability": "view",
      "type": "function"
    },
    {
      "inputs": [],
      "name": "getEmployees",
      "outputs": [
        {
          "components": [
            {
              "internalType": "string",
              "name": "name",
              "type": "string"
            },
            {
              "internalType": "address",
              "name": "empWallet",
              "type": "address"
            },
            {
              "internalType": "uint256",
              "name": "empID",
              "type": "uint256"
            }
          ],
          "internalType": "struct NewTask.Employee[]",
          "name": "",
          "type": "tuple[]"
        }
      ],
      "stateMutability": "view",
      "type": "function"
    },
    {
      "inputs": [
        {
          "internalType": "address",
          "name": "_empladdress",
          "type": "address"
        }
      ],
      "name": "getEmployeesTasks",
      "outputs": [
        {
          "components": [
            {
              "internalType": "uint256",
              "name": "taskId",
              "type": "uint256"
            },
            {
              "internalType": "string",
              "name": "title",
              "type": "string"
            },
            {
              "internalType": "string",
              "name": "description",
              "type": "string"
            },
            {
              "internalType": "address",
              "name": "assignedByMgr",
              "type": "address"
            },
            {
              "internalType": "address",
              "name": "assignedEmployee",
              "type": "address"
            },
            {
              "internalType": "uint256",
              "name": "complexity",
              "type": "uint256"
            },
            {
              "internalType": "uint256",
              "name": "deadline",
              "type": "uint256"
            },
            {
              "internalType": "uint256",
              "name": "tokens",
              "type": "uint256"
            },
            {
              "internalType": "bool",
              "name": "inprogress",
              "type": "bool"
            },
            {
              "internalType": "bool",
              "name": "completed",
              "type": "bool"
            },
            {
              "internalType": "bool",
              "name": "verified",
              "type": "bool"
            },
            {
              "internalType": "bool",
              "name": "approved",
              "type": "bool"
            }
          ],
          "internalType": "struct NewTask.Task[]",
          "name": "",
          "type": "tuple[]"
        }
      ],
      "stateMutability": "view",
      "type": "function"
    },
    {
      "inputs": [
        {
          "internalType": "address",
          "name": "_mgrAddress",
          "type": "address"
        }
      ],
      "name": "getManagerTasks",
      "outputs": [
        {
          "components": [
            {
              "internalType": "uint256",
              "name": "taskId",
              "type": "uint256"
            },
            {
              "internalType": "string",
              "name": "title",
              "type": "string"
            },
            {
              "internalType": "string",
              "name": "description",
              "type": "string"
            },
            {
              "internalType": "address",
              "name": "assignedByMgr",
              "type": "address"
            },
            {
              "internalType": "address",
              "name": "assignedEmployee",
              "type": "address"
            },
            {
              "internalType": "uint256",
              "name": "complexity",
              "type": "uint256"
            },
            {
              "internalType": "uint256",
              "name": "deadline",
              "type": "uint256"
            },
            {
              "internalType": "uint256",
              "name": "tokens",
              "type": "uint256"
            },
            {
              "internalType": "bool",
              "name": "inprogress",
              "type": "bool"
            },
            {
              "internalType": "bool",
              "name": "completed",
              "type": "bool"
            },
            {
              "internalType": "bool",
              "name": "verified",
              "type": "bool"
            },
            {
              "internalType": "bool",
              "name": "approved",
              "type": "bool"
            }
          ],
          "internalType": "struct NewTask.Task[]",
          "name": "",
          "type": "tuple[]"
        }
      ],
      "stateMutability": "view",
      "type": "function"
    },
    {
      "inputs": [],
      "name": "getManagers",
      "outputs": [
        {
          "internalType": "address[]",
          "name": "",
          "type": "address[]"
        }
      ],
      "stateMutability": "view",
      "type": "function"
    },
    {
      "inputs": [
        {
          "internalType": "uint256",
          "name": "_taskId",
          "type": "uint256"
        }
      ],
      "name": "getTaskDetails",
      "outputs": [
        {
          "components": [
            {
              "internalType": "uint256",
              "name": "taskId",
              "type": "uint256"
            },
            {
              "internalType": "string",
              "name": "title",
              "type": "string"
            },
            {
              "internalType": "string",
              "name": "description",
              "type": "string"
            },
            {
              "internalType": "address",
              "name": "assignedByMgr",
              "type": "address"
            },
            {
              "internalType": "address",
              "name": "assignedEmployee",
              "type": "address"
            },
            {
              "internalType": "uint256",
              "name": "complexity",
              "type": "uint256"
            },
            {
              "internalType": "uint256",
              "name": "deadline",
              "type": "uint256"
            },
            {
              "internalType": "uint256",
              "name": "tokens",
              "type": "uint256"
            },
            {
              "internalType": "bool",
              "name": "inprogress",
              "type": "bool"
            },
            {
              "internalType": "bool",
              "name": "completed",
              "type": "bool"
            },
            {
              "internalType": "bool",
              "name": "verified",
              "type": "bool"
            },
            {
              "internalType": "bool",
              "name": "approved",
              "type": "bool"
            }
          ],
          "internalType": "struct NewTask.Task",
          "name": "",
          "type": "tuple"
        }
      ],
      "stateMutability": "view",
      "type": "function"
    },
    {
      "inputs": [
        {
          "internalType": "uint256",
          "name": "taskId",
          "type": "uint256"
        }
      ],
      "name": "inProgressTask",
      "outputs": [],
      "stateMutability": "nonpayable",
      "type": "function"
    },
    {
      "inputs": [
        {
          "internalType": "address",
          "name": "",
          "type": "address"
        }
      ],
      "name": "isEmployeeRegistered",
      "outputs": [
        {
          "internalType": "bool",
          "name": "",
          "type": "bool"
        }
      ],
      "stateMutability": "view",
      "type": "function"
    },
    {
      "inputs": [
        {
          "internalType": "address",
          "name": "mgr",
          "type": "address"
        }
      ],
      "name": "isManager",
      "outputs": [
        {
          "internalType": "bool",
          "name": "",
          "type": "bool"
        }
      ],
      "stateMutability": "view",
      "type": "function"
    },
    {
      "inputs": [
        {
          "internalType": "uint256",
          "name": "",
          "type": "uint256"
        }
      ],
      "name": "managers",
      "outputs": [
        {
          "internalType": "address",
          "name": "",
          "type": "address"
        }
      ],
      "stateMutability": "view",
      "type": "function"
    },
    {
      "inputs": [
        {
          "components": [
            {
              "internalType": "string",
              "name": "name",
              "type": "string"
            },
            {
              "internalType": "address",
              "name": "empWallet",
              "type": "address"
            },
            {
              "internalType": "uint256",
              "name": "empID",
              "type": "uint256"
            }
          ],
          "internalType": "struct NewTask.Employee",
          "name": "emp",
          "type": "tuple"
        }
      ],
      "name": "registerEmployee",
      "outputs": [],
      "stateMutability": "nonpayable",
      "type": "function"
    },
    {
      "inputs": [
        {
          "internalType": "uint256",
          "name": "",
          "type": "uint256"
        }
      ],
      "name": "reportees",
      "outputs": [
        {
          "internalType": "address",
          "name": "",
          "type": "address"
        }
      ],
      "stateMutability": "view",
      "type": "function"
    },
    {
      "inputs": [],
      "name": "taskToken",
      "outputs": [
        {
          "internalType": "contract Token",
          "name": "",
          "type": "address"
        }
      ],
      "stateMutability": "view",
      "type": "function"
    },
    {
      "inputs": [
        {
          "internalType": "address",
          "name": "",
          "type": "address"
        }
      ],
      "name": "teamsMappings",
      "outputs": [
        {
          "internalType": "address",
          "name": "",
          "type": "address"
        }
      ],
      "stateMutability": "view",
      "type": "function"
    },
    {
      "inputs": [
        {
          "internalType": "address",
          "name": "_from",
          "type": "address"
        },
        {
          "internalType": "address",
          "name": "_to",
          "type": "address"
        },
        {
          "internalType": "uint256",
          "name": "_amount",
          "type": "uint256"
        }
      ],
      "name": "transferTokens",
      "outputs": [],
      "stateMutability": "nonpayable",
      "type": "function"
    },
    {
      "inputs": [
        {
          "internalType": "uint256",
          "name": "taskId",
          "type": "uint256"
        }
      ],
      "name": "verifyTask",
      "outputs": [],
      "stateMutability": "nonpayable",
      "type": "function"
    },
    {
      "inputs": [
        {
          "internalType": "address",
          "name": "manager",
          "type": "address"
        }
      ],
      "name": "viewTeam",
      "outputs": [
        {
          "internalType": "address[]",
          "name": "",
          "type": "address[]"
        }
      ],
      "stateMutability": "nonpayable",
      "type": "function"
    }
  ],
  "bytecode": "0x60806040523480156200001157600080fd5b50604051620041c2380380620041c28339818101604052810190620000379190620000e8565b806000806101000a81548173ffffffffffffffffffffffffffffffffffffffff021916908373ffffffffffffffffffffffffffffffffffffffff160217905550506200011a565b600080fd5b600073ffffffffffffffffffffffffffffffffffffffff82169050919050565b6000620000b08262000083565b9050919050565b620000c281620000a3565b8114620000ce57600080fd5b50565b600081519050620000e281620000b7565b92915050565b6000602082840312156200010157620001006200007e565b5b60006200011184828501620000d1565b91505092915050565b614098806200012a6000396000f3fe608060405234801561001057600080fd5b50600436106101cf5760003560e01c806359b594c911610104578063c3a37653116100a2578063f3ae241511610071578063f3ae241514610565578063f4b2a46e14610595578063f78aab4b146105d0578063f862da4714610600576101cf565b8063c3a37653146104df578063cacca4a0146104fd578063d5983f2414610519578063e1e2955814610549576101cf565b80639f9af94c116100de5780639f9af94c14610459578063a64b6e5f14610489578063a8d088bb146104a5578063c36dec7a146104c3576101cf565b806359b594c9146103db57806367262d8f1461040b5780639d88ebb614610429576101cf565b80633d39c260116101715780634abefa361161014b5780634abefa36146103695780634c83495e146103875780635293ee81146103a35780635573e3ef146103bf576101cf565b80633d39c260146102eb5780633e1409471461031b5780634739326b14610337576101cf565b80632cc7dc1b116101ad5780632cc7dc1b146102505780632d0bc6d2146102805780632e621aca1461029c5780633888b9d5146102bb576101cf565b80630a07fae6146101d4578063181d2f82146101f057806326beb82014610220575b600080fd5b6101ee60048036038101906101e99190612916565b610630565b005b61020a600480360381019061020591906129a1565b61070d565b60405161021791906129dd565b60405180910390f35b61023a600480360381019061023591906129f8565b610740565b6040516102479190612a47565b60405180910390f35b61026a600480360381019061026591906129a1565b610771565b6040516102779190612cf8565b60405180910390f35b61029a60048036038101906102959190612d1a565b610b3d565b005b6102a4610ca1565b6040516102b2929190612ecb565b60405180910390f35b6102d560048036038101906102d09190612916565b610e61565b6040516102e2919061300d565b60405180910390f35b61030560048036038101906103009190612916565b6110f3565b60405161031291906129dd565b60405180910390f35b610335600480360381019061033091906129a1565b611132565b005b610351600480360381019061034c9190612916565b61127b565b60405161036093929190613079565b60405180910390f35b61037161135d565b60405161037e91906131c9565b60405180910390f35b6103a1600480360381019061039c9190612916565b6114ae565b005b6103bd60048036038101906103b891906131eb565b6114e0565b005b6103d960048036038101906103d49190612916565b6115de565b005b6103f560048036038101906103f09190613360565b6116d6565b6040516104029190612a47565b60405180910390f35b6104136119da565b6040516104209190613499565b60405180910390f35b610443600480360381019061043e91906129a1565b6119fe565b60405161045091906134c3565b60405180910390f35b610473600480360381019061046e91906129f8565b611a1e565b6040516104809190612a47565b60405180910390f35b6104a3600480360381019061049e91906134de565b611a4f565b005b6104ad611af5565b6040516104ba91906135e0565b60405180910390f35b6104dd60048036038101906104d8919061368c565b611b83565b005b6104e7611df4565b6040516104f49190612a47565b60405180910390f35b61051760048036038101906105129190612916565b611dfa565b005b610533600480360381019061052e91906129a1565b611e9c565b6040516105409190612cf8565b60405180910390f35b610563600480360381019061055e9190612916565b612268565b005b61057f600480360381019061057a91906129a1565b61233e565b60405161058c91906134c3565b60405180910390f35b6105af60048036038101906105aa9190612916565b6123e6565b6040516105c79c9b9a999897969594939291906136d5565b60405180910390f35b6105ea60048036038101906105e591906129a1565b6125ca565b6040516105f791906135e0565b60405180910390f35b61061a60048036038101906106159190612916565b6127f8565b60405161062791906129dd565b60405180910390f35b6106393361233e565b610678576040517f08c379a000000000000000000000000000000000000000000000000000000000815260040161066f906137e9565b60405180910390fd5b6006600082815260200190815260200160002060080160029054906101000a900460ff166106db576040517f08c379a00000000000000000000000000000000000000000000000000000000081526004016106d290613855565b60405180910390fd5b60016006600083815260200190815260200160002060080160036101000a81548160ff02191690831515021790555050565b60026020528060005260406000206000915054906101000a900473ffffffffffffffffffffffffffffffffffffffff1681565b6008602052816000526040600020818154811061075c57600080fd5b90600052602060002001600091509150505481565b60606000600860008473ffffffffffffffffffffffffffffffffffffffff1673ffffffffffffffffffffffffffffffffffffffff1681526020019081526020016000208054806020026020016040519081016040528092919081815260200182805480156107fe57602002820191906000526020600020905b8154815260200190600101908083116107ea575b505050505090506000815167ffffffffffffffff81111561082257610821613235565b5b60405190808252806020026020018201604052801561085b57816020015b610848612837565b8152602001906001900390816108405790505b50905060005b8251811015610b32576006600084838151811061088157610880613875565b5b6020026020010151815260200190815260200160002060405180610180016040529081600082015481526020016001820180546108bd906138d3565b80601f01602080910402602001604051908101604052809291908181526020018280546108e9906138d3565b80156109365780601f1061090b57610100808354040283529160200191610936565b820191906000526020600020905b81548152906001019060200180831161091957829003601f168201915b5050505050815260200160028201805461094f906138d3565b80601f016020809104026020016040519081016040528092919081815260200182805461097b906138d3565b80156109c85780601f1061099d576101008083540402835291602001916109c8565b820191906000526020600020905b8154815290600101906020018083116109ab57829003601f168201915b505050505081526020016003820160009054906101000a900473ffffffffffffffffffffffffffffffffffffffff1673ffffffffffffffffffffffffffffffffffffffff1673ffffffffffffffffffffffffffffffffffffffff1681526020016004820160009054906101000a900473ffffffffffffffffffffffffffffffffffffffff1673ffffffffffffffffffffffffffffffffffffffff1673ffffffffffffffffffffffffffffffffffffffff1681526020016005820154815260200160068201548152602001600782015481526020016008820160009054906101000a900460ff161515151581526020016008820160019054906101000a900460ff161515151581526020016008820160029054906101000a900460ff161515151581526020016008820160039054906101000a900460ff161515151581525050828281518110610b1a57610b19613875565b5b60200260200101819052508080600101915050610861565b508092505050919050565b600560008373ffffffffffffffffffffffffffffffffffffffff1673ffffffffffffffffffffffffffffffffffffffff16815260200190815260200160002060009054906101000a900460ff16610bc9576040517f08c379a0000000000000000000000000000000000000000000000000000000008152600401610bc090613950565b60405180910390fd5b6000610bd48261233e565b15610bde57600190505b80610c1e576040517f08c379a0000000000000000000000000000000000000000000000000000000008152600401610c15906139bc565b60405180910390fd5b81600260008573ffffffffffffffffffffffffffffffffffffffff1673ffffffffffffffffffffffffffffffffffffffff16815260200190815260200160002060006101000a81548173ffffffffffffffffffffffffffffffffffffffff021916908373ffffffffffffffffffffffffffffffffffffffff160217905550505050565b606080600060095467ffffffffffffffff811115610cc257610cc1613235565b5b604051908082528060200260200182016040528015610cf05781602001602082028036833780820191505090505b509050600060095467ffffffffffffffff811115610d1157610d10613235565b5b604051908082528060200260200182016040528015610d4457816020015b6060815260200190600190039081610d2f5790505b50905060005b600954811015610e54576006600082815260200190815260200160002060000154838281518110610d7e57610d7d613875565b5b602002602001018181525050600660008281526020019081526020016000206002018054610dab906138d3565b80601f0160208091040260200160405190810160405280929190818152602001828054610dd7906138d3565b8015610e245780601f10610df957610100808354040283529160200191610e24565b820191906000526020600020905b815481529060010190602001808311610e0757829003601f168201915b5050505050828281518110610e3c57610e3b613875565b5b60200260200101819052508080600101915050610d4a565b5081819350935050509091565b610e69612837565b600660008381526020019081526020016000206040518061018001604052908160008201548152602001600182018054610ea2906138d3565b80601f0160208091040260200160405190810160405280929190818152602001828054610ece906138d3565b8015610f1b5780601f10610ef057610100808354040283529160200191610f1b565b820191906000526020600020905b815481529060010190602001808311610efe57829003601f168201915b50505050508152602001600282018054610f34906138d3565b80601f0160208091040260200160405190810160405280929190818152602001828054610f60906138d3565b8015610fad5780601f10610f8257610100808354040283529160200191610fad565b820191906000526020600020905b815481529060010190602001808311610f9057829003601f168201915b505050505081526020016003820160009054906101000a900473ffffffffffffffffffffffffffffffffffffffff1673ffffffffffffffffffffffffffffffffffffffff1673ffffffffffffffffffffffffffffffffffffffff1681526020016004820160009054906101000a900473ffffffffffffffffffffffffffffffffffffffff1673ffffffffffffffffffffffffffffffffffffffff1673ffffffffffffffffffffffffffffffffffffffff1681526020016005820154815260200160068201548152602001600782015481526020016008820160009054906101000a900460ff161515151581526020016008820160019054906101000a900460ff161515151581526020016008820160029054906101000a900460ff161515151581526020016008820160039054906101000a900460ff1615151515815250509050919050565b6004818154811061110357600080fd5b906000526020600020016000915054906101000a900473ffffffffffffffffffffffffffffffffffffffff1681565b600560008273ffffffffffffffffffffffffffffffffffffffff1673ffffffffffffffffffffffffffffffffffffffff16815260200190815260200160002060009054906101000a900460ff166111be576040517f08c379a00000000000000000000000000000000000000000000000000000000081526004016111b590613950565b60405180910390fd5b60006111c98261233e565b156111d357600190505b8015611214576040517f08c379a000000000000000000000000000000000000000000000000000000000815260040161120b90613a28565b60405180910390fd5b6004829080600181540180825580915050600190039060005260206000200160009091909190916101000a81548173ffffffffffffffffffffffffffffffffffffffff021916908373ffffffffffffffffffffffffffffffffffffffff1602179055505050565b6001818154811061128b57600080fd5b90600052602060002090600302016000915090508060000180546112ae906138d3565b80601f01602080910402602001604051908101604052809291908181526020018280546112da906138d3565b80156113275780601f106112fc57610100808354040283529160200191611327565b820191906000526020600020905b81548152906001019060200180831161130a57829003601f168201915b5050505050908060010160009054906101000a900473ffffffffffffffffffffffffffffffffffffffff16908060020154905083565b60606001805480602002602001604051908101604052809291908181526020016000905b828210156114a557838290600052602060002090600302016040518060600160405290816000820180546113b4906138d3565b80601f01602080910402602001604051908101604052809291908181526020018280546113e0906138d3565b801561142d5780601f106114025761010080835404028352916020019161142d565b820191906000526020600020905b81548152906001019060200180831161141057829003601f168201915b505050505081526020016001820160009054906101000a900473ffffffffffffffffffffffffffffffffffffffff1673ffffffffffffffffffffffffffffffffffffffff1673ffffffffffffffffffffffffffffffffffffffff16815260200160028201548152505081526020019060010190611381565b50505050905090565b60016006600083815260200190815260200160002060080160006101000a81548160ff02191690831515021790555050565b600073ffffffffffffffffffffffffffffffffffffffff166006600084815260200190815260200160002060040160009054906101000a900473ffffffffffffffffffffffffffffffffffffffff1673ffffffffffffffffffffffffffffffffffffffff1614611585576040517f08c379a000000000000000000000000000000000000000000000000000000000815260040161157c90613a94565b60405180910390fd5b806006600084815260200190815260200160002060040160006101000a81548173ffffffffffffffffffffffffffffffffffffffff021916908373ffffffffffffffffffffffffffffffffffffffff1602179055505050565b6006600082815260200190815260200160002060080160009054906101000a900460ff16611641576040517f08c379a000000000000000000000000000000000000000000000000000000000815260040161163890613b00565b60405180910390fd5b6006600082815260200190815260200160002060080160019054906101000a900460ff166116a4576040517f08c379a000000000000000000000000000000000000000000000000000000000815260040161169b90613b6c565b60405180910390fd5b60016006600083815260200190815260200160002060080160026101000a81548160ff02191690831515021790555050565b600060405180610180016040528060095481526020018981526020018881526020018773ffffffffffffffffffffffffffffffffffffffff1681526020018673ffffffffffffffffffffffffffffffffffffffff168152602001858152602001848152602001838152602001600015158152602001600015158152602001600015158152602001600015158152506006600060095481526020019081526020016000206000820151816000015560208201518160010190816117989190613d2e565b5060408201518160020190816117ae9190613d2e565b5060608201518160030160006101000a81548173ffffffffffffffffffffffffffffffffffffffff021916908373ffffffffffffffffffffffffffffffffffffffff16021790555060808201518160040160006101000a81548173ffffffffffffffffffffffffffffffffffffffff021916908373ffffffffffffffffffffffffffffffffffffffff16021790555060a0820151816005015560c0820151816006015560e082015181600701556101008201518160080160006101000a81548160ff0219169083151502179055506101208201518160080160016101000a81548160ff0219169083151502179055506101408201518160080160026101000a81548160ff0219169083151502179055506101608201518160080160036101000a81548160ff021916908315150217905550905050600760008773ffffffffffffffffffffffffffffffffffffffff1673ffffffffffffffffffffffffffffffffffffffff1681526020019081526020016000206009549080600181540180825580915050600190039060005260206000200160009091909190915055600860008673ffffffffffffffffffffffffffffffffffffffff1673ffffffffffffffffffffffffffffffffffffffff1681526020019081526020016000206009549080600181540180825580915050600190039060005260206000200160009091909190915055600960008154809291906119c590613e2f565b91905055506009549050979650505050505050565b60008054906101000a900473ffffffffffffffffffffffffffffffffffffffff1681565b60056020528060005260406000206000915054906101000a900460ff1681565b60076020528160005260406000208181548110611a3a57600080fd5b90600052602060002001600091509150505481565b60008054906101000a900473ffffffffffffffffffffffffffffffffffffffff1673ffffffffffffffffffffffffffffffffffffffff166323b872dd8484846040518463ffffffff1660e01b8152600401611aac93929190613e77565b6020604051808303816000875af1158015611acb573d6000803e3d6000fd5b505050506040513d601f19601f82011682018060405250810190611aef9190613eda565b50505050565b60606004805480602002602001604051908101604052809291908181526020018280548015611b7957602002820191906000526020600020905b8160009054906101000a900473ffffffffffffffffffffffffffffffffffffffff1673ffffffffffffffffffffffffffffffffffffffff1681526020019060010190808311611b2f575b5050505050905090565b60056000826020015173ffffffffffffffffffffffffffffffffffffffff1673ffffffffffffffffffffffffffffffffffffffff16815260200190815260200160002060009054906101000a900460ff1615611c14576040517f08c379a0000000000000000000000000000000000000000000000000000000008152600401611c0b90613f53565b60405180910390fd5b60056000826020015173ffffffffffffffffffffffffffffffffffffffff1673ffffffffffffffffffffffffffffffffffffffff16815260200190815260200160002060009054906101000a900460ff1615611ca5576040517f08c379a0000000000000000000000000000000000000000000000000000000008152600401611c9c90613f53565b60405180910390fd5b60018080549050611cb69190613f73565b81604001818152505060018190806001815401808255809150506001900390600052602060002090600302016000909190919091506000820151816000019081611d009190613d2e565b5060208201518160010160006101000a81548173ffffffffffffffffffffffffffffffffffffffff021916908373ffffffffffffffffffffffffffffffffffffffff160217905550604082015181600201555050600160056000836020015173ffffffffffffffffffffffffffffffffffffffff1673ffffffffffffffffffffffffffffffffffffffff16815260200190815260200160002060006101000a81548160ff0219169083151502179055507f8235117616296a5606417b9a4405cbbdc80ae25e515ca1d48fc665c0b6ba66af81602001518260400151604051611de9929190613fa7565b60405180910390a150565b60095481565b60008054906101000a900473ffffffffffffffffffffffffffffffffffffffff1673ffffffffffffffffffffffffffffffffffffffff1663095ea7b330836040518363ffffffff1660e01b8152600401611e55929190613fa7565b6020604051808303816000875af1158015611e74573d6000803e3d6000fd5b505050506040513d601f19601f82011682018060405250810190611e989190613eda565b5050565b60606000600760008473ffffffffffffffffffffffffffffffffffffffff1673ffffffffffffffffffffffffffffffffffffffff168152602001908152602001600020805480602002602001604051908101604052809291908181526020018280548015611f2957602002820191906000526020600020905b815481526020019060010190808311611f15575b505050505090506000815167ffffffffffffffff811115611f4d57611f4c613235565b5b604051908082528060200260200182016040528015611f8657816020015b611f73612837565b815260200190600190039081611f6b5790505b50905060005b825181101561225d5760066000848381518110611fac57611fab613875565b5b602002602001015181526020019081526020016000206040518061018001604052908160008201548152602001600182018054611fe8906138d3565b80601f0160208091040260200160405190810160405280929190818152602001828054612014906138d3565b80156120615780601f1061203657610100808354040283529160200191612061565b820191906000526020600020905b81548152906001019060200180831161204457829003601f168201915b5050505050815260200160028201805461207a906138d3565b80601f01602080910402602001604051908101604052809291908181526020018280546120a6906138d3565b80156120f35780601f106120c8576101008083540402835291602001916120f3565b820191906000526020600020905b8154815290600101906020018083116120d657829003601f168201915b505050505081526020016003820160009054906101000a900473ffffffffffffffffffffffffffffffffffffffff1673ffffffffffffffffffffffffffffffffffffffff1673ffffffffffffffffffffffffffffffffffffffff1681526020016004820160009054906101000a900473ffffffffffffffffffffffffffffffffffffffff1673ffffffffffffffffffffffffffffffffffffffff1673ffffffffffffffffffffffffffffffffffffffff1681526020016005820154815260200160068201548152602001600782015481526020016008820160009054906101000a900460ff161515151581526020016008820160019054906101000a900460ff161515151581526020016008820160029054906101000a900460ff161515151581526020016008820160039054906101000a900460ff16151515158152505082828151811061224557612244613875565b5b60200260200101819052508080600101915050611f8c565b508092505050919050565b3373ffffffffffffffffffffffffffffffffffffffff166006600083815260200190815260200160002060040160009054906101000a900473ffffffffffffffffffffffffffffffffffffffff1673ffffffffffffffffffffffffffffffffffffffff161461230c576040517f08c379a000000000000000000000000000000000000000000000000000000000815260040161230390614042565b60405180910390fd5b60016006600083815260200190815260200160002060080160016101000a81548160ff02191690831515021790555050565b6000806000905060005b6004805490508110156123dc578373ffffffffffffffffffffffffffffffffffffffff16600482815481106123805761237f613875565b5b9060005260206000200160009054906101000a900473ffffffffffffffffffffffffffffffffffffffff1673ffffffffffffffffffffffffffffffffffffffff16036123cf57600191506123dc565b8080600101915050612348565b5080915050919050565b600660205280600052604060002060009150905080600001549080600101805461240f906138d3565b80601f016020809104026020016040519081016040528092919081815260200182805461243b906138d3565b80156124885780601f1061245d57610100808354040283529160200191612488565b820191906000526020600020905b81548152906001019060200180831161246b57829003601f168201915b50505050509080600201805461249d906138d3565b80601f01602080910402602001604051908101604052809291908181526020018280546124c9906138d3565b80156125165780601f106124eb57610100808354040283529160200191612516565b820191906000526020600020905b8154815290600101906020018083116124f957829003601f168201915b5050505050908060030160009054906101000a900473ffffffffffffffffffffffffffffffffffffffff16908060040160009054906101000a900473ffffffffffffffffffffffffffffffffffffffff16908060050154908060060154908060070154908060080160009054906101000a900460ff16908060080160019054906101000a900460ff16908060080160029054906101000a900460ff16908060080160039054906101000a900460ff1690508c565b606060005b600180549050811015612769578273ffffffffffffffffffffffffffffffffffffffff16600260006001848154811061260b5761260a613875565b5b906000526020600020906003020160010160009054906101000a900473ffffffffffffffffffffffffffffffffffffffff1673ffffffffffffffffffffffffffffffffffffffff1673ffffffffffffffffffffffffffffffffffffffff16815260200190815260200160002060009054906101000a900473ffffffffffffffffffffffffffffffffffffffff1673ffffffffffffffffffffffffffffffffffffffff160361275c576003600182815481106126c9576126c8613875565b5b906000526020600020906003020160010160009054906101000a900473ffffffffffffffffffffffffffffffffffffffff169080600181540180825580915050600190039060005260206000200160009091909190916101000a81548173ffffffffffffffffffffffffffffffffffffffff021916908373ffffffffffffffffffffffffffffffffffffffff1602179055505b80806001019150506125cf565b5060038054806020026020016040519081016040528092919081815260200182805480156127ec57602002820191906000526020600020905b8160009054906101000a900473ffffffffffffffffffffffffffffffffffffffff1673ffffffffffffffffffffffffffffffffffffffff16815260200190600101908083116127a2575b50505050509050919050565b6003818154811061280857600080fd5b906000526020600020016000915054906101000a900473ffffffffffffffffffffffffffffffffffffffff1681565b604051806101800160405280600081526020016060815260200160608152602001600073ffffffffffffffffffffffffffffffffffffffff168152602001600073ffffffffffffffffffffffffffffffffffffffff1681526020016000815260200160008152602001600081526020016000151581526020016000151581526020016000151581526020016000151581525090565b6000604051905090565b600080fd5b600080fd5b6000819050919050565b6128f3816128e0565b81146128fe57600080fd5b50565b600081359050612910816128ea565b92915050565b60006020828403121561292c5761292b6128d6565b5b600061293a84828501612901565b91505092915050565b600073ffffffffffffffffffffffffffffffffffffffff82169050919050565b600061296e82612943565b9050919050565b61297e81612963565b811461298957600080fd5b50565b60008135905061299b81612975565b92915050565b6000602082840312156129b7576129b66128d6565b5b60006129c58482850161298c565b91505092915050565b6129d781612963565b82525050565b60006020820190506129f260008301846129ce565b92915050565b60008060408385031215612a0f57612a0e6128d6565b5b6000612a1d8582860161298c565b9250506020612a2e85828601612901565b9150509250929050565b612a41816128e0565b82525050565b6000602082019050612a5c6000830184612a38565b92915050565b600081519050919050565b600082825260208201905092915050565b6000819050602082019050919050565b612a97816128e0565b82525050565b600081519050919050565b600082825260208201905092915050565b60005b83811015612ad7578082015181840152602081019050612abc565b60008484015250505050565b6000601f19601f8301169050919050565b6000612aff82612a9d565b612b098185612aa8565b9350612b19818560208601612ab9565b612b2281612ae3565b840191505092915050565b612b3681612963565b82525050565b60008115159050919050565b612b5181612b3c565b82525050565b600061018083016000830151612b706000860182612a8e565b5060208301518482036020860152612b888282612af4565b91505060408301518482036040860152612ba28282612af4565b9150506060830151612bb76060860182612b2d565b506080830151612bca6080860182612b2d565b5060a0830151612bdd60a0860182612a8e565b5060c0830151612bf060c0860182612a8e565b5060e0830151612c0360e0860182612a8e565b50610100830151612c18610100860182612b48565b50610120830151612c2d610120860182612b48565b50610140830151612c42610140860182612b48565b50610160830151612c57610160860182612b48565b508091505092915050565b6000612c6e8383612b57565b905092915050565b6000602082019050919050565b6000612c8e82612a62565b612c988185612a6d565b935083602082028501612caa85612a7e565b8060005b85811015612ce65784840389528151612cc78582612c62565b9450612cd283612c76565b925060208a01995050600181019050612cae565b50829750879550505050505092915050565b60006020820190508181036000830152612d128184612c83565b905092915050565b60008060408385031215612d3157612d306128d6565b5b6000612d3f8582860161298c565b9250506020612d508582860161298c565b9150509250929050565b600081519050919050565b600082825260208201905092915050565b6000819050602082019050919050565b6000612d928383612a8e565b60208301905092915050565b6000602082019050919050565b6000612db682612d5a565b612dc08185612d65565b9350612dcb83612d76565b8060005b83811015612dfc578151612de38882612d86565b9750612dee83612d9e565b925050600181019050612dcf565b5085935050505092915050565b600081519050919050565b600082825260208201905092915050565b6000819050602082019050919050565b6000612e418383612af4565b905092915050565b6000602082019050919050565b6000612e6182612e09565b612e6b8185612e14565b935083602082028501612e7d85612e25565b8060005b85811015612eb95784840389528151612e9a8582612e35565b9450612ea583612e49565b925060208a01995050600181019050612e81565b50829750879550505050505092915050565b60006040820190508181036000830152612ee58185612dab565b90508181036020830152612ef98184612e56565b90509392505050565b600061018083016000830151612f1b6000860182612a8e565b5060208301518482036020860152612f338282612af4565b91505060408301518482036040860152612f4d8282612af4565b9150506060830151612f626060860182612b2d565b506080830151612f756080860182612b2d565b5060a0830151612f8860a0860182612a8e565b5060c0830151612f9b60c0860182612a8e565b5060e0830151612fae60e0860182612a8e565b50610100830151612fc3610100860182612b48565b50610120830151612fd8610120860182612b48565b50610140830151612fed610140860182612b48565b50610160830151613002610160860182612b48565b508091505092915050565b600060208201905081810360008301526130278184612f02565b905092915050565b600082825260208201905092915050565b600061304b82612a9d565b613055818561302f565b9350613065818560208601612ab9565b61306e81612ae3565b840191505092915050565b600060608201905081810360008301526130938186613040565b90506130a260208301856129ce565b6130af6040830184612a38565b949350505050565b600081519050919050565b600082825260208201905092915050565b6000819050602082019050919050565b600060608301600083015184820360008601526131008282612af4565b91505060208301516131156020860182612b2d565b5060408301516131286040860182612a8e565b508091505092915050565b600061313f83836130e3565b905092915050565b6000602082019050919050565b600061315f826130b7565b61316981856130c2565b93508360208202850161317b856130d3565b8060005b858110156131b757848403895281516131988582613133565b94506131a383613147565b925060208a0199505060018101905061317f565b50829750879550505050505092915050565b600060208201905081810360008301526131e38184613154565b905092915050565b60008060408385031215613202576132016128d6565b5b600061321085828601612901565b92505060206132218582860161298c565b9150509250929050565b600080fd5b600080fd5b7f4e487b7100000000000000000000000000000000000000000000000000000000600052604160045260246000fd5b61326d82612ae3565b810181811067ffffffffffffffff8211171561328c5761328b613235565b5b80604052505050565b600061329f6128cc565b90506132ab8282613264565b919050565b600067ffffffffffffffff8211156132cb576132ca613235565b5b6132d482612ae3565b9050602081019050919050565b82818337600083830152505050565b60006133036132fe846132b0565b613295565b90508281526020810184848401111561331f5761331e613230565b5b61332a8482856132e1565b509392505050565b600082601f8301126133475761334661322b565b5b81356133578482602086016132f0565b91505092915050565b600080600080600080600060e0888a03121561337f5761337e6128d6565b5b600088013567ffffffffffffffff81111561339d5761339c6128db565b5b6133a98a828b01613332565b975050602088013567ffffffffffffffff8111156133ca576133c96128db565b5b6133d68a828b01613332565b96505060406133e78a828b0161298c565b95505060606133f88a828b0161298c565b94505060806134098a828b01612901565b93505060a061341a8a828b01612901565b92505060c061342b8a828b01612901565b91505092959891949750929550565b6000819050919050565b600061345f61345a61345584612943565b61343a565b612943565b9050919050565b600061347182613444565b9050919050565b600061348382613466565b9050919050565b61349381613478565b82525050565b60006020820190506134ae600083018461348a565b92915050565b6134bd81612b3c565b82525050565b60006020820190506134d860008301846134b4565b92915050565b6000806000606084860312156134f7576134f66128d6565b5b60006135058682870161298c565b93505060206135168682870161298c565b925050604061352786828701612901565b9150509250925092565b600081519050919050565b600082825260208201905092915050565b6000819050602082019050919050565b60006135698383612b2d565b60208301905092915050565b6000602082019050919050565b600061358d82613531565b613597818561353c565b93506135a28361354d565b8060005b838110156135d35781516135ba888261355d565b97506135c583613575565b9250506001810190506135a6565b5085935050505092915050565b600060208201905081810360008301526135fa8184613582565b905092915050565b600080fd5b600080fd5b60006060828403121561362257613621613602565b5b61362c6060613295565b9050600082013567ffffffffffffffff81111561364c5761364b613607565b5b61365884828501613332565b600083015250602061366c8482850161298c565b602083015250604061368084828501612901565b60408301525092915050565b6000602082840312156136a2576136a16128d6565b5b600082013567ffffffffffffffff8111156136c0576136bf6128db565b5b6136cc8482850161360c565b91505092915050565b6000610180820190506136eb600083018f612a38565b81810360208301526136fd818e613040565b90508181036040830152613711818d613040565b9050613720606083018c6129ce565b61372d608083018b6129ce565b61373a60a083018a612a38565b61374760c0830189612a38565b61375460e0830188612a38565b6137626101008301876134b4565b6137706101208301866134b4565b61377e6101408301856134b4565b61378c6101608301846134b4565b9d9c50505050505050505050505050565b7f4f6e6c79204d616e616765722063616e20617070726f76650000000000000000600082015250565b60006137d360188361302f565b91506137de8261379d565b602082019050919050565b60006020820190508181036000830152613802816137c6565b9050919050565b7f5461736b206973204e6f74207665726966696564000000000000000000000000600082015250565b600061383f60148361302f565b915061384a82613809565b602082019050919050565b6000602082019050818103600083015261386e81613832565b9050919050565b7f4e487b7100000000000000000000000000000000000000000000000000000000600052603260045260246000fd5b7f4e487b7100000000000000000000000000000000000000000000000000000000600052602260045260246000fd5b600060028204905060018216806138eb57607f821691505b6020821081036138fe576138fd6138a4565b5b50919050565b7f456d706c6f796565206e6f742072656769737465726564000000000000000000600082015250565b600061393a60178361302f565b915061394582613904565b602082019050919050565b600060208201905081810360008301526139698161392d565b9050919050565b7f4d616e61676572206e6f74207265676973746572656400000000000000000000600082015250565b60006139a660168361302f565b91506139b182613970565b602082019050919050565b600060208201905081810360008301526139d581613999565b9050919050565b7f4d616e6167657220616c72656164792072656769737465726564000000000000600082015250565b6000613a12601a8361302f565b9150613a1d826139dc565b602082019050919050565b60006020820190508181036000830152613a4181613a05565b9050919050565b7f5461736b20416c72656164792061737369676e65640000000000000000000000600082015250565b6000613a7e60158361302f565b9150613a8982613a48565b602082019050919050565b60006020820190508181036000830152613aad81613a71565b9050919050565b7f5461736b206973204e6f7420696e2d70726f6772657373000000000000000000600082015250565b6000613aea60178361302f565b9150613af582613ab4565b602082019050919050565b60006020820190508181036000830152613b1981613add565b9050919050565b7f5461736b204e6f7420636f6d706c657465640000000000000000000000000000600082015250565b6000613b5660128361302f565b9150613b6182613b20565b602082019050919050565b60006020820190508181036000830152613b8581613b49565b9050919050565b60008190508160005260206000209050919050565b60006020601f8301049050919050565b600082821b905092915050565b600060088302613bee7fffffffffffffffffffffffffffffffffffffffffffffffffffffffffffffffff82613bb1565b613bf88683613bb1565b95508019841693508086168417925050509392505050565b6000613c2b613c26613c21846128e0565b61343a565b6128e0565b9050919050565b6000819050919050565b613c4583613c10565b613c59613c5182613c32565b848454613bbe565b825550505050565b600090565b613c6e613c61565b613c79818484613c3c565b505050565b5b81811015613c9d57613c92600082613c66565b600181019050613c7f565b5050565b601f821115613ce257613cb381613b8c565b613cbc84613ba1565b81016020851015613ccb578190505b613cdf613cd785613ba1565b830182613c7e565b50505b505050565b600082821c905092915050565b6000613d0560001984600802613ce7565b1980831691505092915050565b6000613d1e8383613cf4565b9150826002028217905092915050565b613d3782612a9d565b67ffffffffffffffff811115613d5057613d4f613235565b5b613d5a82546138d3565b613d65828285613ca1565b600060209050601f831160018114613d985760008415613d86578287015190505b613d908582613d12565b865550613df8565b601f198416613da686613b8c565b60005b82811015613dce57848901518255600182019150602085019450602081019050613da9565b86831015613deb5784890151613de7601f891682613cf4565b8355505b6001600288020188555050505b505050505050565b7f4e487b7100000000000000000000000000000000000000000000000000000000600052601160045260246000fd5b6000613e3a826128e0565b91507fffffffffffffffffffffffffffffffffffffffffffffffffffffffffffffffff8203613e6c57613e6b613e00565b5b600182019050919050565b6000606082019050613e8c60008301866129ce565b613e9960208301856129ce565b613ea66040830184612a38565b949350505050565b613eb781612b3c565b8114613ec257600080fd5b50565b600081519050613ed481613eae565b92915050565b600060208284031215613ef057613eef6128d6565b5b6000613efe84828501613ec5565b91505092915050565b7f456d706c6f79656520616c726561647920726567697374657265640000000000600082015250565b6000613f3d601b8361302f565b9150613f4882613f07565b602082019050919050565b60006020820190508181036000830152613f6c81613f30565b9050919050565b6000613f7e826128e0565b9150613f89836128e0565b9250828201905080821115613fa157613fa0613e00565b5b92915050565b6000604082019050613fbc60008301856129ce565b613fc96020830184612a38565b9392505050565b7f4f6e6c792041737369676e656420454d706c6f7965652063616e206368616e6760008201527f6520737461747573000000000000000000000000000000000000000000000000602082015250565b600061402c60288361302f565b915061403782613fd0565b604082019050919050565b6000602082019050818103600083015261405b8161401f565b905091905056fea26469706673582212201255e88c377a1d3d847268ddcebc887057fcbff55263235b42d54a5806ccf7a164736f6c63430008180033",
  "linkReferences": {},
  "deployedLinkReferences": {}
}