{
  "_format": "hh-sol-artifact-1",
  "contractName": "Token",
  "sourceName": "contracts/Token.sol",
  "abi": [
    {
      "inputs": [
        {
          "internalType": "string",
          "name": "name_",
          "type": "string"
        },
        {
          "internalType": "string",
          "name": "symbol_",
          "type": "string"
        }
      ],
      "stateMutability": "nonpayable",
      "type": "constructor"
    },
    {
      "inputs": [
        {
          "internalType": "address",
          "name": "spender",
          "type": "address"
        },
        {
          "internalType": "uint256",
          "name": "allowance",
          "type": "uint256"
        },
        {
          "internalType": "uint256",
          "name": "needed",
          "type": "uint256"
        }
      ],
      "name": "ERC20InsufficientAllowance",
      "type": "error"
    },
    {
      "inputs": [
        {
          "internalType": "address",
          "name": "sender",
          "type": "address"
        },
        {
          "internalType": "uint256",
          "name": "balance",
          "type": "uint256"
        },
        {
          "internalType": "uint256",
          "name": "needed",
          "type": "uint256"
        }
      ],
      "name": "ERC20InsufficientBalance",
      "type": "error"
    },
    {
      "inputs": [
        {
          "internalType": "address",
          "name": "approver",
          "type": "address"
        }
      ],
      "name": "ERC20InvalidApprover",
      "type": "error"
    },
    {
      "inputs": [
        {
          "internalType": "address",
          "name": "receiver",
          "type": "address"
        }
      ],
      "name": "ERC20InvalidReceiver",
      "type": "error"
    },
    {
      "inputs": [
        {
          "internalType": "address",
          "name": "sender",
          "type": "address"
        }
      ],
      "name": "ERC20InvalidSender",
      "type": "error"
    },
    {
      "inputs": [
        {
          "internalType": "address",
          "name": "spender",
          "type": "address"
        }
      ],
      "name": "ERC20InvalidSpender",
      "type": "error"
    },
    {
      "anonymous": false,
      "inputs": [
        {
          "indexed": true,
          "internalType": "address",
          "name": "owner",
          "type": "address"
        },
        {
          "indexed": true,
          "internalType": "address",
          "name": "spender",
          "type": "address"
        },
        {
          "indexed": false,
          "internalType": "uint256",
          "name": "value",
          "type": "uint256"
        }
      ],
      "name": "Approval",
      "type": "event"
    },
    {
      "anonymous": false,
      "inputs": [
        {
          "indexed": true,
          "internalType": "address",
          "name": "from",
          "type": "address"
        },
        {
          "indexed": true,
          "internalType": "address",
          "name": "to",
          "type": "address"
        },
        {
          "indexed": false,
          "internalType": "uint256",
          "name": "value",
          "type": "uint256"
        }
      ],
      "name": "Transfer",
      "type": "event"
    },
    {
      "inputs": [
        {
          "internalType": "address",
          "name": "owner",
          "type": "address"
        },
        {
          "internalType": "address",
          "name": "spender",
          "type": "address"
        }
      ],
      "name": "allowance",
      "outputs": [
        {
          "internalType": "uint256",
          "name": "",
          "type": "uint256"
        }
      ],
      "stateMutability": "view",
      "type": "function"
    },
    {
      "inputs": [
        {
          "internalType": "address",
          "name": "spender",
          "type": "address"
        },
        {
          "internalType": "uint256",
          "name": "value",
          "type": "uint256"
        }
      ],
      "name": "approve",
      "outputs": [
        {
          "internalType": "bool",
          "name": "",
          "type": "bool"
        }
      ],
      "stateMutability": "nonpayable",
      "type": "function"
    },
    {
      "inputs": [
        {
          "internalType": "address",
          "name": "account",
          "type": "address"
        }
      ],
      "name": "balanceOf",
      "outputs": [
        {
          "internalType": "uint256",
          "name": "",
          "type": "uint256"
        }
      ],
      "stateMutability": "view",
      "type": "function"
    },
    {
      "inputs": [],
      "name": "decimals",
      "outputs": [
        {
          "internalType": "uint8",
          "name": "",
          "type": "uint8"
        }
      ],
      "stateMutability": "view",
      "type": "function"
    },
    {
      "inputs": [],
      "name": "maxSupply",
      "outputs": [
        {
          "internalType": "uint256",
          "name": "",
          "type": "uint256"
        }
      ],
      "stateMutability": "view",
      "type": "function"
    },
    {
      "inputs": [
        {
          "internalType": "address",
          "name": "account",
          "type": "address"
        },
        {
          "internalType": "uint256",
          "name": "amount",
          "type": "uint256"
        }
      ],
      "name": "mint",
      "outputs": [],
      "stateMutability": "nonpayable",
      "type": "function"
    },
    {
      "inputs": [],
      "name": "name",
      "outputs": [
        {
          "internalType": "string",
          "name": "",
          "type": "string"
        }
      ],
      "stateMutability": "view",
      "type": "function"
    },
    {
      "inputs": [],
      "name": "owner",
      "outputs": [
        {
          "internalType": "address",
          "name": "",
          "type": "address"
        }
      ],
      "stateMutability": "view",
      "type": "function"
    },
    {
      "inputs": [],
      "name": "symbol",
      "outputs": [
        {
          "internalType": "string",
          "name": "",
          "type": "string"
        }
      ],
      "stateMutability": "view",
      "type": "function"
    },
    {
      "inputs": [],
      "name": "totalSupply",
      "outputs": [
        {
          "internalType": "uint256",
          "name": "",
          "type": "uint256"
        }
      ],
      "stateMutability": "view",
      "type": "function"
    },
    {
      "inputs": [
        {
          "internalType": "address",
          "name": "to",
          "type": "address"
        },
        {
          "internalType": "uint256",
          "name": "value",
          "type": "uint256"
        }
      ],
      "name": "transfer",
      "outputs": [
        {
          "internalType": "bool",
          "name": "",
          "type": "bool"
        }
      ],
      "stateMutability": "nonpayable",
      "type": "function"
    },
    {
      "inputs": [
        {
          "internalType": "address",
          "name": "from",
          "type": "address"
        },
        {
          "internalType": "address",
          "name": "to",
          "type": "address"
        },
        {
          "internalType": "uint256",
          "name": "value",
          "type": "uint256"
        }
      ],
      "name": "transferFrom",
      "outputs": [
        {
          "internalType": "bool",
          "name": "",
          "type": "bool"
        }
      ],
      "stateMutability": "nonpayable",
      "type": "function"
    }
  ],
  "bytecode": "0x60806040523480156200001157600080fd5b5060405162001e4d38038062001e4d833981810160405281019062000037919062000609565b6040518060400160405280600781526020017f5441534b544f4b000000000000000000000000000000000000000000000000008152506040518060400160405280600381526020017f54544b00000000000000000000000000000000000000000000000000000000008152508160039081620000b49190620008d9565b508060049081620000c69190620008d9565b505050620000d9620001b060201b60201c565b600a620000e7919062000b50565b620f4240620000f7919062000ba1565b6007819055506200010d620001b060201b60201c565b600a6200011b919062000b50565b629896806200012b919062000ba1565b60068190555033600560006101000a81548173ffffffffffffffffffffffffffffffffffffffff021916908373ffffffffffffffffffffffffffffffffffffffff160217905550620001a8600560009054906101000a900473ffffffffffffffffffffffffffffffffffffffff16600754620001b960201b60201c565b505062000cf4565b60006012905090565b600073ffffffffffffffffffffffffffffffffffffffff168273ffffffffffffffffffffffffffffffffffffffff16036200022e5760006040517fec442f0500000000000000000000000000000000000000000000000000000000815260040162000225919062000c31565b60405180910390fd5b62000242600083836200024660201b60201c565b5050565b600073ffffffffffffffffffffffffffffffffffffffff168373ffffffffffffffffffffffffffffffffffffffff16036200029c5780600260008282546200028f919062000c4e565b9250508190555062000372565b60008060008573ffffffffffffffffffffffffffffffffffffffff1673ffffffffffffffffffffffffffffffffffffffff168152602001908152602001600020549050818110156200032b578381836040517fe450d38c000000000000000000000000000000000000000000000000000000008152600401620003229392919062000c9a565b60405180910390fd5b8181036000808673ffffffffffffffffffffffffffffffffffffffff1673ffffffffffffffffffffffffffffffffffffffff16815260200190815260200160002081905550505b600073ffffffffffffffffffffffffffffffffffffffff168273ffffffffffffffffffffffffffffffffffffffff1603620003bd57806002600082825403925050819055506200040a565b806000808473ffffffffffffffffffffffffffffffffffffffff1673ffffffffffffffffffffffffffffffffffffffff168152602001908152602001600020600082825401925050819055505b8173ffffffffffffffffffffffffffffffffffffffff168373ffffffffffffffffffffffffffffffffffffffff167fddf252ad1be2c89b69c2b068fc378daa952ba7f163c4a11628f55a4df523b3ef8360405162000469919062000cd7565b60405180910390a3505050565b6000604051905090565b600080fd5b600080fd5b600080fd5b600080fd5b6000601f19601f8301169050919050565b7f4e487b7100000000000000000000000000000000000000000000000000000000600052604160045260246000fd5b620004df8262000494565b810181811067ffffffffffffffff82111715620005015762000500620004a5565b5b80604052505050565b60006200051662000476565b9050620005248282620004d4565b919050565b600067ffffffffffffffff821115620005475762000546620004a5565b5b620005528262000494565b9050602081019050919050565b60005b838110156200057f57808201518184015260208101905062000562565b60008484015250505050565b6000620005a26200059c8462000529565b6200050a565b905082815260208101848484011115620005c157620005c06200048f565b5b620005ce8482856200055f565b509392505050565b600082601f830112620005ee57620005ed6200048a565b5b8151620006008482602086016200058b565b91505092915050565b6000806040838503121562000623576200062262000480565b5b600083015167ffffffffffffffff81111562000644576200064362000485565b5b6200065285828601620005d6565b925050602083015167ffffffffffffffff81111562000676576200067562000485565b5b6200068485828601620005d6565b9150509250929050565b600081519050919050565b7f4e487b7100000000000000000000000000000000000000000000000000000000600052602260045260246000fd5b60006002820490506001821680620006e157607f821691505b602082108103620006f757620006f662000699565b5b50919050565b60008190508160005260206000209050919050565b60006020601f8301049050919050565b600082821b905092915050565b600060088302620007617fffffffffffffffffffffffffffffffffffffffffffffffffffffffffffffffff8262000722565b6200076d868362000722565b95508019841693508086168417925050509392505050565b6000819050919050565b6000819050919050565b6000620007ba620007b4620007ae8462000785565b6200078f565b62000785565b9050919050565b6000819050919050565b620007d68362000799565b620007ee620007e582620007c1565b8484546200072f565b825550505050565b600090565b62000805620007f6565b62000812818484620007cb565b505050565b5b818110156200083a576200082e600082620007fb565b60018101905062000818565b5050565b601f82111562000889576200085381620006fd565b6200085e8462000712565b810160208510156200086e578190505b620008866200087d8562000712565b83018262000817565b50505b505050565b600082821c905092915050565b6000620008ae600019846008026200088e565b1980831691505092915050565b6000620008c983836200089b565b9150826002028217905092915050565b620008e4826200068e565b67ffffffffffffffff8111156200090057620008ff620004a5565b5b6200090c8254620006c8565b620009198282856200083e565b600060209050601f8311600181146200095157600084156200093c578287015190505b620009488582620008bb565b865550620009b8565b601f1984166200096186620006fd565b60005b828110156200098b5784890151825560018201915060208501945060208101905062000964565b86831015620009ab5784890151620009a7601f8916826200089b565b8355505b6001600288020188555050505b505050505050565b7f4e487b7100000000000000000000000000000000000000000000000000000000600052601160045260246000fd5b60008160011c9050919050565b6000808291508390505b600185111562000a4e5780860481111562000a265762000a25620009c0565b5b600185161562000a365780820291505b808102905062000a4685620009ef565b945062000a06565b94509492505050565b60008262000a69576001905062000b3c565b8162000a79576000905062000b3c565b816001811462000a92576002811462000a9d5762000ad3565b600191505062000b3c565b60ff84111562000ab25762000ab1620009c0565b5b8360020a91508482111562000acc5762000acb620009c0565b5b5062000b3c565b5060208310610133831016604e8410600b841016171562000b0d5782820a90508381111562000b075762000b06620009c0565b5b62000b3c565b62000b1c8484846001620009fc565b9250905081840481111562000b365762000b35620009c0565b5b81810290505b9392505050565b600060ff82169050919050565b600062000b5d8262000785565b915062000b6a8362000b43565b925062000b997fffffffffffffffffffffffffffffffffffffffffffffffffffffffffffffffff848462000a57565b905092915050565b600062000bae8262000785565b915062000bbb8362000785565b925082820262000bcb8162000785565b9150828204841483151762000be55762000be4620009c0565b5b5092915050565b600073ffffffffffffffffffffffffffffffffffffffff82169050919050565b600062000c198262000bec565b9050919050565b62000c2b8162000c0c565b82525050565b600060208201905062000c48600083018462000c20565b92915050565b600062000c5b8262000785565b915062000c688362000785565b925082820190508082111562000c835762000c82620009c0565b5b92915050565b62000c948162000785565b82525050565b600060608201905062000cb1600083018662000c20565b62000cc0602083018562000c89565b62000ccf604083018462000c89565b949350505050565b600060208201905062000cee600083018462000c89565b92915050565b6111498062000d046000396000f3fe608060405234801561001057600080fd5b50600436106100b45760003560e01c806370a082311161007157806370a082311461018f5780638da5cb5b146101bf57806395d89b41146101dd578063a9059cbb146101fb578063d5abeb011461022b578063dd62ed3e14610249576100b4565b806306fdde03146100b9578063095ea7b3146100d757806318160ddd1461010757806323b872dd14610125578063313ce5671461015557806340c10f1914610173575b600080fd5b6100c1610279565b6040516100ce9190610cc5565b60405180910390f35b6100f160048036038101906100ec9190610d80565b61030b565b6040516100fe9190610ddb565b60405180910390f35b61010f61032e565b60405161011c9190610e05565b60405180910390f35b61013f600480360381019061013a9190610e20565b610338565b60405161014c9190610ddb565b60405180910390f35b61015d610367565b60405161016a9190610e8f565b60405180910390f35b61018d60048036038101906101889190610d80565b610370565b005b6101a960048036038101906101a49190610eaa565b610465565b6040516101b69190610e05565b60405180910390f35b6101c76104ad565b6040516101d49190610ee6565b60405180910390f35b6101e56104d3565b6040516101f29190610cc5565b60405180910390f35b61021560048036038101906102109190610d80565b610565565b6040516102229190610ddb565b60405180910390f35b610233610588565b6040516102409190610e05565b60405180910390f35b610263600480360381019061025e9190610f01565b61058e565b6040516102709190610e05565b60405180910390f35b60606003805461028890610f70565b80601f01602080910402602001604051908101604052809291908181526020018280546102b490610f70565b80156103015780601f106102d657610100808354040283529160200191610301565b820191906000526020600020905b8154815290600101906020018083116102e457829003601f168201915b5050505050905090565b600080610316610615565b905061032381858561061d565b600191505092915050565b6000600254905090565b600080610343610615565b905061035085828561062f565b61035b8585856106c3565b60019150509392505050565b60006012905090565b600560009054906101000a900473ffffffffffffffffffffffffffffffffffffffff1673ffffffffffffffffffffffffffffffffffffffff163373ffffffffffffffffffffffffffffffffffffffff1614610400576040517f08c379a00000000000000000000000000000000000000000000000000000000081526004016103f790610fed565b60405180910390fd5b6006548161040c61032e565b610416919061103c565b1115610457576040517f08c379a000000000000000000000000000000000000000000000000000000000815260040161044e906110bc565b60405180910390fd5b61046182826107b7565b5050565b60008060008373ffffffffffffffffffffffffffffffffffffffff1673ffffffffffffffffffffffffffffffffffffffff168152602001908152602001600020549050919050565b600560009054906101000a900473ffffffffffffffffffffffffffffffffffffffff1681565b6060600480546104e290610f70565b80601f016020809104026020016040519081016040528092919081815260200182805461050e90610f70565b801561055b5780601f106105305761010080835404028352916020019161055b565b820191906000526020600020905b81548152906001019060200180831161053e57829003601f168201915b5050505050905090565b600080610570610615565b905061057d8185856106c3565b600191505092915050565b60065481565b6000600160008473ffffffffffffffffffffffffffffffffffffffff1673ffffffffffffffffffffffffffffffffffffffff16815260200190815260200160002060008373ffffffffffffffffffffffffffffffffffffffff1673ffffffffffffffffffffffffffffffffffffffff16815260200190815260200160002054905092915050565b600033905090565b61062a8383836001610839565b505050565b600061063b848461058e565b90507fffffffffffffffffffffffffffffffffffffffffffffffffffffffffffffffff81146106bd57818110156106ad578281836040517ffb8f41b20000000000000000000000000000000000000000000000000000000081526004016106a4939291906110dc565b60405180910390fd5b6106bc84848484036000610839565b5b50505050565b600073ffffffffffffffffffffffffffffffffffffffff168373ffffffffffffffffffffffffffffffffffffffff16036107355760006040517f96c6fd1e00000000000000000000000000000000000000000000000000000000815260040161072c9190610ee6565b60405180910390fd5b600073ffffffffffffffffffffffffffffffffffffffff168273ffffffffffffffffffffffffffffffffffffffff16036107a75760006040517fec442f0500000000000000000000000000000000000000000000000000000000815260040161079e9190610ee6565b60405180910390fd5b6107b2838383610a10565b505050565b600073ffffffffffffffffffffffffffffffffffffffff168273ffffffffffffffffffffffffffffffffffffffff16036108295760006040517fec442f050000000000000000000000000000000000000000000000000000000081526004016108209190610ee6565b60405180910390fd5b61083560008383610a10565b5050565b600073ffffffffffffffffffffffffffffffffffffffff168473ffffffffffffffffffffffffffffffffffffffff16036108ab5760006040517fe602df050000000000000000000000000000000000000000000000000000000081526004016108a29190610ee6565b60405180910390fd5b600073ffffffffffffffffffffffffffffffffffffffff168373ffffffffffffffffffffffffffffffffffffffff160361091d5760006040517f94280d620000000000000000000000000000000000000000000000000000000081526004016109149190610ee6565b60405180910390fd5b81600160008673ffffffffffffffffffffffffffffffffffffffff1673ffffffffffffffffffffffffffffffffffffffff16815260200190815260200160002060008573ffffffffffffffffffffffffffffffffffffffff1673ffffffffffffffffffffffffffffffffffffffff168152602001908152602001600020819055508015610a0a578273ffffffffffffffffffffffffffffffffffffffff168473ffffffffffffffffffffffffffffffffffffffff167f8c5be1e5ebec7d5bd14f71427d1e84f3dd0314c0f7b2291e5b200ac8c7c3b92584604051610a019190610e05565b60405180910390a35b50505050565b600073ffffffffffffffffffffffffffffffffffffffff168373ffffffffffffffffffffffffffffffffffffffff1603610a62578060026000828254610a56919061103c565b92505081905550610b35565b60008060008573ffffffffffffffffffffffffffffffffffffffff1673ffffffffffffffffffffffffffffffffffffffff16815260200190815260200160002054905081811015610aee578381836040517fe450d38c000000000000000000000000000000000000000000000000000000008152600401610ae5939291906110dc565b60405180910390fd5b8181036000808673ffffffffffffffffffffffffffffffffffffffff1673ffffffffffffffffffffffffffffffffffffffff16815260200190815260200160002081905550505b600073ffffffffffffffffffffffffffffffffffffffff168273ffffffffffffffffffffffffffffffffffffffff1603610b7e5780600260008282540392505081905550610bcb565b806000808473ffffffffffffffffffffffffffffffffffffffff1673ffffffffffffffffffffffffffffffffffffffff168152602001908152602001600020600082825401925050819055505b8173ffffffffffffffffffffffffffffffffffffffff168373ffffffffffffffffffffffffffffffffffffffff167fddf252ad1be2c89b69c2b068fc378daa952ba7f163c4a11628f55a4df523b3ef83604051610c289190610e05565b60405180910390a3505050565b600081519050919050565b600082825260208201905092915050565b60005b83811015610c6f578082015181840152602081019050610c54565b60008484015250505050565b6000601f19601f8301169050919050565b6000610c9782610c35565b610ca18185610c40565b9350610cb1818560208601610c51565b610cba81610c7b565b840191505092915050565b60006020820190508181036000830152610cdf8184610c8c565b905092915050565b600080fd5b600073ffffffffffffffffffffffffffffffffffffffff82169050919050565b6000610d1782610cec565b9050919050565b610d2781610d0c565b8114610d3257600080fd5b50565b600081359050610d4481610d1e565b92915050565b6000819050919050565b610d5d81610d4a565b8114610d6857600080fd5b50565b600081359050610d7a81610d54565b92915050565b60008060408385031215610d9757610d96610ce7565b5b6000610da585828601610d35565b9250506020610db685828601610d6b565b9150509250929050565b60008115159050919050565b610dd581610dc0565b82525050565b6000602082019050610df06000830184610dcc565b92915050565b610dff81610d4a565b82525050565b6000602082019050610e1a6000830184610df6565b92915050565b600080600060608486031215610e3957610e38610ce7565b5b6000610e4786828701610d35565b9350506020610e5886828701610d35565b9250506040610e6986828701610d6b565b9150509250925092565b600060ff82169050919050565b610e8981610e73565b82525050565b6000602082019050610ea46000830184610e80565b92915050565b600060208284031215610ec057610ebf610ce7565b5b6000610ece84828501610d35565b91505092915050565b610ee081610d0c565b82525050565b6000602082019050610efb6000830184610ed7565b92915050565b60008060408385031215610f1857610f17610ce7565b5b6000610f2685828601610d35565b9250506020610f3785828601610d35565b9150509250929050565b7f4e487b7100000000000000000000000000000000000000000000000000000000600052602260045260246000fd5b60006002820490506001821680610f8857607f821691505b602082108103610f9b57610f9a610f41565b5b50919050565b7f4f6e6c79206f776e65722063616e206d696e7420746f6b656e73000000000000600082015250565b6000610fd7601a83610c40565b9150610fe282610fa1565b602082019050919050565b6000602082019050818103600083015261100681610fca565b9050919050565b7f4e487b7100000000000000000000000000000000000000000000000000000000600052601160045260246000fd5b600061104782610d4a565b915061105283610d4a565b925082820190508082111561106a5761106961100d565b5b92915050565b7f45786365656473206d6178696d756d20737570706c7900000000000000000000600082015250565b60006110a6601683610c40565b91506110b182611070565b602082019050919050565b600060208201905081810360008301526110d581611099565b9050919050565b60006060820190506110f16000830186610ed7565b6110fe6020830185610df6565b61110b6040830184610df6565b94935050505056fea26469706673582212207da6e06d9b479103a3293a386a721f3ca4616179f819eb01b5142f0c8309186964736f6c63430008180033",
  "linkReferences": {},
  "deployedLinkReferences": {}
}